:02000002D0002C
:1040000000400D0048560D00000006000C000501A0
:08401000040135080000000066
:04401800E8530D005C
:10401C0009480A49884208B505D0094A824202D0AB
:10402C00121A01F099F90748074A0021121A01F0F7
:10403C00A1F9014808BD00BFB8E50320B4550D0037
:10404C0024E6032024E60320F0E7032070B5074E96
:10405C00074C00F001FEA41BA4080025A54200D1CA
:10406C0070BD56F8043B98470135F7E780550D00B5
:10407C00A4550D0000F098B808B500F0E3F9BDE8C0
:10408C00084000F0ABBD00F069BC00F067BC00F06C
:10409C006DBC0078B0FA80F04009704701230370C2
:1040AC007047FEE710B503682F2B044604D9074A66
:1040BC0000210A2000F0B6FB23681F2B83BF03F0FE
:1040CC001F03034823604FF0A04010BD11460D00A4
:1040DC000003005007B5019001A8FFF7E3FF019A18
:1040EC0001239340C0F8083503B05DF804FB10B50C
:1040FC00012303748368044643B1C06898470123C5
:10410C0063740020BDE8104000F0BCBA00680028C1
:10411C00F5D083680BB901F00EF9C368EEE710B562
:10412C000446006808B100F021FC204610BD38B5EB
:10413C00046805464CB1A3681BB1032221462046F6
:10414C0098471021204601F0F0F828461421BDE8CC
:10415C00384001F0EAB810B5036804469BB15868C2
:10416C0000F068FA78B923685A7C12B9586800F0E4
:10417C0069FA2368586800F06DFA20680023236000
:10418C0008B1FFF7D4FF206808B1FFF7D0FF204635
:10419C0010BD0000034B59685A68521A8242FBD377
:1041AC00704700BF001000E008B500F055FE4FF45A
:1041BC00165100F045FE0521022001F05FF8BDE824
:1041CC0008400221042001F059B80000F7B5344D25
:1041DC00344C2B78BFF35B8F13F0010F09D12846B9
:1041EC00FFF757FF28B100F0EDF920602846FFF7E4
:1041FC0055FF236893F820305E012B78BFF35B8F5B
:10420C00D90709D42648FFF744FF28B100F0DAF9A2
:10421C0020602348FFF742FF2368234F93F8213097
:10422C0003F01F03334301A80193FFF73BFF019AEF
:10423C0001239340C0F80C353868FFF7ABFF2B789F
:10424C00BFF35B8FDA0709D41548FFF722FF28B1BB
:10425C0000F0B8F920601248FFF720FF236893F8AC
:10426C0020602B78BFF35B8FDB074FEA461609D42F
:10427C000B48FFF70EFF28B100F0A4F920600848A6
:10428C00FFF70CFF236893F8210000F01F00304368
:10429C00FFF720FF3868FFF77DFF03B0F0BD00BFCC
:1042AC0028E603202CE603203CE60320F7B5344D2A
:1042BC00344C2B78BFF35B8F13F0010F09D12846D8
:1042CC00FFF7E7FE28B100F07DF920602846FFF7E4
:1042DC00E5FE236893F820602B78BFF35B8FD9073A
:1042EC004FEA461609D42648FFF7D3FE28B100F052
:1042FC0069F920602248FFF7D1FE236893F821006A
:10430C0000F01F003043204EFFF7E4FE3068FFF74B
:10431C0041FF2B78BFF35B8FDA0709D41848FFF7FE
:10432C00B8FE28B100F04EF920601548FFF7B6FE34
:10433C00236893F820305F012B78BFF35B8FDB078A
:10434C0009D40F48FFF7A5FE28B100F03BF9206017
:10435C000B48FFF7A3FE236893F8213003F01F03EB
:10436C003B4301A80193FFF79DFE019A0123934063
:10437C00C0F80C353068FFF70DFF03B0F0BD00BF7F
:10438C0028E603202CE603203CE6032008B5FFF7C3
:10439C001DFFFFF71BFFFFF789FFFFF717FFFFF765
:1043AC0085FFFFF713FFFFF781FFBDE80840FFF71C
:1043BC000DBF08B5FFF70AFFFFF708FFFFF706FF71
:1043CC00FFF704FFFFF702FFFFF700FFFFF7FEFE0A
:1043DC00FFF7FCFEFFF7FAFEFFF7F8FEFFF7F6FE1D
:1043EC00FFF7F4FEFFF7F2FEFFF7F0FEFFF7EEFE2D
:1043FC00BDE80840FFF75ABF08B5FFF7E7FEFFF727
:10440C0055FFFFF7E3FEFFF751FFFFF7DFFEFFF766
:10441C004DFFFFF7DBFEBDE80840FFF747BF08B5CF
:10442C00FFF7D4FEFFF742FFFFF740FFFFF73EFF19
:10443C00FFF73CFFFFF73AFFFFF738FFBDE80840F6
:10444C00FFF7C4BE70B5FFF7D7FF1F4C1F4DFFF72A
:10445C00E6FF01210846FFF7ACFFFFF797FFFFF7D8
:10446C00DEFF2378BFF35B8F13F0010F09D12046D9
:10447C00FFF70FFE28B100F0A5F828602046FFF7E3
:10448C000DFE2B6893F820602378BFF35B8FDB075E
:10449C004FEA461609D40C48FFF7FBFD28B100F093
:1044AC0091F828600848FFF7F9FD2B6893F8210074
:1044BC0000F01F003043FFF70DFEBDE8704042F2E4
:1044CC00107000F049BB00BF28E603202CE6032047
:1044DC0037B5274D274BAB60002402202C60AC80F5
:1044EC00AC7100F0A7F9244A2449284600F018FFC3
:1044FC002146012000F0AEF92149142000F017FFED
:10450C0028B1C0E90044C0E90244047444741D4C51
:10451C002060A8B11C4B83600023C3604FF4406340
:10452C00CDE9000319491A4B0222043000F07AF845
:10453C0030B923681B7C4BB9012000F05BF8F8E71D
:10454C0020680023236008B1FFF7F1FD0A4A1149E6
:10455C000C4800F0E5FE104B104A1B68B3FBF2F25E
:10456C0040F6C41353430E4A136003B030BD00BF72
:10457C0030E603200000FFFF24E603202B410D0052
:10458C007C550D0040E60320AF400D00FC530D00A0
:10459C00FB400D0063410D00BCE5032040420F00C1
:1045AC003CE6032008B5024B1B689B68019308BDD1
:1045BC006802030008B5024B1B68DB68019308BD59
:1045CC006802030008B5024B1B681B68019308BD09
:1045DC002C02030008B5024B1B689B68019308BDB5
:1045EC002C02030008B5024B1B685B68019308BDE5
:1045FC001802030008B5024B1B689B68019308BDA9
:10460C001802030008B5024B1B68DB68019308BD58
:10461C001802030008B5024B1B685B69019308BDC7
:10462C001802030008B5024B1B685B68019308BDB8
:10463C004802030008B5024B1B689B68019308BD38
:10464C004802030008B5024B1B681B69019308BDA7
:10465C004802030008B5024B1B685B69019308BD57
:10466C004802030008B5024B1B685B6C019308BD44
:10467C004802030008B5024B1B689B6C019308BDF4
:10468C004802030008B5024B1B68DB6E019308BDA2
:10469C004802030008B5024B1B685B69019308BD17
:1046AC006402030008B5024B1B681B68019308BD2C
:1046BC003C02030008B5024B1B68DB68019308BD84
:1046CC003C02030008B5024B1B681B69019308BD33
:1046DC003C02030008B5024B1B685B69019308BDE3
:1046EC003C02030008B5024B1B689B69019308BD93
:1046FC003C02030008B5024B1B68DB69019308BD43
:10470C003C02030008B5024B1B681B6A019308BDF1
:10471C003C02030008B5024B1B689B6A019308BD61
:10472C003C02030008B5024B1B681B6A019308BDD1
:10473C002802030008B5024B1B685B6A019308BD95
:10474C002802030008B5024B1B689B6A019308BD45
:10475C002802030008B5024B1B68DB6A019308BDF5
:10476C002802030008B5024B1B681B6B019308BDA4
:10477C002802030008B5024B1B685B6B019308BD54
:10478C002802030008B5024B1B681B6C019308BD83
:10479C002802030008B5024B1B68DB69019308BDB6
:1047AC003002030008B5024B1B681B6A019308BD5D
:1047BC003002030008B5024B1B681B68019308BD4F
:1047CC004C02030008B5024B1B685B68019308BDE3
:1047DC004C02030008B5024B1B681B69019308BD12
:1047EC004C02030008B5024B1B685B69019308BDC2
:1047FC004C02030008B5024B1B689B69019308BD72
:10480C004C02030008B5024B1B68DB69019308BD21
:10481C004C02030008B5024B1B681B6A019308BDD0
:10482C004C02030008B5024B1B685B6B019308BD7F
:10483C006002030008B5024B1B685B68019308BD5E
:10484C002002030008B5024B1B685B69019308BD8D
:10485C002002030008B5024B1B68DB6A019308BDFC
:10486C002002030008B5034B1B68D3F88830019372
:10487C0008BD00002002030008B5034B1B68D3F8E9
:10488C009430019308BD00002002030008B5024BD0
:10489C001B685B68019308BD4002030008B5024B1E
:1048AC001B689B68019308BD4002030008B5024BCE
:1048BC001B68DB68019308BD4002030008B5024B7E
:1048CC001B681B69019308BD4002030008B5024B2D
:1048DC001B685B69019308BD4002030008B5024BDD
:1048EC001B689B69019308BD4002030008B5024B8D
:1048FC001B68DB69019308BD4002030008B5024B3D
:10490C001B681B6A019308BD4002030008B5024BEB
:10491C001B681B6B019308BD4002030008B5024BDA
:10492C001B685B6B019308BD4002030008B5024B8A
:10493C001B681B6C019308BD4002030008B5024BB9
:10494C001B685B6C019308BD4002030008B5024B69
:10495C001B68DB6B019308BD4402030008B5024BD6
:10496C001B681B68019308BD1C02030008B5024BB1
:10497C001B685B68019308BD1C02030008B5024B61
:10498C001B68DB6A019308BD1C02030008B5024BCF
:10499C001B685B6C019308BD1C020300002240687D
:1049AC001146FFF7ABBF002240681146FFF7B6BFB8
:1049BC0040680022FFF7AABF4068002281F0010185
:1049CC00FFF794BF002340681A461946FFF786BFCD
:1049DC00002340681A461946FFF778BF002240684A
:1049EC001146FFF76BBF002240681146FFF756BF18
:1049FC00406800220221FFF759BF002340681A4685
:104A0C00FFF744BF024B03225A60024A1A607047F8
:104A1C0044E6032014540D0010B5044608462170DA
:104A2C00FFF7B8FE00236360204610BD10B5094B9C
:104A3C00094C022200201A60084B2060A080A07153
:104A4C00A360FFF7F7FE2046054A0649BDE8104073
:104A5C0000F066BC58E603204CE603200000FFFF84
:104A6C0024E603202B410D0010B50446006808B164
:104A7C00FFF700FE204610BD10B5064C0023204663
:104A8C002360FFF7EFFD2046034A0449BDE81040C0
:104A9C0000F046BC5CE6032024E60320754A0D00BA
:104AAC00F8B506460D468F180024BD420CD033686D
:104ABC0015F8011B9B6830469847031E01DB1C440C
:104ACC00F3E7002C08BF1C462046F8BD13B504467E
:104ADC00084659B1019100F079FC23680199DB6813
:104AEC000246204602B0BDE81040184702B010BD87
:104AFC0003689B68184730B58BB000238DF82430C1
:104B0C00012A98BF0A2209AC0D46B1FBF2F101FB58
:104B1C00125303F0FF03092B94BF30333733DBB24E
:104B2C00AA4204F8013DEFD92146FFF7CFFF0BB0A5
:104B3C0030BD0000014B024A1A60704760E603204A
:104B4C0048540D00024B1A68024B1A60704700BFA4
:104B5C00B8E5032064E603200021FFF773BE10B50F
:104B6C008368044613B1032201469847204610BDC2
:104B7C0010B50446FFF7F3FF204610BD0348044A66
:104B8C0004490023836000F0CBBB00BF68E6032020
:104B9C0024E603207D4B0D00014B1860704700BFCD
:104BAC00C0E5032008B50B4B43B100F055F9036881
:104BBC001B699847002801DDAFF30080064B43B119
:104BCC0000F0C8F903681B699847002801DDAFF3B2
:104BDC00008008BD000000000000000008B5FFF7D1
:104BEC00E1FFFFF717FD014B186008BDD4E7032068
:104BFC000248034A0349121A00F0AEBB00F403202A
:104C0C0004F40320B0550D0007B5002300931A4699
:104C1C006FF07701FFF730FE03B05DF804FB000086
:104C2C0007B543880A2B08D0502B0BD1094B1B68B6
:104C3C004BB103B05DF804EB1847FFF7E5FF03B089
:104C4C005DF804FB002300931A466FF07701FFF721
:104C5C0013FEF4E77CE6032038B5124C1248134DD2
:104C6C000021FFF793FE2368AB42114B0CBF0122CE
:104C7C0000221A7002D0FFF7BBFF2560FFF7B2FCD1
:104C8C00044600F07FFB0B4B13B12046AFF30080C2
:104C9C0000210848FFF75AFEBDE8384006480021BD
:104CAC00FFF7E0BD00F40320A54B0D001E1C279A56
:104CBC0078E60320000000002D4C0D00704710B565
:104CCC001821044600F031FB204610BDF0B5037DE1
:104CDC00062B8DB00E4600F104074FF0000412D0E5
:104CEC0000F1080515F8011D0A223046FFF703FFF5
:104CFC00AF42044419D0002CF4D02E213046FFF7DB
:104D0C00F7FE0444EEE72F236A4639460A208DF855
:104D1C000040FFF7BFFC684600F058FB33680246C2
:104D2C00DB68694630469847044620460DB0F0BD16
:104D3C0010B5054B0446112240F8043B002100F04D
:104D4C0019FB204610BD00BF70540D000346074AE6
:104D5C0010B543F8042B01F1100251F8044B43F841
:104D6C00044B9142F9D10A781A7010BD70540D00A1
:104D7C0010B59DF8084044EA032343EA024242EA94
:104D8C00016104234160037510BD13B5CB7800930A
:104D9C008B784A780978FFF7EBFF02B010BD4174AD
:104DAC007047704708B50021007CFFF723FD40EAEF
:104DBC00E07008BD08B50121007CFFF71BFD40EA3F
:104DCC00E07008BD08B5007CFFF70CFD20EAE07030
:104DDC0008BD08B5007CFFF7FDFC20EAE07008BDBB
:104DEC0013B50446007C0191FFF7FCFC00280199E7
:104DFC0001DC607C20B1207CFFF704FD20EAE07030
:104E0C0002B010BD007CFFF705BD10B5142104469F
:104E1C0000F08BFA204610BD10B54FF47A7304469F
:104E2C0008460021C4E90113044B236001232074BC
:104E3C0063741146FFF7BEFC204610BD84540D0070
:104E4C00007C0022FFF7BEBC10B5142204460021E2
:104E5C0000F090FA204610BD10B5104C88B003A895
:104E6C00FFF7F2FF2178BFF35B8F11F0010111D135
:104E7C0020460191FFF70DF9019958B103AA084892
:104E8C00FFF7CAFF2046FFF709F9064A064904480E
:104E9C0000F046FA024808B010BD00BF80E60320BF
:104EAC0084E6032024E60320AF4D0D0070474174C7
:104EBC00704708B5007CFFF72DFC20EAE07008BDB8
:104ECC0008B5007CFFF7FEFB20EAE07008BD08B5D2
:104EDC00007CFFF707FC40EAE07008BD08B5007CD9
:104EEC00FFF7F8FB40EAE07008BD007CFFF702BC5E
:104EFC0037B5457C04462DB1207C03B0BDE830406D
:104F0C00FFF7D8BB007C0191FFF704FC0028019946
:104F1C00F2DC284603B030BD10B51421044600F075
:104F2C0004FA204610BD000010B54FF0000C0446EA
:104F3C00084611464FF47A72C4E901C2044A226051
:104F4C000122207462741A46FFF7ACFB204610BD98
:104F5C00B4540D0013B50E4C2178BFF35B8F11F0D8
:104F6C00010112D120460191FFF793F8019960B12C
:104F7C00084A094B0948FFF7D7FF2046FFF78EF880
:104F8C00074A0849054800F0CBF9044802B010BDA7
:104F9C0098E603209CE6032020E70320A4E70320E7
:104FAC0024E60320B94E0D007047F8B506461546A9
:104FBC000C468F18BC4206D0336814F8011B9B6852
:104FCC0030469847F6E72846F8BD007C0022FFF7EC
:104FDC00A9BB007C0021FFF7ADBB007C0021FFF7D3
:104FEC00B1BB007C0021FFF7B5BB007C0021FFF7B3
:104FFC00B9BB10B51421044600F097F9204610BD3A
:10500C0010B54FF47A73044608460021C4E9011325
:10501C00034B236020741146FFF7B4FB204610BDF0
:10502C00E4540D00002240681146FFF747BC0022F3
:10503C0040681146FFF762BC002240681146FFF73A
:10504C006DBC40680022FFF761BC4068002281F013
:10505C000101FFF74BBC002340681A461946FFF7C5
:10506C003DBC002340681A461946FFF72FBC0022AE
:10507C0040681146FFF712BC406800220221FFF77E
:10508C0015BC002340681A46FFF700BC024B0422F3
:10509C005A60024A1A607047B8E703200C550D009D
:1050AC00002340681A46FFF7F1BB4068002202213A
:1050BC00FFF7FCBB002240681146FFF7EFBB002254
:1050CC0040681146FFF7FABB002340681A461946A0
:1050DC00FFF7FCBB002340681A461946FFF7FEBBDE
:1050EC0040680021FFF722BC40680021FFF726BC76
:1050FC004068002281F00101FFF7F8BB40680022F4
:10510C00FFF704BC002240681146FFF707BC0022E1
:10511C0040681146FFF7F2BB2DE9F043002495B02F
:10512C0016460D460746FFF703FE214618220EA829
:10513C00009400F01FF94023CDE90C3421466B4656
:10514C000CAA3046FFF736FA0446002846D1024630
:10515C0001216868FFF7B2FB02218046224668688D
:10516C00FFF7ACFB009E81462146002E36D000296D
:10517C0034D17368022B03D00A2B0BD0F669F4E7F9
:10518C00B8F1000F04D0716938460431FFF7FDFD0A
:10519C004146F3E7B9F1000F01D14946EEE77469D6
:1051AC00102201A800F0E6F806238DF8143001ADAA
:1051BC0004F108031834186859682A4603C20833E6
:1051CC00A3421546F7D101A906A807ADFFF7BEFD0E
:1051DC000FCD3C1D0FC42B682370DEE70098FFF742
:1051EC00E1F9384615B0BDE8F0830000024B034AE4
:1051FC001A6000225A607047C0E7032048550D0022
:10520C00232813B502D9002002B010BDA0F10B0366
:10521C00022B1AD8174C2178BFF35B8F11F00101C8
:10522C000BD120460191FEF734FF019928B11248A9
:10523C00FFF7F2FB2046FEF731FF0F4B1878FFF714
:10524C00B1FA0028DFD10120DEE7012809D800F0EF
:10525C003FF80021007CFFF78DFA80F00100C0B20E
:10526C00D2E709380128EED8FFF774FE007CFFF76F
:10527C0049FAF2E7C8E70320CCE70320232838B526
:10528C0004460D460AD8FF2908D0FFF7B9FF28B10C
:10529C0029462046BDE83840FFF79CB938BD0000D0
:1052AC0038B50023202543801423044603808560F1
:1052BC0005610649284600F03CF804496060284620
:1052CC0000F037F8E060204638BD00BF7C550D007B
:1052DC0030B50F4D2978BFF35B8F11F0010487B007
:1052EC0013D12846FEF7D5FE78B101A8FFF7D8FFF9
:1052FC0001AA21460748FFF783FE2846FEF7CEFE9B
:10530C00054A0649034800F00BF8024807B030BDC7
:10531C00D8E70320DCE7032024E60320B54F0D007B
:10532C000B460146184600F009B8FEF7B0BEFEF772
:10533C00AABEFEF7AABE08B5FFF720FB10B5054CB8
:10534C0013462CB10A4601460220AFF3008010BD73
:10535C002046FCE7000000000A44914200F1FF33B4
:10536C0000D1704710B511F8014B03F8014F914271
:10537C00F9D110BD02440346934200D1704703F8A3
:10538C00011BF9E738B50D4B1D68AB6B04467BB9B7
:10539C001820FFF7E3FA0A4A0A4BA863C0E9002376
:1053AC00094B83600B23838101220023C0E9042372
:1053BC00AB6B00221C615A6138BD00BFC0E50320F5
:1053CC000E33CDAB34126DE6ECDE0500034613F85C
:1053DC00012B002AFBD1181A013870471D400D0013
:1053EC0059400D0081400D0085400D00000000006B
:1053FC00726563656976696E67546872656164008D
:10540C000000000000000000074A0D00FD490D00DF
:10541C00F3490D00E9490D00DD490D00D1490D009E
:10542C00ED500D00F5500D00C5490D00BD490D00A6
:10543C00B3490D00A9490D0025510D006170700094
:10544C0025592D256D2D25645425483A254D3A2591
:10545C0053257A0061736374696D65000000000068
:10546C0000000000D94C0D00C94C0D00CB4C0D00B8
:10547C000000000000000000AF4D0D00174E0D00A5
:10548C00ED4D0D00AD4A0D00DF4D0D00B14D0D0081
:10549C00C14D0D00114E0D00D14D0D00AB4D0D0049
:1054AC000000000000000000B94E0D00254F0D005B
:1054BC00FD4E0D00AD4A0D00CD4E0D00E94E0D0018
:1054CC00DB4E0D00F74E0D00BB4E0D00BF4E0D0018
:1054DC000000000000000000B54F0D00FF4F0D0054
:1054EC00D74F0D00B74F0D00DF4F0D00E74F0D00EC
:1054FC00EF4F0D00F74F0D00000000000000000002
:10550C008F500D0085500D007B500D0031500D005B
:10551C006F500D0063500D00ED500D00F5500D0057
:10552C0057500D004F500D0045500D003B500D00D5
:10553C0025510D000000000000000000AD500D00D2
:10554C00B7500D00C1500D00CB500D00D5500D00C3
:10555C00E1500D00ED500D00F5500D00FD500D000B
:10556C0009510D0011510D001B510D0025510D005D
:10557C0000000000DD440D00114A0D00394A0D00F9
:10558C00854A0D00414B0D00514B0D00894B0D0010
:10559C0099500D00F9510D000000000000000000B2
:0455AC0000000000FB
:0455B00000000000F7
:1055B40060540D000090D003C4E5032000000000F7
:1055C40000000000000000000000000000000000D7
:1055D40000000000000000000000000000000000C7
:1055E40000000000000000000000000000000000B7
:1055F40000000000000000000000000000000000A7
:105604000000000000000000000000000000000096
:0C5614000000000000000000000000008A
:10562000FFFFFFFF00000102030405060708090A47
:105630000B0C0D0E0F101112131415161718191A42
:085640001B1C1D1E1F20280089
:04564800785634124A
:04000003D000401CCD
:00000001FF
