:02000002D0002C
:1040000000400D0010680D00000006000C000501C6
:08401000040135080000000066
:044018003C650D00F6
:10401C0009480A49884208B505D0094A824202D0AB
:10402C00121A02F00FFA0748074A0021121A02F07E
:10403C0017FA014808BD00BF70E4032074670D0037
:10404C00E4E40320E4E40320F0E7032070B5074E1A
:10405C00074C01F0DBF9A41BA4080025A54200D1F4
:10406C0070BD56F8043B98470135F7E744670D00DF
:10407C0068670D0000F0ECB908B500F045FDBDE82F
:10408C00084001F085B901F029B801F027B801F01A
:10409C002DB80078B0FA80F0400970470123037006
:1040AC007047000010B503682F2B044604D9074A4B
:1040BC0000210A2000F06EFF23681F2B83BF03F042
:1040CC001F03034823604FF0A04010BD314D0D007D
:1040DC000003005010B5012303748368044643B1F8
:1040EC00C0689847012363740020BDE8104000F0BD
:1040FC0081BE00680028F5D083680BB901F03BFD48
:10410C00C368EEE710B50446006808B100F0EEFF96
:10411C00204610BD08B50021022000F05BFFBDE871
:10412C00084000F05FBE38B5044688B105684DB153
:10413C00AB681BB103222946284698471021284614
:10414C0001F013FD20461421BDE8384001F00DBDEF
:10415C0038BD08B50021022000F03CFFBDE8084046
:10416C0000F038BE10B5036804469BB1586800F0E7
:10417C00F1FD78B923685A7C12B9586800F0F2FD49
:10418C002368586800F0F6FD20680023236008B10E
:10419C00FFF7C9FF206808B1FFF7C5FF204610BD27
:1041AC00034B59685A68521A8242FBD3704700BFBE
:1041BC00001000E0F7B5374D374C2B78BFF35B8F11
:1041CC0013F0010F09D12846FFF763FF28B100F067
:1041DC0069FD20602846FFF761FF236893F82030C3
:1041EC005E012B78BFF35B8FD90709D42948FFF701
:1041FC0050FF28B100F056FD20602648FFF74EFF17
:10420C00236893F8213003F01F03334301A8019373
:10421C00FFF748FF019A214E01239340C0F80C355B
:10422C003068FFF7BDFF2B78BFF35B8FDA0709D43B
:10423C001848FFF72EFF28B100F034FD2060154818
:10424C00FFF72CFF236893F820305F012B78BFF326
:10425C005B8FDB0709D40F48FFF71BFF28B100F079
:10426C0021FD20600B48FFF719FF236893F82130DC
:10427C0003F01F033B4301A80193FFF713FF019ABF
:10428C0001239340C0F808353068FFF789FF03B06D
:10429C00F0BD00BFE8E40320ECE4032018E60320A3
:1042AC00F7B5374D374C2B78BFF35B8F13F0010FFD
:1042BC0009D12846FFF7EDFE28B100F0F3FC206091
:1042CC002846FFF7EBFE236893F820305E012B782D
:1042DC00BFF35B8FD90709D42948FFF7DAFE28B161
:1042EC0000F0E0FC20602648FFF7D8FE236893F826
:1042FC00213003F01F03334301A80193FFF7D2FED3
:10430C00019A214E01239340C0F808353068FFF71D
:10431C0047FF2B78BFF35B8FDA0709D41848FFF7F8
:10432C00B8FE28B100F0BEFC20601548FFF7B6FEC1
:10433C00236893F820305F012B78BFF35B8FDB078A
:10434C0009D40F48FFF7A5FE28B100F0ABFC2060A4
:10435C000B48FFF7A3FE236893F8213003F01F03EB
:10436C003B4301A80193FFF79DFE019A0123934063
:10437C00C0F80C353068FFF713FF03B0F0BD00BF79
:10438C00E8E40320ECE4032018E6032008B5FFF76B
:10439C0011FFFFF785FFFFF70DFFFFF781FFFFF719
:1043AC0009FFFFF77DFFFFF705FFBDE80840FFF7AA
:1043BC0077BF08B1FFF774BFFFF7FCBE70B50446BA
:1043CC004618B4420BD000252078284100F001009B
:1043DC000135FFF7EEFF082DF6D10134F1E770BD82
:1043EC0038B50546002445FA04F000F0010001340C
:1043FC00FFF7DFFF082CF6D138BD38B50546002491
:10440C0045FA04F000F001000134FFF7D2FF102C44
:10441C00F6D138BD38B50D4D0446286800F0BAFC0D
:10442C00FFF7B4FF7E20FFF7DBFF0120FFF7D8FF7B
:10443C000020FFF7D5FF2046FFF7DFFF7E20FFF7B8
:10444C00CFFF2868BDE8384000F0ACBC40E6032044
:10445C001FB501F0DBF84FF4165101F0CBF8052134
:10446C00022001F02BFB00240221042001F026FB8A
:10447C00204900944FF0FF332246042001F0F2F85B
:10448C001D4800F07FFC1D49142001F070FB28B181
:10449C00C0E90044C0E90244047444740390A8B118
:1044AC00174B83600023C3604FF44063CDE90003D6
:1044BC001449154B0222043000F044FC30B9039B24
:1044CC001B7C4BB9012000F025FCF8E70398002376
:1044DC00039308B1FFF727FE0023039A03930B4BBA
:1044EC0018681A6008B1FFF71EFE03A8FFF73AFE22
:1044FC0004B010BD59460D0040E6032040670D0086
:10450C00C14A0D0050650D00E1400D0034E603205A
:10451C00064A28B1064910880B8803439BB20B80CE
:10452C0013889BB25B009BB21380704774E403202A
:10453C0002E60320054A20B1054910780B780343A5
:10454C000B7013785B00DBB21370704776E40320BA
:10455C0020E60320064A28B1064910880B8803433D
:10456C009BB20B8013889BB25B009BB2138070478D
:10457C0070E40320FEE50320054A20B105491078BC
:10458C000B7803430B7013785B00DBB2137070472E
:10459C0072E4032000E60320054A20B10549107897
:1045AC000B7803430B7013785B00DBB2137070470E
:1045BC0077E4032038E6032008B501F07DF8054BBD
:1045CC0001221A7001F022F8BDE80840024900F0FF
:1045DC0062BE00BF01E603205E650D000E4A0F4966
:1045EC00002313600E4A13700E4A136001220A80D6
:1045FC000D490B800D490A700D490B700D490A804D
:10460C000D490B800D490A700D490B700D490A704C
:10461C000D4A1370704700BF3CE6032074E403207E
:10462C00FBE503202CE6032002E6032076E40320BE
:10463C0020E6032070E40320FEE5032072E403204F
:10464C0000E6032077E4032038E603202DE9F34746
:10465C008D4B8E4C5B688E4E236033788D4FBFF341
:10466C005B8F13F0010F09D13046FFF712FD28B113
:10467C0000F018FB38603046FFF710FD3B6893F8EC
:10468C0040503378BFF35B8FDB074FEA451809D4F2
:10469C007F48FFF7FEFC28B100F004FB38607C4833
:1046AC00FFF7FCFC3B687C4E93F8415005F01F056E
:1046BC0045EA080501A80195FFF7F4FCD0F8103580
:1046CC00019501A8FFF7EEFC019AD0F81035734D57
:1046DC00D34003F0010333702B68062B2AD8DFE894
:1046EC0013F007000F002C005A0093000101370152
:1046FC006B4B22681A603378E3B901232B6019E005
:10470C0033783BB9674A236811685B1A66490B60BA
:10471C0023681360654A13680133072B136009D9AA
:10472C0002232B60604B624A1B689B081360614B31
:10473C0022681A6002B0BDE8F0875E4F20683B68C3
:10474C005B4AC01AD2F800A001F05AFB80465046D2
:10475C00894601F055FB584B002201F0CBFB024679
:10476C000B464046494601F037FE0028E2D123684B
:10477C003B60307880F00100FFF70EFF4F4B1B7849
:10478C00002BD7D14E4B1B787E2B02D0FFF714FF9A
:10479C00D0E70323B2E7474F20683B68444AC01A6E
:1047AC00D2F800A001F02CFB80465046894601F05F
:1047BC0027FB414B002201F09DFB02460B46404675
:1047CC00494601F009FE0028B4D123683B603078DB
:1047DC0080F00100FFF79CFE3A4B1B889BB2002B2C
:1047EC00A8D1394B39491A8812F001021BBF01229A
:1047FC000A700A70052208BF04222A601B88344AFA
:10480C00C3F30723137095E72A4F20683B68284AA7
:10481C00C01AD2F800A001F0F3FA8046504689463F
:10482C0001F0EEFA244B002201F064FB02460B4629
:10483C004046494601F0D0FD00287FF47BAF236849
:10484C003B60307880F00100FFF774FE21490B7853
:10485C0003F0FF04002B7FF46DAF1F4A1F48137841
:10486C001F4FDEB20133DBB213700378DBB2BB55E2
:10487C00012304700B70164B12781B789A427FF44C
:10488C0059AF05233AE700BF001000E008E603200B
:10489C00E8E40320ECE4032004E603203CE60320D8
:1048AC0014E6032028E6032024E603202CE603204C
:1048BC001CE6032010E603200000F83F77E40320F9
:1048CC0038E6032074E4032002E603200CE6032000
:1048DC0021E6032076E40320FBE5032020E60320F9
:1048EC00FCE40320364F20683B68364AC01AD2F8E5
:1048FC0000A001F085FA80465046894601F080FA06
:10490C00314B002201F0F6FA02460B46404649466E
:10491C0001F062FD00287FF40DAF23683B60307816
:10492C0080F00100FFF716FE284B1B889BB2002B72
:10493C007FF400AF264B274A1B781BB113882649FE
:10494C009BB20B801388254A9BB213800623D5E6B5
:10495C001B4F20683B681B4AC01AD2F800A001F01C
:10496C004FFA80465046894601F04AFA164B00220F
:10497C0001F0C0FA02460B464046494601F02CFDB8
:10498C0000287FF4D7AE23683B60307880F00100BC
:10499C00FFF7F2FD124B1B7803F0FF02002B7FF4A4
:1049AC00C9AE104B1B787E2B7FF4F0AE084B0E4932
:1049BC001B7883F001030B702A60FFF70FFEB9E63A
:1049CC0010E603201CE603200000F83F70E40320EF
:1049DC000CE60320FEE50320FCE5032030E6032073
:1049EC0072E4032000E6032022E6032010B5014404
:1049FC0004464FF6FF708C420CD014F8013B83EA4E
:104A0C00102383EA131343EA00225B01DBB2534009
:104A1C0098B2F0E710BD00002DE9F74F06460D46A1
:104A2C0017469846FFF7E2FF9DF830900446B9F11F
:104A3C00000F01D00134A4B2DFF870A0DFF8709041
:104A4C00D346D9F8000000F0A5F9FFF79FFC7E20B3
:104A5C00FFF7C6FC3846FFF7C3FC2846FFF7C0FC3F
:104A6C0029463046FFF7AAFC2046FFF7C6FC7E20FD
:104A7C00FFF7B6FCD9F8000000F094F90023BAF85F
:104A8C00002092B2A24208D04345019305D00120E8
:104A9C0000F03CFC019B0133F1E7BBF800309BB20A
:104AAC00A342CED103B0BDE8F08F00BFFCE50320DC
:104ABC0040E6032007B5002422464FF47A730E21FA
:104ACC000E480094FFF7A8FFFA2000F01FFC2246C6
:104ADC004FF47A730E210A480094FFF79DFFFA20D9
:104AEC0000F014FC074800944FF47A7322460E2110
:104AFC00FFF792FFFA2000F009FCDCE76C650D0073
:104B0C007A650D0088650D0038B5344B1A787AB388
:104B1C0000221A70324B334D19783348FFF766FF79
:104B2C002B889BB298424DD1288880B2FFF772FC3B
:104B3C0000F06CFDFFF70DFB00F068FD2B4900F059
:104B4C0097FB00F063FD284900F0A5FB00F05EFD2B
:104B5C00274900F08DFB00F059FD298804460A22F4
:104B6C0089B200F0A2FB204600F089FBFFF7D2FAD5
:104B7C00204B1B68A3B1204B204A5B68126820496C
:104B8C009B1A204A1268B2FBF1F2B3FBF2F38B4290
:104B9C0006D9FFF723FD00F039FD1B4900F07BFB24
:104BAC001A4B1A78C2B1002240F2EE21FA201A7088
:104BBC0000F04DFE00F0AAFBFFF710FDBDE83840F9
:104BCC0000F07CBD00F022FDFFF7C3FA00F01EFDE3
:104BDC000F4900F060FBC9E738BD00BF22E6032097
:104BEC0021E6032030E60320FCE4032096650D004B
:104BFC00A1650D003CE60320001000E014E6032044
:104C0C0040420F007CE40320BD650D0001E603204B
:104C1C00A8650D0038B5124D124BAB600024022074
:104C2C002C60AC80AC7100F0BDF90F4A0F492846DE
:104C3C0000F096FF2146012000F0C4F90C4B0D4901
:104C4C001B68B3FBF1F14FF42F734B430A480B492C
:104C5C0004600B60BDE83840034A094900F080BF8E
:104C6C00F0E403200000FFFFE4E4032011410D00F9
:104C7C007CE4032040420F0034E6032018E60320B6
:104C8C0071410D0008B5024B1B689B68019308BD70
:104C9C006802030008B5024B1B68DB68019308BD72
:104CAC006802030008B5024B1B681B68019308BD22
:104CBC002C02030008B5024B1B689B68019308BDCE
:104CCC002C02030008B5024B1B689B69019308BDBD
:104CDC002C02030008B5024B1B68DB69019308BD6D
:104CEC002C02030008B5024B1B681B6A019308BD1C
:104CFC002C02030008B5024B1B685B6A019308BDCC
:104D0C002C02030008B5024B1B685B68019308BDBD
:104D1C001802030008B5024B1B689B68019308BD81
:104D2C001802030008B5024B1B68DB68019308BD31
:104D3C001802030008B5024B1B685B69019308BDA0
:104D4C001802030008B5024B1B685B68019308BD91
:104D5C004802030008B5024B1B689B68019308BD11
:104D6C004802030008B5024B1B681B69019308BD80
:104D7C004802030008B5024B1B685B69019308BD30
:104D8C004802030008B5024B1B681B6B019308BD5E
:104D9C004802030008B5024B1B689B6B019308BDCE
:104DAC004802030008B5024B1B681B6C019308BD3D
:104DBC004802030008B5024B1B685B6C019308BDED
:104DCC004802030008B5024B1B689B6C019308BD9D
:104DDC004802030008B5024B1B68DB6C019308BD4D
:104DEC004802030008B5024B1B685B6D019308BDBC
:104DFC004802030008B5024B1B68DB6E019308BD2B
:104E0C004802030008B5024B1B685B69019308BD9F
:104E1C006402030008B5024B1B681B68019308BDB4
:104E2C003C02030008B5024B1B68DB68019308BD0C
:104E3C003C02030008B5024B1B681B69019308BDBB
:104E4C003C02030008B5024B1B685B69019308BD6B
:104E5C003C02030008B5024B1B689B69019308BD1B
:104E6C003C02030008B5024B1B68DB69019308BDCB
:104E7C003C02030008B5024B1B681B6A019308BD7A
:104E8C003C02030008B5024B1B689B6A019308BDEA
:104E9C003C02030008B5024B1B681B6A019308BD5A
:104EAC002802030008B5024B1B685B6A019308BD1E
:104EBC002802030008B5024B1B689B6A019308BDCE
:104ECC002802030008B5024B1B68DB6A019308BD7E
:104EDC002802030008B5024B1B681B6B019308BD2D
:104EEC002802030008B5024B1B685B6B019308BDDD
:104EFC002802030008B5024B1B681B6C019308BD0C
:104F0C002802030008B5024B1B68DB69019308BD3E
:104F1C003002030008B5024B1B681B6A019308BDE5
:104F2C003002030008B5024B1B681B68019308BDD7
:104F3C004C02030008B5024B1B685B68019308BD6B
:104F4C004C02030008B5024B1B681B69019308BD9A
:104F5C004C02030008B5024B1B685B69019308BD4A
:104F6C004C02030008B5024B1B689B69019308BDFA
:104F7C004C02030008B5024B1B68DB69019308BDAA
:104F8C004C02030008B5024B1B681B6A019308BD59
:104F9C004C02030008B5024B1B685B6B019308BD08
:104FAC006002030008B5024B1B685B68019308BDE7
:104FBC002002030008B5024B1B685B69019308BD16
:104FCC002002030008B5024B1B68DB6A019308BD85
:104FDC002002030008B5024B1B685B6B019308BDF4
:104FEC002002030008B5034B1B68D3F888300193EB
:104FFC0008BD00002002030008B5034B1B68D3F862
:10500C009430019308BD00002002030008B5024B48
:10501C001B685B68019308BD4002030008B5024B96
:10502C001B689B68019308BD4002030008B5024B46
:10503C001B68DB68019308BD4002030008B5024BF6
:10504C001B681B69019308BD4002030008B5024BA5
:10505C001B685B69019308BD4002030008B5024B55
:10506C001B689B69019308BD4002030008B5024B05
:10507C001B68DB69019308BD4002030008B5024BB5
:10508C001B681B6A019308BD4002030008B5024B64
:10509C001B681B6B019308BD4002030008B5024B53
:1050AC001B685B6B019308BD4002030008B5024B03
:1050BC001B681B6C019308BD4002030008B5024B32
:1050CC001B685B6C019308BD4002030008B5024BE2
:1050DC001B68DB6B019308BD4402030008B5024B4F
:1050EC001B681B68019308BD1C02030008B5024B2A
:1050FC001B685B68019308BD1C02030008B5024BDA
:10510C001B68DB6A019308BD1C02030008B5024B47
:10511C001B685B6C019308BD1C02030000224068F5
:10512C001146FFF7ABBF002240681146FFF7B6BF30
:10513C0040680022FFF7AABF4068002281F00101FD
:10514C00FFF794BF002340681A461946FFF786BF45
:10515C00002340681A461946FFF778BF00224068C2
:10516C001146FFF76BBF002240681146FFF756BF90
:10517C00406800220221FFF759BF002340681A46FD
:10518C00FFF744BF024B03225A60024A1A60704771
:10519C0044E60320D8650D0010B50446084621707E
:1051AC00FFF7B0FE00236360204610BD10B5094B1D
:1051BC00094C022200201A60084B2060A080A071CC
:1051CC00A360FFF7EFFE2046054A0649BDE81040F4
:1051DC0000F0C6BC58E603204CE603200000FFFF9D
:1051EC00E4E4032011410D0010B50446006808B139
:1051FC00FFF7E8FD204610BD10B5064C00232046F5
:10520C002360FFF7D7FD2046034A0449BDE8104050
:10521C0000F0A6BC5CE60320E4E40320F5510D008D
:10522C00F8B506460D468F180024BD420CD03368E5
:10523C0015F8011B9B6830469847031E01DB1C4484
:10524C00F3E7002C08BF1C462046F8BD13B50446F6
:10525C00084659B1019101F063F923680199DB68A3
:10526C000246204602B0BDE81040184702B010BDFF
:10527C0008B5FFF7EBFF08BD03689B68184738B506
:10528C000D210546FFF7F8FF0A2104462846FFF7D3
:10529C00F3FF204438BD38B50546FFF7D7FF044669
:1052AC002846FFF7ECFF204438BD30B58BB0002307
:1052BC008DF82430012A98BF0A2209AC0D46B1FBA7
:1052CC00F2F101FB125303F0FF03092B94BF3033AF
:1052DC003733DBB2AA4204F8013DEFD92146FFF780
:1052EC00B5FF0BB030BD0000014B024A1A6070478D
:1052FC0060E603200C660D00024B1A68024B1A6024
:10530C00704700BF78E4032064E603200021FFF718
:10531C0051BE10B58368044613B103220146984769
:10532C00204610BD10B50446FFF7F3FF204610BD14
:10533C000348044A04490023836000F011BC00BFF9
:10534C0068E60320E4E4032031530D00014B1860A0
:10535C00704700BF80E4032008B50B4B43B100F04D
:10536C0055F903681B699847002801DDAFF30080ED
:10537C00064B43B100F0F8F903681B699847002805
:10538C0001DDAFF3008008BD00000000000000004C
:10539C0008B5FFF7E1FFFFF7CDFC014B186008BD26
:1053AC00D4E703200248034A0349121A01F04AB811
:1053BC0000F4032004F4032070670D0007B50023EC
:1053CC0000931A466FF07701FFF716FE03B05DF8F5
:1053DC0004FB000007B543880A2B08D0502B0BD1D7
:1053EC00094B1B684BB103B05DF804EB1847FFF792
:1053FC00E5FF03B05DF804FB002300931A466FF041
:10540C007701FFF7F9FDF4E77CE6032038B5124C81
:10541C001248134D0021FFF779FE2368AB42114B64
:10542C000CBF012200221A7002D0FFF7BBFF2560CF
:10543C00FFF768FC044601F01BF80B4B13B1204638
:10544C00AFF3008000210848FFF740FEBDE838406C
:10545C0006480021FFF7C6BD00F4032059530D0088
:10546C001E1C279A78E6032000000000E1530D0073
:10547C00704710B51821044600F077FB204610BD8C
:10548C00F0B5037D062B8DB00E4600F104074FF0EE
:10549C00000412D000F1080515F8011D0A2230464F
:1054AC00FFF703FFAF42044419D0002CF4D02E2197
:1054BC003046FFF7E1FE0444EEE72F236A463946F7
:1054CC000A208DF80040FFF79DFC684601F028F893
:1054DC0033680246DB6869463046984704462046E6
:1054EC000DB0F0BD10B5054B0446112240F8043B3D
:1054FC00002100F0B5FF204610BD00BF34660D0042
:10550C000346074A10B543F8042B01F1100251F879
:10551C00044B43F8044B9142F9D10A781A7010BD30
:10552C0034660D0010B59DF8084044EA032343EAA5
:10553C00024242EA016104234160037510BD13B5B8
:10554C00CB7800938B784A780978FFF7EBFF02B0A1
:10555C0010BD41747047704708B50021007CFFF7FF
:10556C0001FD40EAE07008BD08B50121007CFFF7A1
:10557C00F9FC40EAE07008BD08B5007CFFF7EAFCD6
:10558C0020EAE07008BD08B5007CFFF7DBFC20EAE0
:10559C00E07008BD13B50446007C0191FFF7DAFCFE
:1055AC000028019901DC607C20B1207CFFF7E2FC33
:1055BC0020EAE07002B010BD007CFFF7E3BC10B530
:1055CC001421044600F0D1FA204610BD10B54FF45A
:1055DC007A73044608460021C4E90113044B236086
:1055EC000123207463741146FFF79CFC204610BD08
:1055FC0048660D00007C0022FFF79CBC10B51422FD
:10560C000446002100F02CFF204610BD10B5104CB4
:10561C0088B003A8FFF7F2FF2178BFF35B8F11F07E
:10562C00010111D120460191FEF733FD019958B1CA
:10563C0003AA0848FFF7CAFF2046FEF72FFD064ACB
:10564C000649044800F08CFA024808B010BD00BFAF
:10565C0080E6032084E60320E4E4032063550D0078
:10566C00004700002DE9FF4100241D460F469046DF
:10567C000646FFF72FFBA5424FF00403ADF80D4093
:10568C008DF80C308DF80F40A2BF9DF828308DF8A6
:10569C000E3003AC0749009443463A463046A8BF47
:1056AC008DF80D50FFF70EFBB0FA80F0400904B0F6
:1056BC00BDE8F0816D560D00FFF71CBBFFF712BB68
:1056CC0070474174704708B5007CFFF7DBFB20EA9C
:1056DC00E07008BD08B5007CFFF7ACFB20EAE07079
:1056EC0008BD08B5007CFFF7B5FB40EAE07008BDCB
:1056FC0008B5007CFFF7A6FB40EAE07008BD007C13
:10570C00FFF7B0BB37B5457C04462DB1207C03B008
:10571C00BDE83040FFF786BB007C0191FFF7B2FB80
:10572C0000280199F2DC284603B030BD10B51421D5
:10573C00044600F01AFA204610BD000010B54FF0D8
:10574C00000C0446084611464FF47A72C4E901C2B3
:10575C00044A22600122207462741A46FFF75AFB35
:10576C00204610BD78660D0013B50E4C2178BFF3A2
:10577C005B8F11F0010112D120460191FEF789FCDB
:10578C00019960B1084A094B0948FFF7D7FF204639
:10579C00FEF784FC074A0849054800F0E1F9044883
:1057AC0002B010BD98E603209CE6032020E70320FE
:1057BC00A4E70320E4E40320CD560D007047F8B5B0
:1057CC00064615460C468F18BC4206D0336814F8B2
:1057DC00011B9B6830469847F6E72846F8BD007CCD
:1057EC000022FFF757BB007C0021FFF75BBB007C5E
:1057FC000021FFF75FBB007C0021FFF763BB007C3F
:10580C000021FFF767BB10B51421044600F0ADF979
:10581C00204610BD10B54FF47A730446084600219B
:10582C00C4E90113034B236020741146FFF762FB9C
:10583C00204610BDA8660D0010B5044628B100F036
:10584C003BFE90FBF4F303FB1404204610BD88428E
:10585C0010B5044603DA081AFFF7EEFF044420469D
:10586C0010BD002240681146FFF7E8BB00224068DB
:10587C001146FFF703BC002240681146FFF70EBC2F
:10588C0040680022FFF702BC4068002281F0010151
:10589C00FFF7ECBB002340681A461946FFF7DEBB46
:1058AC00002340681A461946FFF7D0BB0022406817
:1058BC001146FFF7B3BB406800220221FFF7B6BBCD
:1058CC00002340681A46FFF7A1BB0000024B0422DC
:1058DC005A60024A1A607047B8E70320D0660D0080
:1058EC00002340681A46FFF791BB40680022022152
:1058FC00FFF79CBB002240681146FFF78FBB0022CC
:10590C0040681146FFF79ABB002340681A461946B7
:10591C00FFF79CBB002340681A461946FFF79EBB55
:10592C0040680021FFF7C2BB40680021FFF7C6BBEF
:10593C004068002281F00101FFF798BB406800220B
:10594C00FFF7A4BB002240681146FFF7A7BB00225B
:10595C0040681146FFF792BB2DE9F043002495B047
:10596C0016460D460746FFF7BDFD214618220EA828
:10597C00009400F075FD4023CDE90C3421466B46B4
:10598C000CAA3046FFF786F90446002846D1024699
:10599C0001216868FFF752FB0221804622466868A5
:1059AC00FFF74CFB009E81462146002E36D0002985
:1059BC0034D17368022B03D00A2B0BD0F669F4E7B1
:1059CC00B8F1000F04D0716938460431FFF7B7FD08
:1059DC004146F3E7B9F1000F01D14946EEE774698E
:1059EC00102201A800F03CFD06238DF8143001AD07
:1059FC0004F108031834186859682A4603C208339E
:105A0C00A3421546F7D101A906A807ADFFF778FD0B
:105A1C000FCD3C1D0FC42B682370DEE70098FFF7F9
:105A2C0031F9384615B0BDE8F0830000024B034A4B
:105A3C001A6000225A607047C0E703200C670D0003
:105A4C00232813B502D9002002B010BDA0F10B031E
:105A5C00022B1AD8174C2178BFF35B8F11F0010180
:105A6C000BD120460191FEF714FB019928B1124885
:105A7C00FFF792FB2046FEF711FB0F4B1878FFF750
:105A8C0049FA0028DFD10120DEE7012809D800F00F
:105A9C003FF80021007CFFF725FA80F00100C0B22E
:105AAC00D2E709380128EED8FFF75EFE007CFFF73D
:105ABC00E1F9F2E7C8E70320CCE70320232838B547
:105ACC0004460D460AD8FF2908D0FFF7B9FF28B1C4
:105ADC0029462046BDE83840FFF7ECB838BD000039
:105AEC0038B50023202543801423044603808560A9
:105AFC0005610649284600F03CF8044960602846D8
:105B0C0000F037F8E060204638BD00BF40670D005C
:105B1C0030B50F4D2978BFF35B8F11F0010487B0BE
:105B2C0013D12846FEF7B5FA78B101A8FFF7D8FFD4
:105B3C0001AA21460748FFF76DFE2846FEF7AEFA8C
:105B4C00054A0649034800F00BF8024807B030BD7F
:105B5C00D8E70320DCE70320E4E40320C9570D0059
:105B6C000B460146184600F05FBCFEF790BAFEF7F4
:105B7C008ABAFEF78ABA08B5FFF7C0FA81F000417D
:105B8C0002E000BF83F0004330B54FEA41044FEA16
:105B9C00430594EA050F08BF90EA020F1FBF54EAB1
:105BAC00000C55EA020C7FEA645C7FEA655C00F04D
:105BBC00E2804FEA5454D4EB5555B8BF6D420CDD1E
:105BCC002C4480EA020281EA030382EA000083EAA1
:105BDC00010180EA020281EA0303362D88BF30BD41
:105BEC0011F0004F4FEA01314FF4801C4CEA113197
:105BFC0002D0404261EB410113F0004F4FEA0333F6
:105C0C004CEA133302D0524263EB430394EA050F80
:105C1C0000F0A780A4F10104D5F1200E0DDB02FAEF
:105C2C000EFC22FA05F2801841F1000103FA0EF283
:105C3C00801843FA05F359410EE0A5F120050EF149
:105C4C00200E012A03FA0EFC28BF4CF0020C43FA7A
:105C5C0005F3C01851EBE37101F0004507D54FF087
:105C6C00000EDCF1000C7EEB00006EEB0101B1F5D7
:105C7C00801F1BD3B1F5001F0CD349085FEA30001D
:105C8C004FEA3C0C04F101044FEA445212F5800F28
:105C9C0080F09A80BCF1004F08BF5FEA500C50F1C5
:105CAC00000041EB045141EA050130BD5FEA4C0CA8
:105CBC00404141EB0101013C28BFB1F5801FE9D205
:105CCC0091F0000F04BF01460020B1FA81F308BF28
:105CDC002033A3F10B03B3F120020CDA0C3208DDF4
:105CEC0002F1140CC2F10C0201FA0CF021FA02F1CF
:105CFC000CE002F11402D8BFC2F1200C01FA02F13F
:105D0C0020FA0CFCDCBF41EA0C019040E41AA2BF63
:105D1C0001EB0451294330BD6FEA04041F3C1CDA2B
:105D2C000C340EDC04F11404C4F1200220FA04F04B
:105D3C0001FA02F340EA030021FA04F345EA0301F5
:105D4C0030BDC4F10C04C4F1200220FA02F001FAB7
:105D5C0004F340EA0300294630BD21FA04F0294639
:105D6C0030BD94F0000F83F4801306BF81F48011D2
:105D7C000134013D4EE77FEA645C18BF7FEA655C45
:105D8C0029D094EA050F08BF90EA020F05D054EA17
:105D9C00000C04BF1946104630BD91EA030F1EBF1C
:105DAC000021002030BD5FEA545C05D14000494120
:105DBC0028BF41F0004130BD14F580043CBF01F513
:105DCC00801130BD01F0004545F0FE4141F47001F9
:105DDC004FF0000030BD7FEA645C1ABF19461046D4
:105DEC007FEA655C1CBF0B46024650EA013406BFD5
:105DFC0052EA033591EA030F41F4002130BD00BF94
:105E0C0090F0000F04BF0021704730B54FF4806450
:105E1C0004F132044FF000054FF0000150E700BFD1
:105E2C0090F0000F04BF0021704730B54FF4806430
:105E3C0004F1320410F0004548BF40424FF000011D
:105E4C003EE700BF42004FEAE2014FEA31014FEA60
:105E5C0002701FBF12F07F4393F07F4F81F06051AF
:105E6C00704732F07F4208BF704793F07F4F04BFFA
:105E7C0041F40021704730B54FF4607401F00045D7
:105E8C0021F000411CE700BF50EA010208BF704737
:105E9C0030B54FF000050AE050EA010208BF704728
:105EAC0030B511F0004502D5404261EB41014FF491
:105EBC00806404F132045FEA915C3FF4D8AE4FF099
:105ECC0003025FEADC0C18BF03325FEADC0C18BF7C
:105EDC00033202EBDC02C2F1200300FA03FC20FACD
:105EEC0002F001FA03FE40EA0E0021FA02F114441A
:105EFC00BDE600BF70B54FF0FF0C4CF4E06C1CEA33
:105F0C0011541DBF1CEA135594EA0C0F95EA0C0FA3
:105F1C0000F0DEF82C4481EA030621EA4C5123EA16
:105F2C004C5350EA013518BF52EA033541F4801145
:105F3C0043F4801338D0A0FB02CE4FF00005E1FBF8
:105F4C0002E506F00042E0FB03E54FF00006E1FB42
:105F5C0003569CF0000F18BF4EF0010EA4F1FF0485
:105F6C00B6F5007F64F5407404D25FEA4E0E6D41C5
:105F7C0046EB060642EAC62141EA55514FEAC520D6
:105F8C0040EA5E504FEACE2EB4F1FD0C88BFBCF552
:105F9C00E06F1ED8BEF1004F08BF5FEA500E50F103
:105FAC00000041EB045170BD06F0004646EA0101C9
:105FBC0040EA020081EA0301B4EB5C04C2BFD4EBFB
:105FCC000C0541EA045170BD41F480114FF0000EF4
:105FDC00013C00F3AB8014F1360FDEBF002001F062
:105FEC00004170BDC4F10004203C35DA0C341BDCDC
:105FFC0004F11404C4F1200500FA05F320FA04F0AE
:10600C0001FA05F240EA020001F0004221F00041E1
:10601C0010EBD37021FA04F642EB06015EEA430E54
:10602C0008BF20EAD37070BDC4F10C04C4F1200584
:10603C0000FA04F320FA05F001FA04F240EA020037
:10604C0001F0004110EBD37041F100015EEA430E08
:10605C0008BF20EAD37070BDC4F1200500FA05F228
:10606C004EEA020E20FA04F301FA05F243EA0203A7
:10607C0021FA04F001F0004121FA04F220EA0200B6
:10608C0000EBD3705EEA430E08BF20EAD37070BDFC
:10609C0094F0000F0FD101F00046400041EB0101DC
:1060AC0011F4801F08BF013CF7D041EA060195F0BE
:1060BC00000F18BF704703F00046520043EB030378
:1060CC0013F4801F08BF013DF7D043EA0603704765
:1060DC0094EA0C0F0CEA135518BF95EA0C0F0CD070
:1060EC0050EA410618BF52EA4306D1D181EA0301B6
:1060FC0001F000414FF0000070BD50EA410606BFB0
:10610C001046194652EA430619D094EA0C0F02D1F4
:10611C0050EA013613D195EA0C0F05D152EA033639
:10612C001CBF104619460AD181EA030101F0004157
:10613C0041F0FE4141F470014FF0000070BD41F0A0
:10614C00FE4141F4780170BD70B54FF0FF0C4CF47A
:10615C00E06C1CEA11541DBF1CEA135594EA0C0F99
:10616C0095EA0C0F00F0A7F8A4EB050481EA030EE6
:10617C0052EA03354FEA013100F088804FEA0333CD
:10618C004FF0805545EA131343EA12634FEA02229B
:10619C0045EA111545EA10654FEA00260EF000415C
:1061AC009D4208BF964244F1FD0404F5407402D2AE
:1061BC005B084FEA3202B61A65EB03055B084FEA3F
:1061CC0032024FF480104FF4002CB6EB020E75EB3C
:1061DC00030E22BFB61A754640EA0C005B084FEA64
:1061EC003202B6EB020E75EB030E22BFB61A7546E1
:1061FC0040EA5C005B084FEA3202B6EB020E75EB2C
:10620C00030E22BFB61A754640EA9C005B084FEAA3
:10621C003202B6EB020E75EB030E22BFB61A7546B0
:10622C0040EADC0055EA060E18D04FEA051545EA9F
:10623C0016754FEA06164FEAC30343EA52734FEA48
:10624C00C2025FEA1C1CC0D111F4801F0BD141EAC1
:10625C0000014FF000004FF0004CB6E711F4801F26
:10626C0004BF01430020B4F1FD0C88BFBCF5E06F06
:10627C003FF6AFAEB5EB030C04BFB6EB020C5FEA16
:10628C00500C50F1000041EB045170BD0EF0004E6B
:10629C004EEA113114EB5C04C2BFD4EB0C0541EA9D
:1062AC00045170BD41F480114FF0000E013C90E69A
:1062BC0045EA060E8DE60CEA135594EA0C0F08BF5E
:1062CC0095EA0C0F3FF43BAF94EA0C0F0AD150EA5D
:1062DC0001347FF434AF95EA0C0F7FF425AF1046F0
:1062EC0019462CE795EA0C0F06D152EA03353FF418
:1062FC00FDAE1046194622E750EA410618BF52EA95
:10630C0043067FF4C5AE50EA41047FF40DAF52EA68
:10631C0043057FF4EBAE12E74FF0FF3C06E000BF05
:10632C004FF0010C02E000BF4FF0010C4DF804CD12
:10633C004FEA410C7FEA6C5C4FEA430C18BF7FEAD2
:10634C006C5C1BD001B050EA410C0CBF52EA430C00
:10635C0091EA030F02BF90EA020F0020704710F180
:10636C00000F91EA030F58BF994208BF90422CBF0F
:10637C00D8176FEAE37040F0010070474FEA410C08
:10638C007FEA6C5C02D150EA013C07D14FEA430C26
:10639C007FEA6C5CD6D152EA033CD3D05DF8040B97
:1063AC00704700BF8446104662468C4619466346C9
:1063BC0000E000BF01B5FFF7B7FF002848BF10F1A0
:1063CC00000F01BD4DF808EDFFF7F4FF0CBF0120E5
:1063DC0000205DF808FB00BF4DF808EDFFF7EAFF61
:1063EC0034BF012000205DF808FB00BF4DF808ED1C
:1063FC00FFF7E0FF94BF012000205DF808FB00BF11
:10640C004DF808EDFFF7CEFF94BF012000205DF89A
:10641C0008FB00BF4DF808EDFFF7C4FF34BF0120A7
:10642C0000205DF808FB00BF10B5054C13462CB1DD
:10643C000A4601460220AFF3008010BD2046FCE75F
:10644C00000000000A44914200F1FF3300D1704774
:10645C0010B511F8014B03F8014F9142F9D110BD61
:10646C0002440346934200D1704703F8011BF9E73D
:10647C0038B50D4B1D68AB6B04467BB91820FEF785
:10648C002DFE0A4A0A4BA863C0E90023094B83601E
:10649C000B23838101220023C0E90423AB6B002270
:1064AC001C615A6138BD00BF80E403200E33CDABB4
:1064BC0034126DE6ECDE0500134B10B51C68A36BB3
:1064CC007BB91820FEF70AFE104A114BA063C0E9F5
:1064DC000023104B83600B23838101220023C0E92E
:1064EC000423A16B0C480A694B690C4C504304FB08
:1064FC000300A2FB04345A1C044444F10000C1E91B
:10650C00042020F0004010BD80E403200E33CDABFE
:10651C0034126DE6ECDE05002DF451582D7F954CB0
:10652C00034613F8012B002AFBD1181A01387047C7
:10653C001D400D0059400D0081400D0085400D009F
:10654C000000000073656E64696E67546872656163
:10655C0064004552524F522054524947474544001B
:10656C004D657373616765204761622031004D652D
:10657C007373616765204761622032004D657373E8
:10658C00616765204761622033004D6573736167F5
:10659C0065203A2000437263203A20004241442097
:1065AC004D45535341474520524543454956454473
:1065BC000057414954494E472054494D454F555475
:1065CC0000000000000000000000000087510D00DA
:1065DC007D510D0073510D0069510D005D510D0081
:1065EC0051510D002D590D0035590D0045510D001F
:1065FC003D510D0033510D0029510D0065590D0011
:10660C006170700025592D256D2D25645425483A4F
:10661C00254D3A2553257A0061736374696D6500C5
:10662C0000000000000000008D540D007D540D0092
:10663C007F540D00000000000000000063550D00A9
:10664C00CB550D00A1550D002D520D0093550D008D
:10665C0065550D0075550D00C5550D0085550D0082
:10666C005F550D000000000000000000CD560D002D
:10667C0039570D0011570D002D520D00E1560D002C
:10668C00FD560D00EF560D000B570D00CF560D00AB
:10669C00D3560D000000000000000000C9570D008B
:1066AC0013580D00EB570D00CB570D00F3570D0091
:1066BC00FB570D0003580D000B580D000000000097
:1066CC0000000000CD580D00C3580D00B9580D0046
:1066DC006F580D00AD580D00A1580D002D590D002F
:1066EC0035590D0095580D008D580D0083580D002F
:1066FC0079580D0065590D000000000000000000E5
:10670C00ED580D00F7580D0001590D000B590D00F7
:10671C0015590D0021590D002D590D0035590D003D
:10672C003D590D0049590D0051590D005B590D0093
:10673C0065590D0000000000214C0D0091510D0019
:10674C00B9510D0005520D00F5520D0005530D0009
:10675C003D530D00D9580D00395A0D0000000000B2
:04676C000000000029
:046770000000000025
:10677400010001000100010124660D000090D00316
:1067840084E403200000000000000000000000007A
:1067940000000000000000000000000000000000F5
:1067A40000000000000000000000000000000000E5
:1067B40000000000000000000000000000000000D5
:1067C40000000000000000000000000000000000C5
:1067D40000000000000000000000000000000000B5
:0467E40000000000B1
:1067E800FFFFFFFF00000102030405060708090A6E
:1067F8000B0C0D0E0F101112131415161718191A69
:086808001B1C1D1E1F202800AF
:046810007856341270
:04000003D000401CCD
:00000001FF
