:02000002D0002C
:1040000000400D00D4670D00000006000C00050103
:08401000040135080000000066
:044018000C650D0026
:10401C0009480A49884208B505D0094A824202D0AB
:10402C00121A02F0F7F90748074A0021121A02F097
:10403C00FFF9014808BD00BF70E4032034670D0090
:10404C00E8E40320E8E40320F0E7032070B5074E12
:10405C00074C01F0C3F9A41BA4080025A54200D10C
:10406C0070BD56F8043B98470135F7E704670D001F
:10407C0028670D0000F0BCB908B500F04FFDBDE895
:10408C00084001F06DB901F011B801F00FB801F062
:10409C0015B80078B0FA80F040097047012303701E
:1040AC007047000010B503682F2B044604D9074A4B
:1040BC0000210A2000F05EFF23681F2B83BF03F052
:1040CC001F03034823604FF0A04010BD314D0D007D
:1040DC000003005010B5012303748368044643B1F8
:1040EC00C0689847012363740020BDE8104000F0BD
:1040FC0071BE00680028F5D083680BB901F023FD70
:10410C00C368EEE710B50446006808B100F0D6FFAE
:10411C00204610BD38B5044688B105684DB1AB6872
:10412C001BB103222946284698471021284601F046
:10413C0004FD20461421BDE8384001F0FEBC38BD1A
:10414C0010B5036804469BB1586800F003FE78B9BB
:10415C0023685A7C12B9586800F004FE236858682A
:10416C0000F008FE20680023236008B1FFF7D2FF9F
:10417C00206808B1FFF7CEFF204610BD034B5968ED
:10418C005A68521A8242FBD3704700BF001000E0FD
:10419C00F7B5374D374C2B78BFF35B8F13F0010F0E
:1041AC0009D12846FFF775FF28B100F07BFD206090
:1041BC002846FFF773FF236893F820305E012B78B5
:1041CC00BFF35B8FD90709D42948FFF762FF28B1E9
:1041DC0000F068FD20602648FFF760FF236893F825
:1041EC00213003F01F03334301A80193FFF75AFF5B
:1041FC00019A214E01239340C0F80C353068FFF72B
:10420C00BDFF2B78BFF35B8FDA0709D41848FFF793
:10421C0040FF28B100F046FD20601548FFF73EFF37
:10422C00236893F820305F012B78BFF35B8FDB079B
:10423C0009D40F48FFF72DFF28B100F033FD2060A3
:10424C000B48FFF72BFF236893F8213003F01F0373
:10425C003B4301A80193FFF725FF019A01239340EB
:10426C00C0F808353068FFF789FF03B0F0BD00BF18
:10427C00ECE40320F0E4032018E60320F7B5374DF7
:10428C00374C2B78BFF35B8F13F0010F09D1284605
:10429C00FFF7FFFE28B100F005FD20602846FFF770
:1042AC00FDFE236893F820305E012B78BFF35B8F03
:1042BC00D90709D42948FFF7ECFE28B100F0F2FC2D
:1042CC0020602648FFF7EAFE236893F8213003F0BC
:1042DC001F03334301A80193FFF7E4FE019A214E1B
:1042EC0001239340C0F808353068FFF747FF2B785F
:1042FC00BFF35B8FDA0709D41848FFF7CAFE28B161
:10430C0000F0D0FC20601548FFF7C8FE236893F836
:10431C0020305F012B78BFF35B8FDB0709D40F488C
:10432C00FFF7B7FE28B100F0BDFC20600B48FFF78B
:10433C00B5FE236893F8213003F01F033B4301A81B
:10434C000193FFF7AFFE019A01239340C0F80C359F
:10435C003068FFF713FF03B0F0BD00BFECE403209F
:10436C00F0E4032018E6032008B5FFF711FFFFF770
:10437C0085FFFFF70DFFFFF781FFFFF709FFFFF741
:10438C007DFFFFF705FFBDE80840FFF777BF08B1D9
:10439C00FFF774BFFFF7FCBE70B504464618B44275
:1043AC000BD000252078284100F001000135FFF7E3
:1043BC00EEFF082DF6D10134F1E770BD38B5054696
:1043CC00002445FA04F000F001000134FFF7DFFF90
:1043DC00082CF6D138BD38B50546002445FA04F052
:1043EC0000F001000134FFF7D2FF102CF6D138BDDC
:1043FC001FB501F0F3F84FF4165101F0E3F8052165
:10440C00022001F043FB00240221042001F03EFBBA
:10441C00204900944FF0FF332246042001F00AF9A2
:10442C001D4800F0AFFC1D49142001F088FB28B199
:10443C00C0E90044C0E90244047444740390A8B178
:10444C00174B83600023C3604FF44063CDE9000336
:10445C001449154B0222043000F074FC30B9039B54
:10446C001B7C4BB9012000F055FCF8E703980023A6
:10447C00039308B1FFF74EFE0023039A03930B4BF3
:10448C0018681A6008B1FFF745FE03A8FFF758FE3D
:10449C0004B010BD1D460D0040E6032000670D0062
:1044AC009D4A0D0020650D00E1400D0034E603200F
:1044BC00064A28B1064910880B8803439BB20B802F
:1044CC0013889BB25B009BB21380704776E4032089
:1044DC0008E60320054A20B1054910780B78034300
:1044EC000B7013785B00DBB21370704778E4032019
:1044FC0020E60320064A28B1064910880B8803439E
:10450C009BB20B8013889BB25B009BB213807047ED
:10451C0072E4032004E60320054A20B10549107813
:10452C000B7803430B7013785B00DBB2137070478E
:10453C0074E4032006E60320054A20B105491078EF
:10454C000B7803430B7013785B00DBB2137070476E
:10455C0079E4032038E60320064A28B1064910887E
:10456C000B8803439BB20B8013889BB25B009BB2FE
:10457C001380704770E4032000E5032008B501F0B8
:10458C0083F8054B01221A7001F028F8BDE80840A9
:10459C00024900F068BE00BF07E603202E650D003F
:1045AC000E4A0F49002313600E4A13700E4A136013
:1045BC0001220A800D490B800D490A700D490B70C0
:1045CC000D490A800D490B800D490A700D490B707D
:1045DC000D490A700D4A1370704700BF3CE603206A
:1045EC0076E4032001E603202CE6032008E60320F2
:1045FC0078E4032020E6032072E4032004E6032081
:10460C0074E4032006E6032079E4032038E6032053
:10461C002DE9F347A24BA34C5B68A34E2360337880
:10462C00A24FBFF35B8F13F0010F09D13046FFF798
:10463C0030FD28B100F036FB38603046FFF72EFD18
:10464C003B6893F840503378BFF35B8FD9074FEA40
:10465C00451809D49448FFF71CFD28B100F022FB43
:10466C0038609148FFF71AFD3B68914E93F8415022
:10467C0005F01F0545EA080501A80195FFF712FD95
:10468C00D0F81035019501A8FFF70CFD019AD0F870
:10469C001035884DD34003F0010333702B68072B82
:1046AC002BD8DFE813F0080010002D005B008E0003
:1046BC002F015E01CC00804B22681A603378E3B97D
:1046CC0001232B6019E033783BB97C4A23681168CD
:1046DC005B1A7B490B60236813607A4A13680133B9
:1046EC00072B136009D902232B60754B764A1B6884
:1046FC009B081360754B22681A6002B0BDE8F08706
:10470C00724F20683B68704AC01AD2F800A001F0C2
:10471C005FFB80465046894601F05AFB6C4B0022E9
:10472C0001F0D0FB02460B464046494601F03CFEE8
:10473C000028E2D123683B60307880F00100FFF75D
:10474C00FBFE644B1B78002BD7D1634B1B787E2B65
:10475C0002D0FFF713FFD0E70323B2E75B4F2068CB
:10476C003B68594AC01AD2F800A001F031FB8046D0
:10477C005046894601F02CFB554B002201F0A2FB60
:10478C0002460B464046494601F00EFE0028B4D1C5
:10479C0023683B60307880F00100FFF789FE4F4BB7
:1047AC001B889BB2002BA8D14D4B1A88D2074CBF4B
:1047BC00072204222A601B884A4AC3F3072313707A
:1047CC009BE7424F20683B683F4AC01AD2F800A0D2
:1047DC0001F0FEFA80465046894601F0F9FA3C4B4E
:1047EC00002201F06FFB02460B464046494601F0A1
:1047FC00DBFD002881D123683B60307880F001001C
:10480C00FFF768FE38490B7803F0FF04002B7FF4A8
:10481C0074AF364A36481378364FDEB20133DBB20A
:10482C0013700378DBB2BB55012304700B702D4B56
:10483C0012781B789A427FF460AF052341E7234F2F
:10484C0020683B68204AC01AD2F800A001F0C0FAD8
:10485C0080465046894601F0BBFA1D4B002201F000
:10486C0031FB02460B464046494601F09DFD0028AF
:10487C007FF443AF23683B60307880F00100FFF792
:10488C006BFE1D4B1B889BB2002B7FF436AF0523B0
:10489C002B601A4B1A4A1B889BB213802DE700BF62
:1048AC00001000E00CE60320ECE40320F0E403200D
:1048BC000AE603203CE6032014E6032028E6032046
:1048CC0024E603202CE603201CE6032010E603203C
:1048DC000000F83F79E4032038E6032076E4032057
:1048EC0008E6032021E6032078E4032001E60320F8
:1048FC0020E6032002E5032070E4032000E50320FA
:10490C0002E60320314F20683B68314AC01AD2F8C6
:10491C0000A001F05DFA80465046894601F058FA35
:10492C002C4B002201F0CEFA02460B46404649467B
:10493C0001F03AFD00287FF4E0AE23683B6030784C
:10494C0080F00100FFF7D6FD234B1B889BB2002B98
:10495C007FF4D3AE214B224A1B889BB213800623D3
:10496C00AFE61A4F20683B68194AC01AD2F800A06B
:10497C0001F02EFA80465046894601F029FA154B73
:10498C00002201F09FFA02460B464046494601F0D0
:10499C000BFD00287FF4B1AE23683B60307880F0CB
:1049AC000100FFF7B9FD0F4B1B7803F0FF02002B42
:1049BC007FF4A3AE0C4B1B787E2B7FF4CAAE0B4B53
:1049CC00012119702A60FFF7EBFD96E610E6032033
:1049DC001CE603200000F83F72E4032004E60320E9
:1049EC0030E6032074E4032006E6032022E60320CD
:1049FC0010B5014404464FF6FF708C420CD014F8ED
:104A0C00013B83EA102383EA131343EA00225B0180
:104A1C00DBB2534098B2F0E710BD00002DE9F0472F
:104A2C0007460D4690461E46FFF7E2FFDFF858A0FA
:104A3C00DFF858900446BAF800309BB2A34220D05D
:104A4C00D9F8000000F0A6F9FFF78EFC7E20FFF7E6
:104A5C00B5FC4046FFF7B2FC2846FFF7AFFC2946F1
:104A6C003846FFF799FC2046FFF7B5FC7E20FFF790
:104A7C00A5FCD9F8000000F095F9304600F02EFCAA
:104A8C00D9E7BDE8F08700BF02E6032040E603202B
:104A9C0008B54FF4FA7300220E210848FFF7BEFF49
:104AAC00FA2000F01BFC06484FF4FA7300220E218A
:104ABC00FFF7B4FFFA2000F011FCEAE73C650D00AB
:104ACC004A650D0073B5C3B20221044601A88DF8E6
:104ADC0004308DF80530FFF78BFF0F4E054630681C
:104AEC0000F058F9FFF740FC7E20FFF767FC01202F
:104AFC00FFF764FC0220FFF761FC2046FFF76BFC1C
:104B0C002846FFF768FC7E20FFF758FC306800F061
:104B1C0049F902B070BD00BF40E6032038B52F4BF9
:104B2C001A784AB300221A702D4B2E4D19782E4844
:104B3C00FFF75EFF2B889BB2984247D1288880B242
:104B4C00FFF7C0FF00F04AFD284900F079FB00F0A8
:104B5C0045FD254900F087FB00F040FD244900F09D
:104B6C006FFB00F03BFD298804460A2289B200F055
:104B7C0084FB204600F06BFB1E4B1B68A3B11E4B45
:104B8C001E4A5B6812681E499B1A1E4A1268B2FBC9
:104B9C00F1F2B3FBF2F38B4206D9FFF701FD00F003
:104BAC001DFD194900F05FFB184B1A78A2B10022C9
:104BBC0040F2EE21FA201A7000F031FE00F08EFB6C
:104BCC00FFF7EEFCBDE8384000F060BD00F006FDDC
:104BDC000F4900F048FBCFE738BD00BF22E60320A9
:104BEC0021E6032030E6032002E5032058650D0082
:104BFC0063650D003CE60320001000E014E6032082
:104C0C0040420F0080E403207F650D0007E603207F
:104C1C006A650D0038B5124D124BAB6000240220B2
:104C2C002C60AC80AC7100F0ADF90F4A0F492846EE
:104C3C0000F07EFF2146012000F0B4F90C4B0D4929
:104C4C001B68B3FBF1F140F2EE234B430A480B49CE
:104C5C0004600B60BDE83840034A094900F068BFA6
:104C6C00F4E403200000FFFFE8E4032011410D00F1
:104C7C0080E4032040420F0034E6032018E60320B2
:104C8C004D410D0008B5024B1B689B68019308BD94
:104C9C006802030008B5024B1B68DB68019308BD72
:104CAC006802030008B5024B1B681B68019308BD22
:104CBC002C02030008B5024B1B689B68019308BDCE
:104CCC002C02030008B5024B1B689B69019308BDBD
:104CDC002C02030008B5024B1B68DB69019308BD6D
:104CEC002C02030008B5024B1B681B6A019308BD1C
:104CFC002C02030008B5024B1B685B6A019308BDCC
:104D0C002C02030008B5024B1B685B68019308BDBD
:104D1C001802030008B5024B1B689B68019308BD81
:104D2C001802030008B5024B1B68DB68019308BD31
:104D3C001802030008B5024B1B685B69019308BDA0
:104D4C001802030008B5024B1B685B68019308BD91
:104D5C004802030008B5024B1B689B68019308BD11
:104D6C004802030008B5024B1B681B69019308BD80
:104D7C004802030008B5024B1B685B69019308BD30
:104D8C004802030008B5024B1B681B6B019308BD5E
:104D9C004802030008B5024B1B689B6B019308BDCE
:104DAC004802030008B5024B1B681B6C019308BD3D
:104DBC004802030008B5024B1B685B6C019308BDED
:104DCC004802030008B5024B1B689B6C019308BD9D
:104DDC004802030008B5024B1B68DB6E019308BD4B
:104DEC004802030008B5024B1B685B69019308BDC0
:104DFC006402030008B5024B1B681B68019308BDD5
:104E0C003C02030008B5024B1B68DB68019308BD2C
:104E1C003C02030008B5024B1B681B69019308BDDB
:104E2C003C02030008B5024B1B685B69019308BD8B
:104E3C003C02030008B5024B1B689B69019308BD3B
:104E4C003C02030008B5024B1B68DB69019308BDEB
:104E5C003C02030008B5024B1B681B6A019308BD9A
:104E6C003C02030008B5024B1B689B6A019308BD0A
:104E7C003C02030008B5024B1B681B6A019308BD7A
:104E8C002802030008B5024B1B685B6A019308BD3E
:104E9C002802030008B5024B1B689B6A019308BDEE
:104EAC002802030008B5024B1B68DB6A019308BD9E
:104EBC002802030008B5024B1B681B6B019308BD4D
:104ECC002802030008B5024B1B685B6B019308BDFD
:104EDC002802030008B5024B1B681B6C019308BD2C
:104EEC002802030008B5024B1B68DB69019308BD5F
:104EFC003002030008B5024B1B681B6A019308BD06
:104F0C003002030008B5024B1B681B68019308BDF7
:104F1C004C02030008B5024B1B685B68019308BD8B
:104F2C004C02030008B5024B1B681B69019308BDBA
:104F3C004C02030008B5024B1B685B69019308BD6A
:104F4C004C02030008B5024B1B689B69019308BD1A
:104F5C004C02030008B5024B1B68DB69019308BDCA
:104F6C004C02030008B5024B1B681B6A019308BD79
:104F7C004C02030008B5024B1B685B6B019308BD28
:104F8C006002030008B5024B1B685B68019308BD07
:104F9C002002030008B5024B1B685B69019308BD36
:104FAC002002030008B5024B1B68DB6A019308BDA5
:104FBC002002030008B5034B1B68D3F8883001931B
:104FCC0008BD00002002030008B5034B1B68D3F892
:104FDC009430019308BD00002002030008B5024B79
:104FEC001B685B68019308BD4002030008B5024BC7
:104FFC001B689B68019308BD4002030008B5024B77
:10500C001B68DB68019308BD4002030008B5024B26
:10501C001B681B69019308BD4002030008B5024BD5
:10502C001B685B69019308BD4002030008B5024B85
:10503C001B689B69019308BD4002030008B5024B35
:10504C001B68DB69019308BD4002030008B5024BE5
:10505C001B681B6A019308BD4002030008B5024B94
:10506C001B681B6B019308BD4002030008B5024B83
:10507C001B685B6B019308BD4002030008B5024B33
:10508C001B681B6C019308BD4002030008B5024B62
:10509C001B685B6C019308BD4002030008B5024B12
:1050AC001B68DB6B019308BD4402030008B5024B7F
:1050BC001B681B68019308BD1C02030008B5024B5A
:1050CC001B685B68019308BD1C02030008B5024B0A
:1050DC001B68DB6A019308BD1C02030008B5024B78
:1050EC001B685B6C019308BD1C0203000022406826
:1050FC001146FFF7ABBF002240681146FFF7B6BF61
:10510C0040680022FFF7AABF4068002281F001012D
:10511C00FFF794BF002340681A461946FFF786BF75
:10512C00002340681A461946FFF778BF00224068F2
:10513C001146FFF76BBF002240681146FFF756BFC0
:10514C00406800220221FFF759BF002340681A462D
:10515C00FFF744BF024B03225A60024A1A607047A1
:10516C0044E6032098650D0010B5044608462170EE
:10517C00FFF7B8FE00236360204610BD10B5094B45
:10518C00094C022200201A60084B2060A080A071FC
:10519C00A360FFF7F7FE2046054A0649BDE810401C
:1051AC0000F0C6BC58E603204CE603200000FFFFCD
:1051BC00E8E4032011410D0010B50446006808B165
:1051CC00FFF700FE204610BD10B5064C002320460C
:1051DC002360FFF7EFFD2046034A0449BDE8104069
:1051EC0000F0A6BC5CE60320E8E40320C5510D00EA
:1051FC00F8B506460D468F180024BD420CD0336816
:10520C0015F8011B9B6830469847031E01DB1C44B4
:10521C00F3E7002C08BF1C462046F8BD13B5044626
:10522C00084659B1019101F063F923680199DB68D3
:10523C000246204602B0BDE81040184702B010BD2F
:10524C0008B5FFF7EBFF08BD03689B68184738B536
:10525C000D210546FFF7F8FF0A2104462846FFF703
:10526C00F3FF204438BD38B50546FFF7D7FF044699
:10527C002846FFF7ECFF204438BD30B58BB0002337
:10528C008DF82430012A98BF0A2209AC0D46B1FBD7
:10529C00F2F101FB125303F0FF03092B94BF3033DF
:1052AC003733DBB2AA4204F8013DEFD92146FFF7B0
:1052BC00B5FF0BB030BD0000014B024A1A607047BD
:1052CC0060E60320CC650D00024B1A68024B1A6095
:1052DC00704700BF7CE4032064E603200021FFF745
:1052EC0059BE10B58368044613B103220146984792
:1052FC00204610BD10B50446FFF7F3FF204610BD45
:10530C000348044A04490023836000F011BC00BF29
:10531C0068E60320E8E4032001530D00014B1860FC
:10532C00704700BF84E4032008B50B4B43B100F079
:10533C0055F903681B699847002801DDAFF300801D
:10534C00064B43B100F0F8F903681B699847002835
:10535C0001DDAFF3008008BD00000000000000007C
:10536C0008B5FFF7E1FFFFF7E5FC014B186008BD3E
:10537C00D4E703200248034A0349121A01F04AB841
:10538C0000F4032004F4032030670D0007B500235C
:10539C0000931A466FF07701FFF716FE03B05DF825
:1053AC0004FB000007B543880A2B08D0502B0BD107
:1053BC00094B1B684BB103B05DF804EB1847FFF7C2
:1053CC00E5FF03B05DF804FB002300931A466FF071
:1053DC007701FFF7F9FDF4E77CE6032038B5124CB2
:1053EC001248134D0021FFF779FE2368AB42114B95
:1053FC000CBF012200221A7002D0FFF7BBFF256000
:10540C00FFF780FC044601F01BF80B4B13B1204650
:10541C00AFF3008000210848FFF740FEBDE838409C
:10542C0006480021FFF7C6BD00F4032029530D00E8
:10543C001E1C279A78E6032000000000B1530D00D3
:10544C00704710B51821044600F077FB204610BDBC
:10545C00F0B5037D062B8DB00E4600F104074FF01E
:10546C00000412D000F1080515F8011D0A2230467F
:10547C00FFF703FFAF42044419D0002CF4D02E21C7
:10548C003046FFF7E1FE0444EEE72F236A46394627
:10549C000A208DF80040FFF7A5FC684601F028F8BB
:1054AC0033680246DB686946304698470446204616
:1054BC000DB0F0BD10B5054B0446112240F8043B6D
:1054CC00002100F0B5FF204610BD00BFF4650D00B3
:1054DC000346074A10B543F8042B01F1100251F8AA
:1054EC00044B43F8044B9142F9D10A781A7010BD61
:1054FC00F4650D0010B59DF8084044EA032343EA17
:10550C00024242EA016104234160037510BD13B5E8
:10551C00CB7800938B784A780978FFF7EBFF02B0D1
:10552C0010BD41747047704708B50021007CFFF72F
:10553C0009FD40EAE07008BD08B50121007CFFF7C9
:10554C0001FD40EAE07008BD08B5007CFFF7F2FCF5
:10555C0020EAE07008BD08B5007CFFF7E3FC20EA08
:10556C00E07008BD13B50446007C0191FFF7E2FC26
:10557C000028019901DC607C20B1207CFFF7EAFC5B
:10558C0020EAE07002B010BD007CFFF7EBBC10B558
:10559C001421044600F0D1FA204610BD10B54FF48A
:1055AC007A73044608460021C4E90113044B2360B6
:1055BC000123207463741146FFF7A4FC204610BD30
:1055CC0008660D00007C0022FFF7A4BC10B5142265
:1055DC000446002100F02CFF204610BD10B5104CE5
:1055EC0088B003A8FFF7F2FF2178BFF35B8F11F0AF
:1055FC00010111D120460191FEF74BFD019958B1E3
:10560C0003AA0848FFF7CAFF2046FEF747FD064AE3
:10561C000649044800F08CFA024808B010BD00BFDF
:10562C0080E6032084E60320E8E4032033550D00D4
:10563C00004700002DE9FF4100241D460F4690460F
:10564C000646FFF747FBA5424FF00403ADF80D40AB
:10565C008DF80C308DF80F40A2BF9DF828308DF8D6
:10566C000E3003AC0749009443463A463046A8BF77
:10567C008DF80D50FFF726FBB0FA80F0400904B00E
:10568C00BDE8F0813D560D00FFF734BBFFF72ABB98
:10569C0070474174704708B5007CFFF7E3FB20EAC4
:1056AC00E07008BD08B5007CFFF7B4FB20EAE070A1
:1056BC0008BD08B5007CFFF7BDFB40EAE07008BDF3
:1056CC0008B5007CFFF7AEFB40EAE07008BD007C3B
:1056DC00FFF7B8BB37B5457C04462DB1207C03B031
:1056EC00BDE83040FFF78EBB007C0191FFF7BAFBA1
:1056FC0000280199F2DC284603B030BD10B5142106
:10570C00044600F01AFA204610BD000010B54FF008
:10571C00000C0446084611464FF47A72C4E901C2E3
:10572C00044A22600122207462741A46FFF762FB5D
:10573C00204610BD38660D0013B50E4C2178BFF312
:10574C005B8F11F0010112D120460191FEF7A1FCF3
:10575C00019960B1084A094B0948FFF7D7FF204669
:10576C00FEF79CFC074A0849054800F0E1F904489B
:10577C0002B010BD98E603209CE6032020E703202E
:10578C00A4E70320E8E403209D560D007047F8B50C
:10579C00064615460C468F18BC4206D0336814F8E2
:1057AC00011B9B6830469847F6E72846F8BD007CFD
:1057BC000022FFF75FBB007C0021FFF763BB007C7E
:1057CC000021FFF767BB007C0021FFF76BBB007C5F
:1057DC000021FFF76FBB10B51421044600F0ADF9A2
:1057EC00204610BD10B54FF47A73044608460021CC
:1057FC00C4E90113034B236020741146FFF76AFBC5
:10580C00204610BD68660D0010B5044628B100F0A6
:10581C003BFE90FBF4F303FB1404204610BD8842BE
:10582C0010B5044603DA081AFFF7EEFF04442046CD
:10583C0010BD002240681146FFF7E8BB002240680B
:10584C001146FFF703BC002240681146FFF70EBC5F
:10585C0040680022FFF702BC4068002281F0010181
:10586C00FFF7ECBB002340681A461946FFF7DEBB76
:10587C00002340681A461946FFF7D0BB0022406847
:10588C001146FFF7B3BB406800220221FFF7B6BBFD
:10589C00002340681A46FFF7A1BB0000024B04220C
:1058AC005A60024A1A607047B8E7032090660D00F0
:1058BC00002340681A46FFF791BB40680022022182
:1058CC00FFF79CBB002240681146FFF78FBB0022FC
:1058DC0040681146FFF79ABB002340681A461946E8
:1058EC00FFF79CBB002340681A461946FFF79EBB86
:1058FC0040680021FFF7C2BB40680021FFF7C6BB20
:10590C004068002281F00101FFF798BB406800223B
:10591C00FFF7A4BB002240681146FFF7A7BB00228B
:10592C0040681146FFF792BB2DE9F043002495B077
:10593C0016460D460746FFF7BDFD214618220EA858
:10594C00009400F075FD4023CDE90C3421466B46E4
:10595C000CAA3046FFF79EF90446002846D10246B1
:10596C0001216868FFF752FB0221804622466868D5
:10597C00FFF74CFB009E81462146002E36D00029B5
:10598C0034D17368022B03D00A2B0BD0F669F4E7E1
:10599C00B8F1000F04D0716938460431FFF7B7FD38
:1059AC004146F3E7B9F1000F01D14946EEE77469BE
:1059BC00102201A800F03CFD06238DF8143001AD37
:1059CC0004F108031834186859682A4603C20833CE
:1059DC00A3421546F7D101A906A807ADFFF778FD3C
:1059EC000FCD3C1D0FC42B682370DEE70098FFF72A
:1059FC0049F9384615B0BDE8F0830000024B034A64
:105A0C001A6000225A607047C0E70320CC660D0074
:105A1C00232813B502D9002002B010BDA0F10B034E
:105A2C00022B1AD8174C2178BFF35B8F11F00101B0
:105A3C000BD120460191FEF72CFB019928B112489D
:105A4C00FFF792FB2046FEF729FB0F4B1878FFF768
:105A5C0051FA0028DFD10120DEE7012809D800F037
:105A6C003FF80021007CFFF72DFA80F00100C0B256
:105A7C00D2E709380128EED8FFF75EFE007CFFF76D
:105A8C00E9F9F2E7C8E70320CCE70320232838B56F
:105A9C0004460D460AD8FF2908D0FFF7B9FF28B1F4
:105AAC0029462046BDE83840FFF704B938BD000050
:105ABC0038B50023202543801423044603808560D9
:105ACC0005610649284600F03CF804496060284608
:105ADC0000F037F8E060204638BD00BF00670D00CD
:105AEC0030B50F4D2978BFF35B8F11F0010487B0EF
:105AFC0013D12846FEF7CDFA78B101A8FFF7D8FFED
:105B0C0001AA21460748FFF76DFE2846FEF7C6FAA4
:105B1C00054A0649034800F00BF8024807B030BDAF
:105B2C00D8E70320DCE70320E8E4032099570D00B5
:105B3C000B460146184600F05FBCFEF7A8BAFEF70C
:105B4C00A2BAFEF7A2BA08B5FFF7C0FA81F000417D
:105B5C0002E000BF83F0004330B54FEA41044FEA46
:105B6C00430594EA050F08BF90EA020F1FBF54EAE1
:105B7C00000C55EA020C7FEA645C7FEA655C00F07D
:105B8C00E2804FEA5454D4EB5555B8BF6D420CDD4E
:105B9C002C4480EA020281EA030382EA000083EAD1
:105BAC00010180EA020281EA0303362D88BF30BD71
:105BBC0011F0004F4FEA01314FF4801C4CEA1131C7
:105BCC0002D0404261EB410113F0004F4FEA033326
:105BDC004CEA133302D0524263EB430394EA050FB1
:105BEC0000F0A780A4F10104D5F1200E0DDB02FA20
:105BFC000EFC22FA05F2801841F1000103FA0EF2B4
:105C0C00801843FA05F359410EE0A5F120050EF179
:105C1C00200E012A03FA0EFC28BF4CF0020C43FAAA
:105C2C0005F3C01851EBE37101F0004507D54FF0B7
:105C3C00000EDCF1000C7EEB00006EEB0101B1F507
:105C4C00801F1BD3B1F5001F0CD349085FEA30004D
:105C5C004FEA3C0C04F101044FEA445212F5800F58
:105C6C0080F09A80BCF1004F08BF5FEA500C50F1F5
:105C7C00000041EB045141EA050130BD5FEA4C0CD8
:105C8C00404141EB0101013C28BFB1F5801FE9D235
:105C9C0091F0000F04BF01460020B1FA81F308BF58
:105CAC002033A3F10B03B3F120020CDA0C3208DD24
:105CBC0002F1140CC2F10C0201FA0CF021FA02F1FF
:105CCC000CE002F11402D8BFC2F1200C01FA02F16F
:105CDC0020FA0CFCDCBF41EA0C019040E41AA2BF94
:105CEC0001EB0451294330BD6FEA04041F3C1CDA5C
:105CFC000C340EDC04F11404C4F1200220FA04F07C
:105D0C0001FA02F340EA030021FA04F345EA030125
:105D1C0030BDC4F10C04C4F1200220FA02F001FAE7
:105D2C0004F340EA0300294630BD21FA04F0294669
:105D3C0030BD94F0000F83F4801306BF81F4801102
:105D4C000134013D4EE77FEA645C18BF7FEA655C75
:105D5C0029D094EA050F08BF90EA020F05D054EA47
:105D6C00000C04BF1946104630BD91EA030F1EBF4C
:105D7C000021002030BD5FEA545C05D14000494150
:105D8C0028BF41F0004130BD14F580043CBF01F543
:105D9C00801130BD01F0004545F0FE4141F4700129
:105DAC004FF0000030BD7FEA645C1ABF1946104604
:105DBC007FEA655C1CBF0B46024650EA013406BF05
:105DCC0052EA033591EA030F41F4002130BD00BFC4
:105DDC0090F0000F04BF0021704730B54FF4806481
:105DEC0004F132044FF000054FF0000150E700BF02
:105DFC0090F0000F04BF0021704730B54FF4806461
:105E0C0004F1320410F0004548BF40424FF000014D
:105E1C003EE700BF42004FEAE2014FEA31014FEA90
:105E2C0002701FBF12F07F4393F07F4F81F06051DF
:105E3C00704732F07F4208BF704793F07F4F04BF2A
:105E4C0041F40021704730B54FF4607401F0004507
:105E5C0021F000411CE700BF50EA010208BF704767
:105E6C0030B54FF000050AE050EA010208BF704758
:105E7C0030B511F0004502D5404261EB41014FF4C1
:105E8C00806404F132045FEA915C3FF4D8AE4FF0C9
:105E9C0003025FEADC0C18BF03325FEADC0C18BFAC
:105EAC00033202EBDC02C2F1200300FA03FC20FAFD
:105EBC0002F001FA03FE40EA0E0021FA02F114444A
:105ECC00BDE600BF70B54FF0FF0C4CF4E06C1CEA63
:105EDC0011541DBF1CEA135594EA0C0F95EA0C0FD4
:105EEC0000F0DEF82C4481EA030621EA4C5123EA47
:105EFC004C5350EA013518BF52EA033541F4801176
:105F0C0043F4801338D0A0FB02CE4FF00005E1FB28
:105F1C0002E506F00042E0FB03E54FF00006E1FB72
:105F2C0003569CF0000F18BF4EF0010EA4F1FF04B5
:105F3C00B6F5007F64F5407404D25FEA4E0E6D41F5
:105F4C0046EB060642EAC62141EA55514FEAC52006
:105F5C0040EA5E504FEACE2EB4F1FD0C88BFBCF582
:105F6C00E06F1ED8BEF1004F08BF5FEA500E50F133
:105F7C00000041EB045170BD06F0004646EA0101F9
:105F8C0040EA020081EA0301B4EB5C04C2BFD4EB2B
:105F9C000C0541EA045170BD41F480114FF0000E24
:105FAC00013C00F3AB8014F1360FDEBF002001F092
:105FBC00004170BDC4F10004203C35DA0C341BDC0C
:105FCC0004F11404C4F1200500FA05F320FA04F0DE
:105FDC0001FA05F240EA020001F0004221F0004112
:105FEC0010EBD37021FA04F642EB06015EEA430E85
:105FFC0008BF20EAD37070BDC4F10C04C4F12005B5
:10600C0000FA04F320FA05F001FA04F240EA020067
:10601C0001F0004110EBD37041F100015EEA430E38
:10602C0008BF20EAD37070BDC4F1200500FA05F258
:10603C004EEA020E20FA04F301FA05F243EA0203D7
:10604C0021FA04F001F0004121FA04F220EA0200E6
:10605C0000EBD3705EEA430E08BF20EAD37070BD2C
:10606C0094F0000F0FD101F00046400041EB01010C
:10607C0011F4801F08BF013CF7D041EA060195F0EE
:10608C00000F18BF704703F00046520043EB0303A8
:10609C0013F4801F08BF013DF7D043EA0603704795
:1060AC0094EA0C0F0CEA135518BF95EA0C0F0CD0A0
:1060BC0050EA410618BF52EA4306D1D181EA0301E6
:1060CC0001F000414FF0000070BD50EA410606BFE0
:1060DC001046194652EA430619D094EA0C0F02D125
:1060EC0050EA013613D195EA0C0F05D152EA03366A
:1060FC001CBF104619460AD181EA030101F0004188
:10610C0041F0FE4141F470014FF0000070BD41F0D0
:10611C00FE4141F4780170BD70B54FF0FF0C4CF4AA
:10612C00E06C1CEA11541DBF1CEA135594EA0C0FC9
:10613C0095EA0C0F00F0A7F8A4EB050481EA030E16
:10614C0052EA03354FEA013100F088804FEA0333FD
:10615C004FF0805545EA131343EA12634FEA0222CB
:10616C0045EA111545EA10654FEA00260EF000418C
:10617C009D4208BF964244F1FD0404F5407402D2DE
:10618C005B084FEA3202B61A65EB03055B084FEA6F
:10619C0032024FF480104FF4002CB6EB020E75EB6C
:1061AC00030E22BFB61A754640EA0C005B084FEA94
:1061BC003202B6EB020E75EB030E22BFB61A754611
:1061CC0040EA5C005B084FEA3202B6EB020E75EB5C
:1061DC00030E22BFB61A754640EA9C005B084FEAD4
:1061EC003202B6EB020E75EB030E22BFB61A7546E1
:1061FC0040EADC0055EA060E18D04FEA051545EAD0
:10620C0016754FEA06164FEAC30343EA52734FEA78
:10621C00C2025FEA1C1CC0D111F4801F0BD141EAF1
:10622C0000014FF000004FF0004CB6E711F4801F56
:10623C0004BF01430020B4F1FD0C88BFBCF5E06F36
:10624C003FF6AFAEB5EB030C04BFB6EB020C5FEA46
:10625C00500C50F1000041EB045170BD0EF0004E9B
:10626C004EEA113114EB5C04C2BFD4EB0C0541EACD
:10627C00045170BD41F480114FF0000E013C90E6CA
:10628C0045EA060E8DE60CEA135594EA0C0F08BF8E
:10629C0095EA0C0F3FF43BAF94EA0C0F0AD150EA8D
:1062AC0001347FF434AF95EA0C0F7FF425AF104620
:1062BC0019462CE795EA0C0F06D152EA03353FF448
:1062CC00FDAE1046194622E750EA410618BF52EAC5
:1062DC0043067FF4C5AE50EA41047FF40DAF52EA99
:1062EC0043057FF4EBAE12E74FF0FF3C06E000BF36
:1062FC004FF0010C02E000BF4FF0010C4DF804CD43
:10630C004FEA410C7FEA6C5C4FEA430C18BF7FEA02
:10631C006C5C1BD001B050EA410C0CBF52EA430C30
:10632C0091EA030F02BF90EA020F0020704710F1B0
:10633C00000F91EA030F58BF994208BF90422CBF3F
:10634C00D8176FEAE37040F0010070474FEA410C38
:10635C007FEA6C5C02D150EA013C07D14FEA430C56
:10636C007FEA6C5CD6D152EA033CD3D05DF8040BC7
:10637C00704700BF8446104662468C4619466346F9
:10638C0000E000BF01B5FFF7B7FF002848BF10F1D0
:10639C00000F01BD4DF808EDFFF7F4FF0CBF012015
:1063AC0000205DF808FB00BF4DF808EDFFF7EAFF91
:1063BC0034BF012000205DF808FB00BF4DF808ED4C
:1063CC00FFF7E0FF94BF012000205DF808FB00BF41
:1063DC004DF808EDFFF7CEFF94BF012000205DF8CB
:1063EC0008FB00BF4DF808EDFFF7C4FF34BF0120D8
:1063FC0000205DF808FB00BF10B5054C13462CB10E
:10640C000A4601460220AFF3008010BD2046FCE78F
:10641C00000000000A44914200F1FF3300D17047A4
:10642C0010B511F8014B03F8014F9142F9D110BD91
:10643C0002440346934200D1704703F8011BF9E76D
:10644C0038B50D4B1D68AB6B04467BB91820FEF7B5
:10645C002DFE0A4A0A4BA863C0E90023094B83604E
:10646C000B23838101220023C0E90423AB6B0022A0
:10647C001C615A6138BD00BF84E403200E33CDABE0
:10648C0034126DE6ECDE0500134B10B51C68A36BE3
:10649C007BB91820FEF70AFE104A114BA063C0E925
:1064AC000023104B83600B23838101220023C0E95E
:1064BC000423A16B0C480A694B690C4C504304FB38
:1064CC000300A2FB04345A1C044444F10000C1E94B
:1064DC00042020F0004010BD84E403200E33CDAB2B
:1064EC0034126DE6ECDE05002DF451582D7F954CE1
:1064FC00034613F8012B002AFBD1181A01387047F8
:10650C001D400D0059400D0081400D0085400D00CF
:10651C000000000073656E64696E67546872656193
:10652C0064004552524F522054524947474544004B
:10653C004D657373616765204761622031004D655D
:10654C007373616765204761622032004D65737318
:10655C00616765203A2000437263203A2000424173
:10656C0044204D45535341474520524543454956D8
:10657C0045440057414954494E472054494D454FD5
:10658C0055540000000000000000000057510D00A1
:10659C004D510D0043510D0039510D002D510D0081
:1065AC0021510D00FD580D0005590D0015510D0020
:1065BC000D510D0003510D00F9500D0035590D0012
:1065CC006170700025592D256D2D25645425483A90
:1065DC00254D3A2553257A0061736374696D650006
:1065EC0000000000000000005D540D004D540D0033
:1065FC004F540D00000000000000000033550D004A
:10660C009B550D0071550D00FD510D0063550D008E
:10661C0035550D0045550D0095550D0055550D0082
:10662C002F550D0000000000000000009D560D00CD
:10663C0009570D00E1560D00FD510D00B1560D002E
:10664C00CD560D00BF560D00DB560D009F560D00AC
:10665C00A3560D00000000000000000099570D002B
:10666C00E3570D00BB570D009B570D00C3570D0092
:10667C00CB570D00D3570D00DB570D000000000069
:10668C00000000009D580D0093580D0089580D0016
:10669C003F580D007D580D0071580D00FD580D0030
:1066AC0005590D0065580D005D580D0053580D002F
:1066BC0049580D0035590D00000000000000000085
:1066CC00BD580D00C7580D00D1580D00DB580D00FA
:1066DC00E5580D00F1580D00FD580D0005590D0041
:1066EC000D590D0019590D0021590D002B590D0094
:1066FC0035590D0000000000214C0D0061510D00BA
:10670C0089510D00D5510D00C5520D00D5520D000B
:10671C000D530D00A9580D00095A0D000000000082
:04672C000000000069
:046730000000000065
:10673400010001000100010001010000E4650D00F9
:106744000090D00388E40320000000000000000053
:106754000000000000000000000000000000000035
:106764000000000000000000000000000000000025
:106774000000000000000000000000000000000015
:106784000000000000000000000000000000000005
:1067940000000000000000000000000000000000F5
:0867A4000000000000000000ED
:1067AC00FFFFFFFF00000102030405060708090AAA
:1067BC000B0C0D0E0F101112131415161718191AA5
:0867CC001B1C1D1E1F202800EC
:0467D40078563412AD
:04000003D000401CCD
:00000001FF
