:02000002D0002C
:1040000000400D00C0630D00000006000C0005011B
:08401000040135080000000066
:0440180044610D00F2
:10401C0009480A49884208B505D0094A824202D0AB
:10402C00121A02F047F80748074A0021121A02F048
:10403C004FF8014808BD00BF84E4032024630D0041
:10404C00F8E40320F8E40320F0E7032070B5074EF2
:10405C00074C01F02DF8A41BA4080025A54200D1A3
:10406C0070BD56F8043B98470135F7E7F4620D0034
:10407C0018630D0000F08AB808B500F0A3F8BDE88D
:10408C00084000F0D7BF00F07FBE00F07DBE00F00E
:10409C0083BE0078B0FA80F04009704701230370AA
:1040AC007047000010B503682F2B044604D9074A4B
:1040BC0000210A2000F0CCFD23681F2B83BF03F0E6
:1040CC001F03034823604FF0A04010BD3D4A0D0074
:1040DC000003005010B5012303748368044643B1F8
:1040EC00C0689847012363740020BDE8104000F0BD
:1040FC00DFBC00680028F5D083680BB901F073FBB6
:10410C00C368EEE710B50446006808B100F044FE41
:10411C00204610BD38B5046805464CB1A3681BB1E8
:10412C0003222146204698471021204601F055FBDA
:10413C0028461421BDE8384001F04FBB10B5036888
:10414C0004469BB1586800F08BFC78B923685A7C04
:10415C0012B9586800F08CFC2368586800F090FC89
:10416C0020680023236008B1FFF7D4FF206808B152
:10417C00FFF7D0FF204610BD034B59685A68521AFE
:10418C008242FBD3704700BF001000E007B501F07E
:10419C008FF84FF4165101F07FF80521022001F041
:1041AC00C5FA0221042001F0C1FA00220449009250
:1041BC004FF0FF33042001F0A7F803B05DF804FBC7
:1041CC00BD420D00704700000C4A0D4900231370CE
:1041DC000C4A13600C4A136001220A800B490B80B5
:1041EC000B490A700B490B700B490A800B490B8069
:1041FC000B490A700B4A1370704700BF0FE603207F
:10420C0088E4032034E6032038E6032014E6032078
:10421C008AE4032028E6032084E4032010E603202C
:10422C0086E4032012E60320064A28B106491088CA
:10423C000B8803439BB20B8013889BB25B009BB231
:10424C001380704788E4032014E60320054A20B14C
:10425C00054910780B7803430B7013785B00DBB2C5
:10426C00137070478AE4032028E60320064A28B11D
:10427C00064910880B8803439BB20B8013889BB2B2
:10428C005B009BB21380704784E4032010E603208C
:10429C00054A20B1054910780B7803430B7013784D
:1042AC005B00DBB21370704786E4032012E6032038
:1042BC002DE9F347AC4BAD4C5B68AD4E23603378C6
:1042CC00AC4FBFF35B8F13F0010F09D13046FFF7F2
:1042DC00E0FE28B100F07CFB38603046FFF7DEFED4
:1042EC003B6893F840503378BFF35B8FDB074FEAA2
:1042FC00451809D49E48FFF7CCFE28B100F068FBA6
:10430C0038609B48FFF7CAFE3B689B4E93F84150C0
:10431C0005F01F0545EA080501A80195FFF7C2FE47
:10432C00D0F81035019501A8FFF7BCFE019AD0F822
:10433C001035924DD34003F0010333702B68062BDC
:10434C0023D8DFE813F007000C00250033006200CF
:10435C009E00C8003378C3B901232B6015E0337875
:10436C009BB1874923680A689B1A864A13602368A5
:10437C000B6085490B68581C032B086005D9022378
:10438C002B601368814A9B08136002B0BDE8F0876C
:10439C003378002BF9D07E4A1368591C042B11601A
:1043AC00F3D97C4B22681A600323D6E7794F206837
:1043BC003B68764AC01AD2F800A001F059FB80463F
:1043CC005046894601F054FB734B002201F0CAFBA6
:1043DC0002460B464046494601F036FE0028D4D131
:1043EC0023683B60307880F00100FFF71DFF6B4BBA
:1043FC001B889BB2002BC8D104232B60684B694AE5
:10440C001B88C3F307231370BFE7624F20683B6818
:10441C005E4AC01AD2F800A001F02AFB8046504632
:10442C00894601F025FB5C4B002201F09BFB024608
:10443C000B464046494601F007FE0028A5D12368EB
:10444C003B60307880F00100FFF700FF56490B7895
:10445C0003F0FF04002B98D1544A55481378554F5C
:10446C00DEB20133DBB213700378DBB2BB55012330
:10447C0004700B704B4B12781B789A4285D1052334
:10448C006BE7444F20683B68404AC01AD2F800A042
:10449C0001F0EEFA80465046894601F0E9FA3E4BAF
:1044AC00002201F05FFB02460B464046494601F0F4
:1044BC00CBFD00287FF469AF23683B60307880F037
:1044CC000100FFF7D3FE3C4B1B889BB2002B7FF403
:1044DC005CAF062341E72F4F20683B682B4AC01A7C
:1044EC00D2F800A001F0C4FA80465046894601F08B
:1044FC00BFFA294B002201F035FB02460B46404621
:10450C00494601F0A1FD00287FF43FAF23683B60D2
:10451C00307880F00100FFF7BBFE284B1B7803F0CE
:10452C00FF02002B7FF431AF2A6000F0C1FE21495D
:10453C0000F003FD00F0BCFE214B19880A2289B261
:10454C00044600F004FD204600F0EBFC00F0B0FE49
:10455C001C4B044619780A2200F0F9FC204600F0A6
:10456C00E0FCFFF731FE10E7001000E018E6032036
:10457C00FCE4032000E5032016E603203CE60320C0
:10458C0030E603202CE6032034E6032024E6032047
:10459C0038E603201CE603200000F83F88E40320E3
:1045AC0014E6032029E603208AE403200FE6032007
:1045BC0028E6032010E5032084E4032086E403208E
:1045CC0010E6032012E60320F7B5374D374C2B7855
:1045DC00BFF35B8F13F0010F09D12846FFF759FD8C
:1045EC0028B100F0F5F920602846FFF757FD236845
:1045FC0093F820305E012B78BFF35B8FD90709D479
:10460C002948FFF746FD28B100F0E2F92060264862
:10461C00FFF744FD236893F8213003F01F03334365
:10462C0001A80193FFF73EFD019A214E012393400F
:10463C00C0F80C353068FFF79FFD2B78BFF35B8F0C
:10464C00DA0709D41848FFF724FD28B100F0C0F9A7
:10465C0020601548FFF722FD236893F820305F0196
:10466C002B78BFF35B8FDB0709D40F48FFF711FDE5
:10467C0028B100F0ADF920600B48FFF70FFD23685F
:10468C0093F8213003F01F033B4301A80193FFF77C
:10469C0009FD019A01239340C0F808353068FFF7F3
:1046AC006BFD03B0F0BD00BFFCE4032000E503206C
:1046BC0020E60320F7B5374D374C2B78BFF35B8FD3
:1046CC0013F0010F09D12846FFF7E3FC28B100F0E5
:1046DC007FF920602846FFF7E1FC236893F820302F
:1046EC005E012B78BFF35B8FD90709D42948FFF7FC
:1046FC00D0FC28B100F06CF920602648FFF7CEFC06
:10470C00236893F8213003F01F03334301A801936E
:10471C00FFF7C8FC019A214E01239340C0F80835DD
:10472C003068FFF729FD2B78BFF35B8FDA0709D4CC
:10473C001848FFF7AEFC28B100F04AF92060154884
:10474C00FFF7ACFC236893F820305F012B78BFF3A4
:10475C005B8FDB0709D40F48FFF79BFC28B100F0F7
:10476C0037F920600B48FFF799FC236893F8213048
:10477C0003F01F033B4301A80193FFF793FC019A3D
:10478C0001239340C0F80C353068FFF7F5FC03B0FB
:10479C00F0BD00BFFCE4032000E5032020E603206D
:1047AC0008B5FFF711FFFFF785FFFFF70DFFFFF7C8
:1047BC0081FFFFF709FFFFF77DFFFFF705FFBDE85E
:1047CC000840FFF777BF08B1FFF774BFFFF7FCBED7
:1047DC0070B504464618B4420BD000252078284109
:1047EC0000F001000135FFF7EEFF082DF6D1013482
:1047FC00F1E770BD38B50546002445FA04F000F029
:10480C0001000134FFF7DFFF082CF6D138BD38B5B5
:10481C000546002445FA04F000F001000134FFF7CE
:10482C00D2FF102CF6D138BD10B5014404464FF61A
:10483C00FF708C420CD014F8013B83EA102383EAFE
:10484C00131343EA00225B01DBB2534098B2F0E74A
:10485C0010BD000070B51F4E1F4D0B213046FFF7E9
:10486C00E3FF0446FFF79CFF7E20FFF7C3FF002009
:10487C00FFF7C0FF0B20FFF7BDFF0B213046FFF702
:10488C00A7FF2046FFF7C3FF7E20FFF7B3FF4FF4CF
:10489C007A7000F08DFB0C212846FFF7C5FF04460B
:1048AC00FFF77EFF7E20FFF7A5FF0020FFF7A2FF9A
:1048BC000C20FFF79FFF0C212846FFF789FF2046AD
:1048CC00FFF7A5FF7E20FFF795FF4FF47A7000F0FD
:1048DC006FFBC2E758610D0063610D0037B5274DC2
:1048EC00274BAB60002402202C60AC80AC7100F034
:1048FC00B7F9244A2449284600F06AFF21460120D2
:10490C0000F0BEF92149142000F069FF28B1C0E97C
:10491C000044C0E90244047444741D4C2060A8B1E6
:10492C001C4B83600023C3604FF44063CDE900034C
:10493C0019491A4B0222043000F08AF830B9236866
:10494C001B7C4BB9012000F06BF8F8E720680023C2
:10495C00236008B1FFF7DEFB0A4A11490C4800F04E
:10496C0037FF104B104A1B68B3FBF2F24FF47A730B
:10497C0053430E4A136003B030BD00BF04E503205F
:10498C000000FFFFF8E4032011410D00F0620D0060
:10499C0040E6032061480D006F610D00E1400D0001
:1049AC0049410D0090E4032040420F0020E6032013
:1049BC0008B5024B1B689B68019308BD6802030095
:1049CC0008B5024B1B68DB68019308BD6802030045
:1049DC0008B5024B1B681B68019308BD2C02030031
:1049EC0008B5024B1B689B68019308BD2C020300A1
:1049FC0008B5024B1B689B69019308BD2C02030090
:104A0C0008B5024B1B68DB69019308BD2C0203003F
:104A1C0008B5024B1B685B68019308BD18020300C4
:104A2C0008B5024B1B689B68019308BD1802030074
:104A3C0008B5024B1B68DB68019308BD1802030024
:104A4C0008B5024B1B685B69019308BD1802030093
:104A5C0008B5024B1B685B68019308BD4802030054
:104A6C0008B5024B1B689B68019308BD4802030004
:104A7C0008B5024B1B681B69019308BD4802030073
:104A8C0008B5024B1B685B69019308BD4802030023
:104A9C0008B5024B1B685B6C019308BD4802030010
:104AAC0008B5024B1B689B6C019308BD48020300C0
:104ABC0008B5024B1B68DB6E019308BD480203006E
:104ACC0008B5024B1B685B69019308BD64020300C7
:104ADC0008B5024B1B681B68019308BD3C02030020
:104AEC0008B5024B1B68DB68019308BD3C02030050
:104AFC0008B5024B1B681B69019308BD3C020300FF
:104B0C0008B5024B1B685B69019308BD3C020300AE
:104B1C0008B5024B1B689B69019308BD3C0203005E
:104B2C0008B5024B1B68DB69019308BD3C0203000E
:104B3C0008B5024B1B681B6A019308BD3C020300BD
:104B4C0008B5024B1B689B6A019308BD3C0203002D
:104B5C0008B5024B1B681B6A019308BD28020300B1
:104B6C0008B5024B1B685B6A019308BD2802030061
:104B7C0008B5024B1B689B6A019308BD2802030011
:104B8C0008B5024B1B68DB6A019308BD28020300C1
:104B9C0008B5024B1B681B6B019308BD2802030070
:104BAC0008B5024B1B685B6B019308BD2802030020
:104BBC0008B5024B1B681B6C019308BD280203004F
:104BCC0008B5024B1B68DB69019308BD300203007A
:104BDC0008B5024B1B681B6A019308BD3002030029
:104BEC0008B5024B1B681B68019308BD4C020300FF
:104BFC0008B5024B1B685B68019308BD4C020300AF
:104C0C0008B5024B1B681B69019308BD4C020300DD
:104C1C0008B5024B1B685B69019308BD4C0203008D
:104C2C0008B5024B1B689B69019308BD4C0203003D
:104C3C0008B5024B1B68DB69019308BD4C020300ED
:104C4C0008B5024B1B681B6A019308BD4C0203009C
:104C5C0008B5024B1B685B6B019308BD6002030037
:104C6C0008B5024B1B685B68019308BD200203006A
:104C7C0008B5024B1B685B69019308BD2002030059
:104C8C0008B5024B1B68DB6A019308BD20020300C8
:104C9C0008B5034B1B68D3F88830019308BD00009E
:104CAC002002030008B5034B1B68D3F89430019322
:104CBC0008BD00002002030008B5024B1B685B68AE
:104CCC00019308BD4002030008B5024B1B689B68AA
:104CDC00019308BD4002030008B5024B1B68DB685A
:104CEC00019308BD4002030008B5024B1B681B6909
:104CFC00019308BD4002030008B5024B1B685B69B9
:104D0C00019308BD4002030008B5024B1B689B6968
:104D1C00019308BD4002030008B5024B1B68DB6918
:104D2C00019308BD4002030008B5024B1B681B6AC7
:104D3C00019308BD4002030008B5024B1B681B6BB6
:104D4C00019308BD4002030008B5024B1B685B6B66
:104D5C00019308BD4002030008B5024B1B681B6C95
:104D6C00019308BD4002030008B5024B1B685B6C45
:104D7C00019308BD4002030008B5024B1B68DB6BB6
:104D8C00019308BD4402030008B5024B1B681B6865
:104D9C00019308BD1C02030008B5024B1B685B683D
:104DAC00019308BD1C02030008B5024B1B68DB6AAB
:104DBC00019308BD1C02030008B5024B1B685B6C19
:104DCC00019308BD1C020300002240681146FFF746
:104DDC00ABBF002240681146FFF7B6BF4068002207
:104DEC00FFF7AABF4068002281F00101FFF794BFD2
:104DFC00002340681A461946FFF786BF0023406817
:104E0C001A461946FFF778BF002240681146FFF793
:104E1C006BBF002240681146FFF756BF4068002266
:104E2C000221FFF759BF002340681A46FFF744BF21
:104E3C00024B03225A60024A1A60704744E6032070
:104E4C0088610D0010B5044608462170FFF7B8FEC6
:104E5C0000236360204610BD10B5094B094C02229B
:104E6C0000201A60084B2060A080A071A360FFF79F
:104E7C00F7FE2046054A0649BDE8104000F0A8BCE4
:104E8C0058E603204CE603200000FFFFF8E4032063
:104E9C0011410D0010B50446006808B1FFF700FE83
:104EAC00204610BD10B5064C002320462360FFF7AA
:104EBC00EFFD2046034A0449BDE8104000F088BCD1
:104ECC005CE60320F8E40320A14E0D00F8B506467D
:104EDC000D468F180024BD420CD0336815F8011B09
:104EEC009B6830469847031E01DB1C44F3E7002CFB
:104EFC0008BF1C462046F8BD13B50446084659B1F8
:104F0C00019101F011F923680199DB6802462046F2
:104F1C0002B0BDE81040184702B010BD03689B6892
:104F2C00184738B50D210546FFF7F8FF0A2104464E
:104F3C002846FFF7F3FF204438BD38B50546FFF788
:104F4C00DBFF04462846FFF7ECFF204438BD30B5A4
:104F5C008BB000238DF82430012A98BF0A2209ACAB
:104F6C000D46B1FBF2F101FB125303F0FF03092BC9
:104F7C0094BF30333733DBB2AA4204F8013DEFD98A
:104F8C002146FFF7B9FF0BB030BD0000014B024AC0
:104F9C001A60704760E60320BC610D00024B1A6872
:104FAC00024B1A60704700BF8CE4032064E60320B8
:104FBC000021FFF75DBE10B58368044613B10322D0
:104FCC0001469847204610BD10B50446FFF7F3FF85
:104FDC00204610BD0348044A04490023836000F0B6
:104FEC00F7BB00BF68E60320F8E40320D54F0D00A3
:104FFC00014B1860704700BF94E4032008B50B4BBD
:10500C0043B100F055F903681B699847002801DD8E
:10501C00AFF30080064B43B100F0F4F903681B6951
:10502C009847002801DDAFF3008008BD00000000A8
:10503C000000000008B5FFF7E1FFFFF701FD014B91
:10504C00186008BDD4E703200248034A0349121A2A
:10505C0001F030B800F4032004F4032020630D00A9
:10506C0007B5002300931A466FF07701FFF71AFE7D
:10507C0003B05DF804FB000007B543880A2B08D089
:10508C00502B0BD1094B1B684BB103B05DF804EBF3
:10509C001847FFF7E5FF03B05DF804FB002300930E
:1050AC001A466FF07701FFF7FDFDF4E77CE603206D
:1050BC0038B5124C1248134D0021FFF77DFE2368C2
:1050CC00AB42114B0CBF012200221A7002D0FFF729
:1050DC00BBFF2560FFF79CFC044601F001F80B4B6D
:1050EC0013B12046AFF3008000210848FFF744FEBF
:1050FC00BDE8384006480021FFF7CABD00F4032084
:10510C00FD4F0D001E1C279A78E6032000000000BE
:10511C0085500D00704710B51821044600F05DFB5A
:10512C00204610BDF0B5037D062B8DB00E4600F168
:10513C0004074FF0000412D000F1080515F8011D0A
:10514C000A223046FFF703FFAF42044419D0002C6B
:10515C00F4D02E213046FFF7E1FE0444EEE72F2376
:10516C006A4639460A208DF80040FFF7A9FC6846CC
:10517C0000F0DAFF33680246DB6869463046984730
:10518C00044620460DB0F0BD10B5054B0446112267
:10519C0040F8043B002100F09BFF204610BD00BFEF
:1051AC00E4610D000346074A10B543F8042B01F1E6
:1051BC00100251F8044B43F8044B9142F9D10A7890
:1051CC001A7010BDE4610D0010B59DF8084044EA5A
:1051DC00032343EA024242EA01610423416003755E
:1051EC0010BD13B5CB7800938B784A780978FFF70C
:1051FC00EBFF02B010BD41747047704708B5002139
:10520C00007CFFF70DFD40EAE07008BD08B50121F8
:10521C00007CFFF705FD40EAE07008BD08B5007C96
:10522C00FFF7F6FC20EAE07008BD08B5007CFFF73C
:10523C00E7FC20EAE07008BD13B50446007C019140
:10524C00FFF7E6FC0028019901DC607C20B1207C92
:10525C00FFF7EEFC20EAE07002B010BD007CFFF717
:10526C00EFBC10B51421044600F0B7FA204610BD6F
:10527C0010B54FF47A73044608460021C4E90113B3
:10528C00044B23600123207463741146FFF7A8FCC0
:10529C00204610BDF8610D00007C0022FFF7A8BC71
:1052AC0010B514220446002100F012FF204610BD58
:1052BC0010B5104C88B003A8FFF7F2FF2178BFF3AC
:1052CC005B8F11F0010111D120460191FEF7E1FE37
:1052DC00019958B103AA0848FFF7CAFF2046FEF708
:1052EC00DDFE064A0649044800F072FA024808B08E
:1052FC0010BD00BF80E6032084E60320F8E4032001
:10530C0007520D00004700002DE9FF4100241D4607
:10531C000F4690460646FFF773FBA5424FF0040379
:10532C00ADF80D408DF80C308DF80F40A2BF9DF8F4
:10533C0028308DF80E3003AC0749009443463A46AA
:10534C003046A8BF8DF80D50FFF752FBB0FA80F035
:10535C00400904B0BDE8F08111530D007047417451
:10536C00704708B5007CFFF7EBFB20EAE07008BD46
:10537C0008B5007CFFF7BCFB20EAE07008BD08B55F
:10538C00007CFFF7C5FB40EAE07008BD08B5007C67
:10539C00FFF7B6FB40EAE07008BD007CFFF7C0BB2E
:1053AC0037B5457C04462DB1207C03B0BDE83040B8
:1053BC00FFF796BB007C0191FFF7C2FB0028019917
:1053CC00F2DC284603B030BD10B51421044600F0C1
:1053DC0004FA204610BD000010B54FF0000C044636
:1053EC00084611464FF47A72C4E901C2044A22609D
:1053FC000122207462741A46FFF76AFB204610BD26
:10540C0028620D0013B50E4C2178BFF35B8F11F0A1
:10541C00010112D120460191FEF73BFE019960B1CA
:10542C00084A094B0948FFF7D7FF2046FEF736FE1E
:10543C00074A0849054800F0CBF9044802B010BDF2
:10544C0098E603209CE6032020E70320A4E7032032
:10545C00F8E4032069530D007047F8B5064615466D
:10546C000C468F18BC4206D0336814F8011B9B689D
:10547C0030469847F6E72846F8BD007C0022FFF737
:10548C0067BB007C0021FFF76BBB007C0021FFF7A2
:10549C006FBB007C0021FFF773BB007C0021FFF782
:1054AC0077BB10B51421044600F097F9204610BDC7
:1054BC0010B54FF47A73044608460021C4E9011371
:1054CC00034B236020741146FFF772FB204610BD7E
:1054DC0058620D00002240681146FFF705BC0022FF
:1054EC0040681146FFF720BC002240681146FFF7C8
:1054FC002BBC40680022FFF71FBC4068002281F0E3
:10550C000101FFF709BC002340681A461946FFF752
:10551C00FBBB002340681A461946FFF7EDBB00227F
:10552C0040681146FFF7D0BB406800220221FFF70C
:10553C00D3BB002340681A46FFF7BEBB024B0422C4
:10554C005A60024A1A607047B8E7032080620D0067
:10555C00002340681A46FFF7AFBB406800220221C7
:10556C00FFF7BABB002240681146FFF7ADBB002223
:10557C0040681146FFF7B8BB002340681A4619462D
:10558C00FFF7BABB002340681A461946FFF7BCBBAD
:10559C0040680021FFF7E0BB40680021FFF7E4BB47
:1055AC004068002281F00101FFF7B6BB4068002281
:1055BC00FFF7C2BB002240681146FFF7C5BB0022B3
:1055CC0040681146FFF7B0BB2DE9F043002495B0BD
:1055DC0016460D460746FFF7D7FD214618220EA8A2
:1055EC00009400F075FD4023CDE90C3421466B4648
:1055FC000CAA3046FFF7E4F90446002846D10246CF
:10560C0001216868FFF770FB02218046224668681A
:10561C00FFF76AFB009E81462146002E36D00029FA
:10562C0034D17368022B03D00A2B0BD0F669F4E744
:10563C00B8F1000F04D0716938460431FFF7D1FD81
:10564C004146F3E7B9F1000F01D14946EEE7746921
:10565C00102201A800F03CFD06238DF8143001AD9A
:10566C0004F108031834186859682A4603C2083331
:10567C00A3421546F7D101A906A807ADFFF792FD85
:10568C000FCD3C1D0FC42B682370DEE70098FFF78D
:10569C008FF9384615B0BDE8F0830000024B034A81
:1056AC001A6000225A607047C0E70320BC620D00EC
:1056BC00232813B502D9002002B010BDA0F10B03B2
:1056CC00022B1AD8174C2178BFF35B8F11F0010114
:1056DC000BD120460191FEF7DCFC019928B1124850
:1056EC00FFF7B0FB2046FEF7D9FC0F4B1878FFF7FD
:1056FC006FFA0028DFD10120DEE7012809D800F07D
:10570C003FF80021007CFFF74BFA80F00100C0B29B
:10571C00D2E709380128EED8FFF774FE007CFFF7BA
:10572C0007FAF2E7C8E70320CCE70320232838B5B3
:10573C0004460D460AD8FF2908D0FFF7B9FF28B157
:10574C0029462046BDE83840FFF74AB938BD00006D
:10575C0038B500232025438014230446038085603C
:10576C0005610649284600F03CF80449606028466B
:10577C0000F037F8E060204638BD00BFF0620D0045
:10578C0030B50F4D2978BFF35B8F11F0010487B052
:10579C0013D12846FEF77DFC78B101A8FFF7D8FF9E
:1057AC0001AA21460748FFF783FE2846FEF776FC40
:1057BC00054A0649034800F00BF8024807B030BD13
:1057CC00D8E70320DCE70320F8E4032065540D0040
:1057DC000B460146184600F05FBCFEF758BCFEF7BE
:1057EC0052BCFEF752BC08B5FFF7DEFA81F000415F
:1057FC0002E000BF83F0004330B54FEA41044FEAAA
:10580C00430594EA050F08BF90EA020F1FBF54EA44
:10581C00000C55EA020C7FEA645C7FEA655C00F0E0
:10582C00E2804FEA5454D4EB5555B8BF6D420CDDB1
:10583C002C4480EA020281EA030382EA000083EA34
:10584C00010180EA020281EA0303362D88BF30BDD4
:10585C0011F0004F4FEA01314FF4801C4CEA11312A
:10586C0002D0404261EB410113F0004F4FEA033389
:10587C004CEA133302D0524263EB430394EA050F14
:10588C0000F0A780A4F10104D5F1200E0DDB02FA83
:10589C000EFC22FA05F2801841F1000103FA0EF217
:1058AC00801843FA05F359410EE0A5F120050EF1DD
:1058BC00200E012A03FA0EFC28BF4CF0020C43FA0E
:1058CC0005F3C01851EBE37101F0004507D54FF01B
:1058DC00000EDCF1000C7EEB00006EEB0101B1F56B
:1058EC00801F1BD3B1F5001F0CD349085FEA3000B1
:1058FC004FEA3C0C04F101044FEA445212F5800FBC
:10590C0080F09A80BCF1004F08BF5FEA500C50F158
:10591C00000041EB045141EA050130BD5FEA4C0C3B
:10592C00404141EB0101013C28BFB1F5801FE9D298
:10593C0091F0000F04BF01460020B1FA81F308BFBB
:10594C002033A3F10B03B3F120020CDA0C3208DD87
:10595C0002F1140CC2F10C0201FA0CF021FA02F162
:10596C000CE002F11402D8BFC2F1200C01FA02F1D2
:10597C0020FA0CFCDCBF41EA0C019040E41AA2BFF7
:10598C0001EB0451294330BD6FEA04041F3C1CDABF
:10599C000C340EDC04F11404C4F1200220FA04F0DF
:1059AC0001FA02F340EA030021FA04F345EA030189
:1059BC0030BDC4F10C04C4F1200220FA02F001FA4B
:1059CC0004F340EA0300294630BD21FA04F02946CD
:1059DC0030BD94F0000F83F4801306BF81F4801166
:1059EC000134013D4EE77FEA645C18BF7FEA655CD9
:1059FC0029D094EA050F08BF90EA020F05D054EAAB
:105A0C00000C04BF1946104630BD91EA030F1EBFAF
:105A1C000021002030BD5FEA545C05D140004941B3
:105A2C0028BF41F0004130BD14F580043CBF01F5A6
:105A3C00801130BD01F0004545F0FE4141F470018C
:105A4C004FF0000030BD7FEA645C1ABF1946104667
:105A5C007FEA655C1CBF0B46024650EA013406BF68
:105A6C0052EA033591EA030F41F4002130BD00BF27
:105A7C0090F0000F04BF0021704730B54FF48064E4
:105A8C0004F132044FF000054FF0000150E700BF65
:105A9C0090F0000F04BF0021704730B54FF48064C4
:105AAC0004F1320410F0004548BF40424FF00001B1
:105ABC003EE700BF42004FEAE2014FEA31014FEAF4
:105ACC0002701FBF12F07F4393F07F4F81F0605143
:105ADC00704732F07F4208BF704793F07F4F04BF8E
:105AEC0041F40021704730B54FF4607401F000456B
:105AFC0021F000411CE700BF50EA010208BF7047CB
:105B0C0030B54FF000050AE050EA010208BF7047BB
:105B1C0030B511F0004502D5404261EB41014FF424
:105B2C00806404F132045FEA915C3FF4D8AE4FF02C
:105B3C0003025FEADC0C18BF03325FEADC0C18BF0F
:105B4C00033202EBDC02C2F1200300FA03FC20FA60
:105B5C0002F001FA03FE40EA0E0021FA02F11444AD
:105B6C00BDE600BF70B54FF0FF0C4CF4E06C1CEAC6
:105B7C0011541DBF1CEA135594EA0C0F95EA0C0F37
:105B8C0000F0DEF82C4481EA030621EA4C5123EAAA
:105B9C004C5350EA013518BF52EA033541F48011D9
:105BAC0043F4801338D0A0FB02CE4FF00005E1FB8C
:105BBC0002E506F00042E0FB03E54FF00006E1FBD6
:105BCC0003569CF0000F18BF4EF0010EA4F1FF0419
:105BDC00B6F5007F64F5407404D25FEA4E0E6D4159
:105BEC0046EB060642EAC62141EA55514FEAC5206A
:105BFC0040EA5E504FEACE2EB4F1FD0C88BFBCF5E6
:105C0C00E06F1ED8BEF1004F08BF5FEA500E50F196
:105C1C00000041EB045170BD06F0004646EA01015C
:105C2C0040EA020081EA0301B4EB5C04C2BFD4EB8E
:105C3C000C0541EA045170BD41F480114FF0000E87
:105C4C00013C00F3AB8014F1360FDEBF002001F0F5
:105C5C00004170BDC4F10004203C35DA0C341BDC6F
:105C6C0004F11404C4F1200500FA05F320FA04F041
:105C7C0001FA05F240EA020001F0004221F0004175
:105C8C0010EBD37021FA04F642EB06015EEA430EE8
:105C9C0008BF20EAD37070BDC4F10C04C4F1200518
:105CAC0000FA04F320FA05F001FA04F240EA0200CB
:105CBC0001F0004110EBD37041F100015EEA430E9C
:105CCC0008BF20EAD37070BDC4F1200500FA05F2BC
:105CDC004EEA020E20FA04F301FA05F243EA02033B
:105CEC0021FA04F001F0004121FA04F220EA02004A
:105CFC0000EBD3705EEA430E08BF20EAD37070BD90
:105D0C0094F0000F0FD101F00046400041EB01016F
:105D1C0011F4801F08BF013CF7D041EA060195F051
:105D2C00000F18BF704703F00046520043EB03030B
:105D3C0013F4801F08BF013DF7D043EA06037047F8
:105D4C0094EA0C0F0CEA135518BF95EA0C0F0CD003
:105D5C0050EA410618BF52EA4306D1D181EA030149
:105D6C0001F000414FF0000070BD50EA410606BF43
:105D7C001046194652EA430619D094EA0C0F02D188
:105D8C0050EA013613D195EA0C0F05D152EA0336CD
:105D9C001CBF104619460AD181EA030101F00041EB
:105DAC0041F0FE4141F470014FF0000070BD41F034
:105DBC00FE4141F4780170BD70B54FF0FF0C4CF40E
:105DCC00E06C1CEA11541DBF1CEA135594EA0C0F2D
:105DDC0095EA0C0F00F0A7F8A4EB050481EA030E7A
:105DEC0052EA03354FEA013100F088804FEA033361
:105DFC004FF0805545EA131343EA12634FEA02222F
:105E0C0045EA111545EA10654FEA00260EF00041EF
:105E1C009D4208BF964244F1FD0404F5407402D241
:105E2C005B084FEA3202B61A65EB03055B084FEAD2
:105E3C0032024FF480104FF4002CB6EB020E75EBCF
:105E4C00030E22BFB61A754640EA0C005B084FEAF7
:105E5C003202B6EB020E75EB030E22BFB61A754674
:105E6C0040EA5C005B084FEA3202B6EB020E75EBBF
:105E7C00030E22BFB61A754640EA9C005B084FEA37
:105E8C003202B6EB020E75EB030E22BFB61A754644
:105E9C0040EADC0055EA060E18D04FEA051545EA33
:105EAC0016754FEA06164FEAC30343EA52734FEADC
:105EBC00C2025FEA1C1CC0D111F4801F0BD141EA55
:105ECC0000014FF000004FF0004CB6E711F4801FBA
:105EDC0004BF01430020B4F1FD0C88BFBCF5E06F9A
:105EEC003FF6AFAEB5EB030C04BFB6EB020C5FEAAA
:105EFC00500C50F1000041EB045170BD0EF0004EFF
:105F0C004EEA113114EB5C04C2BFD4EB0C0541EA30
:105F1C00045170BD41F480114FF0000E013C90E62D
:105F2C0045EA060E8DE60CEA135594EA0C0F08BFF1
:105F3C0095EA0C0F3FF43BAF94EA0C0F0AD150EAF0
:105F4C0001347FF434AF95EA0C0F7FF425AF104683
:105F5C0019462CE795EA0C0F06D152EA03353FF4AB
:105F6C00FDAE1046194622E750EA410618BF52EA28
:105F7C0043067FF4C5AE50EA41047FF40DAF52EAFC
:105F8C0043057FF4EBAE12E74FF0FF3C06E000BF99
:105F9C004FF0010C02E000BF4FF0010C4DF804CDA6
:105FAC004FEA410C7FEA6C5C4FEA430C18BF7FEA66
:105FBC006C5C1BD001B050EA410C0CBF52EA430C94
:105FCC0091EA030F02BF90EA020F0020704710F114
:105FDC00000F91EA030F58BF994208BF90422CBFA3
:105FEC00D8176FEAE37040F0010070474FEA410C9C
:105FFC007FEA6C5C02D150EA013C07D14FEA430CBA
:10600C007FEA6C5CD6D152EA033CD3D05DF8040B2A
:10601C00704700BF8446104662468C46194663465C
:10602C0000E000BF01B5FFF7B7FF002848BF10F133
:10603C00000F01BD4DF808EDFFF7F4FF0CBF012078
:10604C0000205DF808FB00BF4DF808EDFFF7EAFFF4
:10605C0034BF012000205DF808FB00BF4DF808EDAF
:10606C00FFF7E0FF94BF012000205DF808FB00BFA4
:10607C004DF808EDFFF7CEFF94BF012000205DF82E
:10608C0008FB00BF4DF808EDFFF7C4FF34BF01203B
:10609C0000205DF808FB00BF10B5054C13462CB171
:1060AC000A4601460220AFF3008010BD2046FCE7F3
:1060BC00000000000A44914200F1FF3300D1704708
:1060CC0010B511F8014B03F8014F9142F9D110BDF5
:1060DC0002440346934200D1704703F8011BF9E7D1
:1060EC0038B50D4B1D68AB6B04467BB91820FEF719
:1060FC004BFE0A4A0A4BA863C0E90023094B836094
:10610C000B23838101220023C0E90423AB6B002203
:10611C001C615A6138BD00BF94E403200E33CDAB33
:10612C0034126DE6ECDE0500034613F8012B002A51
:10613C00FBD1181A013870471D400D0059400D0055
:10614C0081400D0085400D0000000000556E206D53
:10615C0065737361676500556E206D657373616758
:10616C00653F0073656E64696E675468726561643F
:10617C00000000000000000000000000334E0D0085
:10618C00294E0D001F4E0D00154E0D00094E0D0031
:10619C00FD4D0D009D550D00A5550D00F14D0D004B
:1061AC00E94D0D00DF4D0D00D54D0D00D5550D0001
:1061BC006170700025592D256D2D25645425483AA4
:1061CC00254D3A2553257A0061736374696D65001A
:1061DC00000000000000000031510D0021510D00A5
:1061EC0023510D00000000000000000007520D00BC
:1061FC006F520D0045520D00D94E0D0037520D0057
:10620C0009520D0019520D0069520D0029520D0052
:10621C0003520D00000000000000000069530D0047
:10622C00D5530D00AD530D00D94E0D007D530D000F
:10623C0099530D008B530D00A7530D006B530D009C
:10624C006F530D00000000000000000065540D00AD
:10625C00AF540D0087540D0067540D008F540D0082
:10626C0097540D009F540D00A7540D000000000022
:10627C00000000003F550D0035550D002B550D004D
:10628C00E1540D001F550D0013550D009D550D00CB
:10629C00A5550D0007550D00FF540D00F5540D00CC
:1062AC00EB540D00D5550D0000000000000000005F
:1062BC005D550D0067550D0071550D007B550D009A
:1062CC0085550D0091550D009D550D00A5550D00E2
:1062DC00AD550D00B9550D00C1550D00CB550D0038
:1062EC00D5550D0000000000E9480D003D4E0D0095
:1062FC00654E0D00B14E0D00994F0D00A94F0D00CC
:10630C00E14F0D0049550D00A9560D00000000008D
:04631C00000000007D
:046320000000000079
:106324000100010001000100D4610D000090D003C0
:1063340098E40320000000000000000000000000BA
:106344000000000000000000000000000000000049
:106354000000000000000000000000000000000039
:106364000000000000000000000000000000000029
:106374000000000000000000000000000000000019
:106384000000000000000000000000000000000009
:046394000000000005
:10639800FFFFFFFF00000102030405060708090AC2
:1063A8000B0C0D0E0F101112131415161718191ABD
:0863B8001B1C1D1E1F20280004
:0463C00078563412C5
:04000003D000401CCD
:00000001FF
