:02000002D0002C
:1040000000400D002C630D00000006000C000501AF
:08401000040135080000000066
:04401800BC600D007B
:10401C0009480A49884208B505D0094A824202D0AB
:10402C00121A02F003F80748074A0021121A02F08C
:10403C000BF8014808BD00BF8CE4032094620D000E
:10404C00FCE40320FCE40320F0E7032070B5074EEA
:10405C00074C00F0E9FFA41BA4080025A54200D1E1
:10406C0070BD56F8043B98470135F7E760620D00C8
:10407C0084620D0000F098B808B500F0B1F8BDE806
:10408C00084000F093BF00F03BBE00F039BE00F0DA
:10409C003FBE0078B0FA80F04009704701230370EE
:1040AC007047000010B503682F2B044604D9074A4B
:1040BC0000210A2000F088FD23681F2B83BF03F02A
:1040CC001F03034823604FF0A04010BDB5490D00FD
:1040DC000003005007B5019001A8FFF7E3FF019A18
:1040EC0001239340C0F8083503B05DF804FB10B50C
:1040FC00012303748368044643B1C06898470123C5
:10410C0063740020BDE8104000F08EBC00680028ED
:10411C00F5D083680BB901F022FBC368EEE710B54C
:10412C000446006808B100F0F3FD204610BD38B518
:10413C00046805464CB1A3681BB1032221462046F6
:10414C0098471021204601F004FB28461421BDE8B5
:10415C00384001F0FEBA10B5036804469BB15868AC
:10416C0000F03AFC78B923685A7C12B9586800F010
:10417C003BFC2368586800F03FFC20680023236058
:10418C0008B1FFF7D4FF206808B1FFF7D0FF204635
:10419C0010BD0000034B59685A68521A8242FBD377
:1041AC00704700BF001000E007B501F03DF84FF478
:1041BC00165101F02DF80521022001F073FA0221AD
:1041CC00042001F06FFA0022044900924FF0FF33F3
:1041DC00042001F055F803B05DF804FBF5440D0024
:1041EC0070470000064A28B1064910880B88034323
:1041FC009BB20B8013889BB25B009BB21380704701
:10420C008EE4032016E60320054A20B105491078F8
:10421C000B7803430B7013785B00DBB213707047A1
:10422C008CE4032014E503202DE9F843404C23686B
:10423C00052B35D8DFE803F003343406367401233C
:10424C0023602DE0DFF814813A4DD8F800002B687C
:10425C00394AC01AD2F8009001F0C6FB064648460F
:10426C000F4601F0C1FB354B002201F037FC024632
:10427C000B463046394601F0A3FE88B9D8F8003019
:10428C002B600120FFF7AEFF2D4B1B889BB23BB977
:10429C00042323602B4B2C4A1B88C3F30723137076
:1042AC00BDE8F883DFF8B480224DD8F800002B6805
:1042BC00214AC01AD2F8009001F096FB06464846F7
:1042CC000F4601F091FB1D4B002201F007FC02464A
:1042DC000B463046394601F073FE0028E0D1D8F881
:1042EC0000302B600120FFF78FFF18490B7803F08B
:1042FC00FF05002BD4D1164A16481378164FDEB2A0
:10430C000133DBB213700378DBB2BB5501230570AC
:10431C000B700D4B12781B789A42C1D105238FE795
:10432C0000F082FFBDE8F8430B4900F0C2BD00BFAE
:10433C003CE603201CE6032024E603200000F83FA3
:10434C008EE4032016E6032028E603208CE40320E9
:10435C0014E6032014E5032015E5032018E60320DA
:10436C002DE9F843504C2368013B042B19D8DFE8A6
:10437C0003F0031A275794004C484D4903680A6808
:10438C009B1A4C4A136003680B604B490B68581C12
:10439C00032B086005D9022323601368474A9B0846
:1043AC001360BDE8F883464A1368591C042B11604E
:1043BC00F7D93E4B1A68434B1A6003232360F0E78E
:1043CC00DFF8E8803F4DD8F800002B683B4AC01A54
:1043DC00D2F8009001F008FB064648460F4601F063
:1043EC0003FB394B002201F079FB02460B463046A9
:1043FC00394601F0E5FD0028D3D1D8F800302B6008
:10440C00FFF7F0FE314B1B889BB2002BC9D1042364
:10441C0023602F4B2F4A1B88C3F307231370C0E76D
:10442C00DFF88880274DD8F800002B68234AC01A83
:10443C00D2F8009001F0D8FA064648460F4601F033
:10444C00D3FA214B002201F049FB02460B463046C1
:10445C00394601F0B5FD0028A3D1D8F800302B6007
:10446C00FFF7D2FE1C490B7803F0FF05002B98D107
:10447C001A4A1B4813781B4FDEB20133DBB21370A0
:10448C000378DBB2BB55012305700B70114B12780E
:10449C001B789A4285D1052390E700F0C5FEBDE854
:1044AC00F843104900F005BD3CE6032018E6032054
:1044BC0030E603202CE6032034E6032024E6032018
:1044CC0038E603201CE603200000F83F8EE40320AE
:1044DC0016E6032028E603208CE4032014E60320D0
:1044EC0014E5032015E50320F7B5234B234D5A683B
:1044FC00234B244E1A602B78BFF35B8F13F0010F04
:10450C0009D12846FFF7C5FD28B100F01DFA30602F
:10451C002846FFF7C3FD336893F840402B78BFF370
:10452C005B8FDA074FEA441709D41448FFF7B1FD43
:10453C0028B100F009FA30601048FFF7AFFD33687E
:10454C0093F8414004F01F043C4301A80194FFF789
:10455C00A9FDD0F81035019401A8FFF7A3FD019A2D
:10456C00D0F81035D340DB0703D5FFF7F9FE03B0C5
:10457C00F0BDFFF759FEFAE7001000E000E503205C
:10458C0018E6032004E50320F7B5344D344C2B78A2
:10459C00BFF35B8F13F0010F09D12846FFF779FDAC
:1045AC0028B100F0D1F920602846FFF777FD236889
:1045BC0093F820305E012B78BFF35B8FD90709D4B9
:1045CC002648FFF766FD28B100F0BEF920602348AD
:1045DC00FFF764FD2368234F93F8213003F01F038A
:1045EC00334301A80193FFF75DFD019A012393402A
:1045FC00C0F80C353868FFF7CDFD2B78BFF35B8F17
:10460C00DA0709D41548FFF744FD28B100F09CF9EE
:10461C0020601248FFF742FD236893F820602B7846
:10462C00BFF35B8FDB074FEA461609D40B48FFF745
:10463C0030FD28B100F088F920600848FFF72EFD06
:10464C00236893F8210000F01F003043FFF742FD70
:10465C003868FFF79FFD03B0F0BD00BF00E50320F5
:10466C0004E5032020E60320F7B5344D344C2B78B9
:10467C00BFF35B8F13F0010F09D12846FFF709FD3B
:10468C0028B100F061F920602846FFF707FD236888
:10469C0093F820602B78BFF35B8FD9074FEA46164F
:1046AC0009D42648FFF7F5FC28B100F04DF920603D
:1046BC002248FFF7F3FC236893F8210000F01F0059
:1046CC003043204EFFF706FD3068FFF763FD2B7873
:1046DC00BFF35B8FDA0709D41848FFF7DAFC28B16F
:1046EC0000F032F920601548FFF7D8FC236893F8E6
:1046FC0020305F012B78BFF35B8FDB0709D40F48A9
:10470C00FFF7C7FC28B100F01FF920600B48FFF73A
:10471C00C5FC236893F8213003F01F033B4301A829
:10472C000193FFF7BFFC019A01239340C0F80C35AD
:10473C003068FFF72FFD03B0F0BD00BF00E503208C
:10474C0004E5032020E6032008B5FFF71DFFFFF763
:10475C008BFFFFF719FFFFF787FFFFF715FFFFF739
:10476C0083FFFFF711FFBDE80840FFF77DBF08B1DD
:10477C00FFF77ABFFFF708BF70B504464618B4427E
:10478C000BD000252078284100F001000135FFF7FF
:10479C00EEFF082DF6D10134F1E770BD38B50546B2
:1047AC00002445FA04F000F001000134FFF7DFFFAC
:1047BC00082CF6D138BD0000234C80B52746FFF7F6
:1047CC00C3FF7E20FFF7EAFF0020FFF7E7FF0B2077
:1047DC00FFF7E4FF1D481E4D0B21FFF7CDFF7E2098
:1047EC00FFF7DCFF2378BFF35B8F13F0010F09D1C8
:1047FC002046FFF74EFC28B100F0A6F828602046B2
:10480C00FFF74CFC2B6893F820603B78BFF35B8F71
:10481C00DB074FEA461609D42046FFF73AFC28B1CD
:10482C0000F092F828602046FFF738FC2B6893F8CC
:10483C00210000F01F003043FFF74CFC42F21070D7
:10484C0000F072FBBBE700BF00E50320D0600D0059
:10485C0004E5032037B5274D274BAB60002402201D
:10486C002C60AC80AC7100F0B7F9244A244928467E
:10487C0000F06AFF2146012000F0BEF92149142006
:10488C0000F069FF28B1C0E90044C0E90244047497
:10489C0044741D4C2060A8B11C4B83600023C36082
:1048AC004FF44063CDE9000319491A4B022204303E
:1048BC0000F08AF830B923681B7C4BB9012000F05A
:1048CC006BF8F8E720680023236008B1FFF72FFC92
:1048DC000A4A11490C4800F037FF104B104A1B686C
:1048EC00B3FBF2F24FF47A7353430E4A136003B0E6
:1048FC0030BD00BF08E503200000FFFFFCE40320EF
:10490C002B410D005C620D0040E60320C5470D00F5
:10491C00DB600D00FB400D0063410D0094E40320AF
:10492C0040420F0020E6032008B5024B1B689B6831
:10493C00019308BD6802030008B5024B1B68DB68D5
:10494C00019308BD6802030008B5024B1B681B6885
:10495C00019308BD2C02030008B5024B1B689B6831
:10496C00019308BD2C02030008B5024B1B689B6920
:10497C00019308BD2C02030008B5024B1B68DB69D0
:10498C00019308BD2C02030008B5024B1B685B6841
:10499C00019308BD1802030008B5024B1B689B6805
:1049AC00019308BD1802030008B5024B1B68DB68B5
:1049BC00019308BD1802030008B5024B1B685B6924
:1049CC00019308BD1802030008B5024B1B685B6815
:1049DC00019308BD4802030008B5024B1B689B6895
:1049EC00019308BD4802030008B5024B1B681B6904
:1049FC00019308BD4802030008B5024B1B685B69B4
:104A0C00019308BD4802030008B5024B1B685B6CA0
:104A1C00019308BD4802030008B5024B1B689B6C50
:104A2C00019308BD4802030008B5024B1B68DB6EFE
:104A3C00019308BD4802030008B5024B1B685B6973
:104A4C00019308BD6402030008B5024B1B681B6888
:104A5C00019308BD3C02030008B5024B1B68DB68E0
:104A6C00019308BD3C02030008B5024B1B681B698F
:104A7C00019308BD3C02030008B5024B1B685B693F
:104A8C00019308BD3C02030008B5024B1B689B69EF
:104A9C00019308BD3C02030008B5024B1B68DB699F
:104AAC00019308BD3C02030008B5024B1B681B6A4E
:104ABC00019308BD3C02030008B5024B1B689B6ABE
:104ACC00019308BD3C02030008B5024B1B681B6A2E
:104ADC00019308BD2802030008B5024B1B685B6AF2
:104AEC00019308BD2802030008B5024B1B689B6AA2
:104AFC00019308BD2802030008B5024B1B68DB6A52
:104B0C00019308BD2802030008B5024B1B681B6B00
:104B1C00019308BD2802030008B5024B1B685B6BB0
:104B2C00019308BD2802030008B5024B1B681B6CDF
:104B3C00019308BD2802030008B5024B1B68DB6912
:104B4C00019308BD3002030008B5024B1B681B6AB9
:104B5C00019308BD3002030008B5024B1B681B68AB
:104B6C00019308BD4C02030008B5024B1B685B683F
:104B7C00019308BD4C02030008B5024B1B681B696E
:104B8C00019308BD4C02030008B5024B1B685B691E
:104B9C00019308BD4C02030008B5024B1B689B69CE
:104BAC00019308BD4C02030008B5024B1B68DB697E
:104BBC00019308BD4C02030008B5024B1B681B6A2D
:104BCC00019308BD4C02030008B5024B1B685B6BDC
:104BDC00019308BD6002030008B5024B1B685B68BB
:104BEC00019308BD2002030008B5024B1B685B69EA
:104BFC00019308BD2002030008B5024B1B68DB6A59
:104C0C00019308BD2002030008B5034B1B68D3F8C1
:104C1C008830019308BD00002002030008B5034B47
:104C2C001B68D3F89430019308BD000020020300E8
:104C3C0008B5024B1B685B68019308BD400203007A
:104C4C0008B5024B1B689B68019308BD400203002A
:104C5C0008B5024B1B68DB68019308BD40020300DA
:104C6C0008B5024B1B681B69019308BD4002030089
:104C7C0008B5024B1B685B69019308BD4002030039
:104C8C0008B5024B1B689B69019308BD40020300E9
:104C9C0008B5024B1B68DB69019308BD4002030099
:104CAC0008B5024B1B681B6A019308BD4002030048
:104CBC0008B5024B1B681B6B019308BD4002030037
:104CCC0008B5024B1B685B6B019308BD40020300E7
:104CDC0008B5024B1B681B6C019308BD4002030016
:104CEC0008B5024B1B685B6C019308BD40020300C6
:104CFC0008B5024B1B68DB6B019308BD4402030033
:104D0C0008B5024B1B681B68019308BD1C0203000D
:104D1C0008B5024B1B685B68019308BD1C020300BD
:104D2C0008B5024B1B68DB6A019308BD1C0203002B
:104D3C0008B5024B1B685B6C019308BD1C02030099
:104D4C00002240681146FFF7ABBF002240681146B5
:104D5C00FFF7B6BF40680022FFF7AABF40680022E9
:104D6C0081F00101FFF794BF002340681A461946F1
:104D7C00FFF786BF002340681A461946FFF778BF35
:104D8C00002240681146FFF76BBF002240681146B5
:104D9C00FFF756BF406800220221FFF759BF0023DE
:104DAC0040681A46FFF744BF024B03225A60024A7E
:104DBC001A60704744E60320F4600D0010B50446F9
:104DCC0008462170FFF7B8FE00236360204610BD33
:104DDC0010B5094B094C022200201A60084B2060C8
:104DEC00A080A071A360FFF7F7FE2046054A064994
:104DFC00BDE8104000F0A8BC58E603204CE60320A8
:104E0C000000FFFFFCE403202B410D0010B504460D
:104E1C00006808B1FFF700FE204610BD10B5064C27
:104E2C00002320462360FFF7EFFD2046034A044988
:104E3C00BDE8104000F088BC5CE60320FCE40320D5
:104E4C00194E0D00F8B506460D468F180024BD42CC
:104E5C000CD0336815F8011B9B6830469847031E2D
:104E6C0001DB1C44F3E7002C08BF1C462046F8BDB0
:104E7C0013B50446084659B1019101F011F92368A4
:104E8C000199DB680246204602B0BDE81040184785
:104E9C0002B010BD03689B68184738B50D21054654
:104EAC00FFF7F8FF0A2104462846FFF7F3FF2044DA
:104EBC0038BD38B50546FFF7DBFF04462846FFF73B
:104ECC00ECFF204438BD30B58BB000238DF8243076
:104EDC00012A98BF0A2209AC0D46B1FBF2F101FB85
:104EEC00125303F0FF03092B94BF30333733DBB27B
:104EFC00AA4204F8013DEFD92146FFF7B9FF0BB0E8
:104F0C0030BD0000014B024A1A60704760E6032076
:104F1C0028610D00024B1A68024B1A60704700BFE3
:104F2C0090E4032064E603200021FFF75DBE10B57A
:104F3C008368044613B1032201469847204610BDEE
:104F4C0010B50446FFF7F3FF204610BD0348044A92
:104F5C0004490023836000F0F7BB00BF68E6032020
:104F6C00FCE403204D4F0D00014B1860704700BF4F
:104F7C0098E4032008B50B4B43B100F055F90368D6
:104F8C001B699847002801DDAFF30080064B43B145
:104F9C0000F0F4F903681B699847002801DDAFF3B2
:104FAC00008008BD000000000000000008B5FFF7FD
:104FBC00E1FFFFF701FD014B186008BDD4E70320AA
:104FCC000248034A0349121A01F030B800F40320D6
:104FDC0004F4032090620D0007B5002300931A46D9
:104FEC006FF07701FFF71AFE03B05DF804FB0000C9
:104FFC0007B543880A2B08D0502B0BD1094B1B68E3
:10500C004BB103B05DF804EB1847FFF7E5FF03B0B5
:10501C005DF804FB002300931A466FF07701FFF74D
:10502C00FDFDF4E77CE6032038B5124C1248134D15
:10503C000021FFF77DFE2368AB42114B0CBF012210
:10504C0000221A7002D0FFF7BBFF2560FFF79CFC13
:10505C00044601F001F80B4B13B12046AFF300806E
:10506C0000210848FFF744FEBDE8384006480021FF
:10507C00FFF7CABD00F40320754F0D001E1C279AC4
:10508C0078E6032000000000FD4F0D00704710B5BE
:10509C001821044600F05DFB204610BDF0B5037DE1
:1050AC00062B8DB00E4600F104074FF0000412D011
:1050BC0000F1080515F8011D0A223046FFF703FF21
:1050CC00AF42044419D0002CF4D02E213046FFF707
:1050DC00E1FE0444EEE72F236A4639460A208DF898
:1050EC000040FFF7A9FC684600F0DAFF336802467F
:1050FC00DB68694630469847044620460DB0F0BD43
:10510C0010B5054B0446112240F8043B002100F079
:10511C009BFF204610BD00BF50610D000346074A9F
:10512C0010B543F8042B01F1100251F8044B43F86D
:10513C00044B9142F9D10A781A7010BD50610D00E0
:10514C0010B59DF8084044EA032343EA024242EAC0
:10515C00016104234160037510BD13B5CB78009336
:10516C008B784A780978FFF7EBFF02B010BD4174D9
:10517C007047704708B50021007CFFF70DFD40EA31
:10518C00E07008BD08B50121007CFFF705FD40EA81
:10519C00E07008BD08B5007CFFF7F6FC20EAE07073
:1051AC0008BD08B5007CFFF7E7FC20EAE07008BDFD
:1051BC0013B50446007C0191FFF7E6FC0028019929
:1051CC0001DC607C20B1207CFFF7EEFC20EAE07073
:1051DC0002B010BD007CFFF7EFBC10B514210446E3
:1051EC0000F0B7FA204610BD10B54FF47A730446A0
:1051FC0008460021C4E90113044B236001232074E9
:10520C0063741146FFF7A8FC204610BD64610D00C5
:10521C00007C0022FFF7A8BC10B514220446002124
:10522C0000F012FF204610BD10B5104C88B003A83A
:10523C00FFF7F2FF2178BFF35B8F11F0010111D161
:10524C0020460191FEF725FF019958B103AA0848A1
:10525C00FFF7CAFF2046FEF721FF064A064904481D
:10526C0000F072FA024808B010BD00BF80E60320BF
:10527C0084E60320FCE403207F510D00004700006E
:10528C002DE9FF4100241D460F4690460646FFF7C8
:10529C0073FBA5424FF00403ADF80D408DF80C30B4
:1052AC008DF80F40A2BF9DF828308DF80E3003AC5E
:1052BC000749009443463A463046A8BF8DF80D5036
:1052CC00FFF752FBB0FA80F0400904B0BDE8F08162
:1052DC0089520D0070474174704708B5007CFFF788
:1052EC00EBFB20EAE07008BD08B5007CFFF7BCFBC7
:1052FC0020EAE07008BD08B5007CFFF7C5FB40EA6A
:10530C00E07008BD08B5007CFFF7B6FB40EAE07022
:10531C0008BD007CFFF7C0BB37B5457C04462DB1FA
:10532C00207C03B0BDE83040FFF796BB007C0191B8
:10533C00FFF7C2FB00280199F2DC284603B030BD10
:10534C0010B51421044600F004FA204610BD0000EC
:10535C0010B54FF0000C0446084611464FF47A7213
:10536C00C4E901C2044A22600122207462741A4604
:10537C00FFF76AFB204610BD94610D0013B50E4C6F
:10538C002178BFF35B8F11F0010112D120460191FE
:10539C00FEF77FFE019960B1084A094B0948FFF7F7
:1053AC00D7FF2046FEF77AFE074A0849054800F069
:1053BC00CBF9044802B010BD98E603209CE603200C
:1053CC0020E70320A4E70320FCE40320E1520D00B6
:1053DC007047F8B5064615460C468F18BC4206D0E9
:1053EC00336814F8011B9B6830469847F6E728464B
:1053FC00F8BD007C0022FFF767BB007C0021FFF7A3
:10540C006BBB007C0021FFF76FBB007C0021FFF71A
:10541C0073BB007C0021FFF777BB10B51421044649
:10542C0000F097F9204610BD10B54FF47A7304467E
:10543C0008460021C4E90113034B23602074114674
:10544C00FFF772FB204610BDC4610D0000224068BE
:10545C001146FFF705BC002240681146FFF720BC3F
:10546C00002240681146FFF72BBC40680022FFF772
:10547C001FBC4068002281F00101FFF709BC00232A
:10548C0040681A461946FFF7FBBB002340681A46D2
:10549C001946FFF7EDBB002240681146FFF7D0BB61
:1054AC00406800220221FFF7D3BB002340681A4654
:1054BC00FFF7BEBB024B04225A60024A1A607047C7
:1054CC00B8E70320EC610D00002340681A46FFF793
:1054DC00AFBB406800220221FFF7BABB0022406834
:1054EC001146FFF7ADBB002240681146FFF7B8BB71
:1054FC00002340681A461946FFF7BABB00234068E0
:10550C001A461946FFF7BCBB40680021FFF7E0BB09
:10551C0040680021FFF7E4BB4068002281F00101E4
:10552C00FFF7B6BB40680022FFF7C2BB0022406801
:10553C001146FFF7C5BB002240681146FFF7B0BB10
:10554C002DE9F043002495B016460D460746FFF7AB
:10555C00D7FD214618220EA8009400F075FD4023BB
:10556C00CDE90C3421466B460CAA3046FFF7E4F922
:10557C000446002846D1024601216868FFF770FBFB
:10558C000221804622466868FFF76AFB009E81462E
:10559C002146002E36D0002934D17368022B03D05B
:1055AC000A2B0BD0F669F4E7B8F1000F04D071693F
:1055BC0038460431FFF7D1FD4146F3E7B9F1000F4E
:1055CC0001D14946EEE77469102201A800F03CFDB8
:1055DC0006238DF8143001AD04F108031834186853
:1055EC0059682A4603C20833A3421546F7D101A9CC
:1055FC0006A807ADFFF792FD0FCD3C1D0FC42B681D
:10560C002370DEE70098FFF78FF9384615B0BDE838
:10561C00F0830000024B034A1A6000225A60704764
:10562C00C0E7032028620D00232813B502D90020FF
:10563C0002B010BDA0F10B03022B1AD8174C217825
:10564C00BFF35B8F11F001010BD120460191FEF7E6
:10565C0020FD019928B11248FFF7B0FB2046FEF758
:10566C001DFD0F4B1878FFF76FFA0028DFD10120D2
:10567C00DEE7012809D800F03FF80021007CFFF795
:10568C004BFA80F00100C0B2D2E709380128EED8FD
:10569C00FFF774FE007CFFF707FAF2E7C8E7032078
:1056AC00CCE70320232838B504460D460AD8FF2939
:1056BC0008D0FFF7B9FF28B129462046BDE838408D
:1056CC00FFF74AB938BD000038B5002320254380C8
:1056DC00142304460380856005610649284600F0C2
:1056EC003CF804496060284600F037F8E06020463A
:1056FC0038BD00BF5C620D0030B50F4D2978BFF38B
:10570C005B8F11F0010487B013D12846FEF7C1FC62
:10571C0078B101A8FFF7D8FF01AA21460748FFF787
:10572C0083FE2846FEF7BAFC054A0649034800F0FA
:10573C000BF8024807B030BDD8E70320DCE70320A4
:10574C00FCE40320DD530D000B460146184600F027
:10575C005FBCFEF79CBCFEF796BCFEF796BC08B58A
:10576C00FFF7DEFA81F0004102E000BF83F0004356
:10577C0030B54FEA41044FEA430594EA050F08BFE0
:10578C0090EA020F1FBF54EA000C55EA020C7FEAA4
:10579C00645C7FEA655C00F0E2804FEA5454D4EB21
:1057AC005555B8BF6D420CDD2C4480EA020281EAEB
:1057BC00030382EA000083EA010180EA020281EA23
:1057CC000303362D88BF30BD11F0004F4FEA013175
:1057DC004FF4801C4CEA113102D0404261EB410184
:1057EC0013F0004F4FEA03334CEA133302D052420A
:1057FC0063EB430394EA050F00F0A780A4F10104C6
:10580C00D5F1200E0DDB02FA0EFC22FA05F28018FF
:10581C0041F1000103FA0EF2801843FA05F35941E5
:10582C000EE0A5F120050EF1200E012A03FA0EFC64
:10583C0028BF4CF0020C43FA05F3C01851EBE3718E
:10584C0001F0004507D54FF0000EDCF1000C7EEBAB
:10585C0000006EEB0101B1F5801F1BD3B1F5001FE9
:10586C000CD349085FEA30004FEA3C0C04F1010408
:10587C004FEA445212F5800F80F09A80BCF1004F31
:10588C0008BF5FEA500C50F1000041EB045141EAB3
:10589C00050130BD5FEA4C0C404141EB0101013C7C
:1058AC0028BFB1F5801FE9D291F0000F04BF01466B
:1058BC000020B1FA81F308BF2033A3F10B03B3F13D
:1058CC0020020CDA0C3208DD02F1140CC2F10C02CD
:1058DC0001FA0CF021FA02F10CE002F11402D8BF2B
:1058EC00C2F1200C01FA02F120FA0CFCDCBF41EAF7
:1058FC000C019040E41AA2BF01EB0451294330BDC6
:10590C006FEA04041F3C1CDA0C340EDC04F11404A2
:10591C00C4F1200220FA04F001FA02F340EA030079
:10592C0021FA04F345EA030130BDC4F10C04C4F1BF
:10593C00200220FA02F001FA04F340EA030029469F
:10594C0030BD21FA04F0294630BD94F0000F83F4E9
:10595C00801306BF81F480110134013D4EE77FEACC
:10596C00645C18BF7FEA655C29D094EA050F08BF18
:10597C0090EA020F05D054EA000C04BF19461046F9
:10598C0030BD91EA030F1EBF0021002030BD5FEA3D
:10599C00545C05D14000494128BF41F0004130BD65
:1059AC0014F580043CBF01F5801130BD01F00045B9
:1059BC0045F0FE4141F470014FF0000030BD7FEA2C
:1059CC00645C1ABF194610467FEA655C1CBF0B4627
:1059DC00024650EA013406BF52EA033591EA030F3E
:1059EC0041F4002130BD00BF90F0000F04BF002136
:1059FC00704730B54FF4806404F132044FF0000569
:105A0C004FF0000150E700BF90F0000F04BF0021E1
:105A1C00704730B54FF4806404F1320410F0004547
:105A2C0048BF40424FF000013EE700BF42004FEA42
:105A3C00E2014FEA31014FEA02701FBF12F07F43BF
:105A4C0093F07F4F81F06051704732F07F4208BF76
:105A5C00704793F07F4F04BF41F40021704730B57D
:105A6C004FF4607401F0004521F000411CE700BFC9
:105A7C0050EA010208BF704730B54FF000050AE04C
:105A8C0050EA010208BF704730B511F0004502D54D
:105A9C00404261EB41014FF4806404F132045FEA4F
:105AAC00915C3FF4D8AE4FF003025FEADC0C18BFF8
:105ABC0003325FEADC0C18BF033202EBDC02C2F1EA
:105ACC00200300FA03FC20FA02F001FA03FE40EA7C
:105ADC000E0021FA02F11444BDE600BF70B54FF080
:105AEC00FF0C4CF4E06C1CEA11541DBF1CEA13555E
:105AFC0094EA0C0F95EA0C0F00F0DEF82C4481EAC6
:105B0C00030621EA4C5123EA4C5350EA013518BFE5
:105B1C0052EA033541F4801143F4801338D0A0FBD2
:105B2C0002CE4FF00005E1FB02E506F00042E0FB7F
:105B3C0003E54FF00006E1FB03569CF0000F18BF85
:105B4C004EF0010EA4F1FF04B6F5007F64F540742D
:105B5C0004D25FEA4E0E6D4146EB060642EAC621C0
:105B6C0041EA55514FEAC52040EA5E504FEACE2E2D
:105B7C00B4F1FD0C88BFBCF5E06F1ED8BEF1004F30
:105B8C0008BF5FEA500E50F1000041EB045170BDAC
:105B9C0006F0004646EA010140EA020081EA0301F0
:105BAC00B4EB5C04C2BFD4EB0C0541EA045170BDEC
:105BBC0041F480114FF0000E013C00F3AB8014F166
:105BCC00360FDEBF002001F0004170BDC4F10004AF
:105BDC00203C35DA0C341BDC04F11404C4F1200530
:105BEC0000FA05F320FA04F001FA05F240EA02008B
:105BFC0001F0004221F0004110EBD37021FA04F6C1
:105C0C0042EB06015EEA430E08BF20EAD37070BD7A
:105C1C00C4F10C04C4F1200500FA04F320FA05F0D9
:105C2C0001FA04F240EA020001F0004110EBD370DB
:105C3C0041F100015EEA430E08BF20EAD37070BD4B
:105C4C00C4F1200500FA05F24EEA020E20FA04F324
:105C5C0001FA05F243EA020321FA04F001F00041D3
:105C6C0021FA04F220EA020000EBD3705EEA430E44
:105C7C0008BF20EAD37070BD94F0000F0FD101F073
:105C8C000046400041EB010111F4801F08BF013CAC
:105C9C00F7D041EA060195F0000F18BF704703F0EA
:105CAC000046520043EB030313F4801F08BF013D71
:105CBC00F7D043EA0603704794EA0C0F0CEA13552D
:105CCC0018BF95EA0C0F0CD050EA410618BF52EAE7
:105CDC004306D1D181EA030101F000414FF00000ED
:105CEC0070BD50EA410606BF1046194652EA4306FB
:105CFC0019D094EA0C0F02D150EA013613D195EA6F
:105D0C000C0F05D152EA03361CBF104619460AD1B6
:105D1C0081EA030101F0004141F0FE4141F47001C0
:105D2C004FF0000070BD41F0FE4141F4780170BDB0
:105D3C0070B54FF0FF0C4CF4E06C1CEA11541DBF15
:105D4C001CEA135594EA0C0F95EA0C0F00F0A7F817
:105D5C00A4EB050481EA030E52EA03354FEA013144
:105D6C0000F088804FEA03334FF0805545EA131357
:105D7C0043EA12634FEA022245EA111545EA10651F
:105D8C004FEA00260EF000419D4208BF964244F1B6
:105D9C00FD0404F5407402D25B084FEA3202B61AD5
:105DAC0065EB03055B084FEA32024FF480104FF4A9
:105DBC00002CB6EB020E75EB030E22BFB61A75461D
:105DCC0040EA0C005B084FEA3202B6EB020E75EBB0
:105DDC00030E22BFB61A754640EA5C005B084FEA18
:105DEC003202B6EB020E75EB030E22BFB61A7546E5
:105DFC0040EA9C005B084FEA3202B6EB020E75EBF0
:105E0C00030E22BFB61A754640EADC0055EA060EB0
:105E1C0018D04FEA051545EA16754FEA06164FEAF3
:105E2C00C30343EA52734FEAC2025FEA1C1CC0D19F
:105E3C0011F4801F0BD141EA00014FF000004FF02C
:105E4C00004CB6E711F4801F04BF01430020B4F1ED
:105E5C00FD0C88BFBCF5E06F3FF6AFAEB5EB030CA5
:105E6C0004BFB6EB020C5FEA500C50F1000041EBA2
:105E7C00045170BD0EF0004E4EEA113114EB5C046F
:105E8C00C2BFD4EB0C0541EA045170BD41F4801142
:105E9C004FF0000E013C90E645EA060E8DE60CEA4A
:105EAC00135594EA0C0F08BF95EA0C0F3FF43BAF67
:105EBC0094EA0C0F0AD150EA01347FF434AF95EA1E
:105ECC000C0F7FF425AF104619462CE795EA0C0F02
:105EDC0006D152EA03353FF4FDAE1046194622E7CF
:105EEC0050EA410618BF52EA43067FF4C5AE50EAA9
:105EFC0041047FF40DAF52EA43057FF4EBAE12E799
:105F0C004FF0FF3C06E000BF4FF0010C02E000BF79
:105F1C004FF0010C4DF804CD4FEA410C7FEA6C5C5C
:105F2C004FEA430C18BF7FEA6C5C1BD001B050EAFF
:105F3C00410C0CBF52EA430C91EA030F02BF90EAEA
:105F4C00020F0020704710F1000F91EA030F58BFA9
:105F5C00994208BF90422CBFD8176FEAE37040F00B
:105F6C00010070474FEA410C7FEA6C5C02D150EAA9
:105F7C00013C07D14FEA430C7FEA6C5CD6D152EA64
:105F8C00033CD3D05DF8040B704700BF8446104629
:105F9C0062468C461946634600E000BF01B5FFF728
:105FAC00B7FF002848BF10F1000F01BD4DF808EDF8
:105FBC00FFF7F4FF0CBF012000205DF808FB00BFC9
:105FCC004DF808EDFFF7EAFF34BF012000205DF823
:105FDC0008FB00BF4DF808EDFFF7E0FF94BF012070
:105FEC0000205DF808FB00BF4DF808EDFFF7CEFF71
:105FFC0094BF012000205DF808FB00BF4DF808EDB0
:10600C00FFF7C4FF34BF012000205DF808FB00BF80
:10601C0010B5054C13462CB10A4601460220AFF3CD
:10602C00008010BD2046FCE7000000000A449142AD
:10603C0000F1FF3300D1704710B511F8014B03F894
:10604C00014F9142F9D110BD02440346934200D155
:10605C00704703F8011BF9E738B50D4B1D68AB6BA6
:10606C0004467BB91820FEF74BFE0A4A0A4BA8637C
:10607C00C0E90023094B83600B2383810122002399
:10608C00C0E90423AB6B00221C615A6138BD00BF10
:10609C0098E403200E33CDAB34126DE6ECDE050034
:1060AC00034613F8012B002AFBD1181A013870474C
:1060BC001D400D0059400D0081400D0085400D0024
:1060CC0000000000556E206D657373616765007389
:1060DC00656E64696E6754687265616400000000E7
:1060EC000000000000000000AB4D0D00A14D0D00A4
:1060FC00974D0D008D4D0D00814D0D00754D0D0012
:10610C0015550D001D550D00694D0D00614D0D000F
:10611C00574D0D004D4D0D004D550D00617070002B
:10612C0025592D256D2D25645425483A254D3A25A4
:10613C0053257A0061736374696D6500000000007B
:10614C0000000000A9500D0099500D009B500D004F
:10615C0000000000000000007F510D00E7510D0011
:10616C00BD510D00514E0D00AF510D0081510D0070
:10617C0091510D00E1510D00A1510D007B510D000D
:10618C000000000000000000E1520D004D530D0016
:10619C0025530D00514E0D00F5520D0011530D00FD
:1061AC0003530D001F530D00E3520D00E7520D0079
:1061BC000000000000000000DD530D0027540D000E
:1061CC00FF530D00DF530D0007540D000F540D004D
:1061DC0017540D001F540D000000000000000000BB
:1061EC00B7540D00AD540D00A3540D0059540D00BF
:1061FC0097540D008B540D0015550D001D550D00B9
:10620C007F540D0077540D006D540D0063540D0038
:10621C004D550D000000000000000000D5540D008D
:10622C00DF540D00E9540D00F3540D00FD540D0026
:10623C0009550D0015550D001D550D0025550D006A
:10624C0031550D0039550D0043550D004D550D00C0
:10625C000000000061480D00B54D0D00DD4D0D0036
:10626C00294E0D00114F0D00214F0D00594F0D00FF
:10627C00C1540D0021560D0000000000000000006C
:04628C00000000000E
:04629000000000000A
:106294000100010040610D000090D0039CE4032044
:1062A40000000000000000000000000000000000EA
:1062B40000000000000000000000000000000000DA
:1062C40000000000000000000000000000000000CA
:1062D40000000000000000000000000000000000BA
:1062E40000000000000000000000000000000000AA
:1062F400000000000000000000000000000000009A
:10630400FFFFFFFF00000102030405060708090A56
:106314000B0C0D0E0F101112131415161718191A51
:086324001B1C1D1E1F20280098
:04632C007856341259
:04000003D000401CCD
:00000001FF
