:02000002D0002C
:1040000000400D0050650D00000006000C00050189
:08401000040135080000000066
:04401800B0620D0085
:10401C0009480A49884208B505D0094A824202D0AB
:10402C00121A02F0FDF80748074A0021121A02F092
:10403C0005F9014808BD00BF80E40320B4640D00FD
:10404C00F4E40320F4E40320F0E7032070B5074EFA
:10405C00074C01F0DFF8A41BA4080025A54200D1F1
:10406C0070BD56F8043B98470135F7E78C640D009A
:10407C00B0640D0000F08AB808B500F079FCBDE81A
:10408C00084001F089B800F02DBF00F02BBF00F004
:10409C0031BF0078B0FA80F04009704701230370FB
:1040AC007047000010B503682F2B044604D9074A4B
:1040BC0000210A2000F07AFE23681F2B83BF03F037
:1040CC001F03034823604FF0A04010BD994B0D0017
:1040DC000003005010B5012303748368044643B1F8
:1040EC00C0689847012363740020BDE8104000F0BD
:1040FC008DBD00680028F5D083680BB901F029FC50
:10410C00C368EEE710B50446006808B100F0F2FE93
:10411C00204610BD38B5046805464CB1A3681BB1E8
:10412C0003222146204698471021204601F00BFC23
:10413C0028461421BDE8384001F005BC10B50368D1
:10414C0004469BB1586800F039FD78B923685A7C55
:10415C0012B9586800F03AFD2368586800F03EFD2B
:10416C0020680023236008B1FFF7D4FF206808B152
:10417C00FFF7D0FF204610BD034B59685A68521AFE
:10418C008242FBD3704700BF001000E007B501F07E
:10419C0041F94FF4165101F031F90521022001F0DB
:1041AC007BFB0221042001F077FB002204490092E2
:1041BC004FF0FF33042001F059F903B05DF804FB14
:1041CC00E9420D000E4A0F49002313700E4A13608A
:1041DC000E4A136001220A800D490B800D490A70AA
:1041EC000D490B700D490A800D490B800D490A7061
:1041FC000D490B700D490A700D4A1370704700BFC2
:10420C000BE6032084E4032030E6032038E6032089
:10421C0010E6032086E4032024E6032080E4032038
:10422C000CE6032082E403200EE6032087E403203F
:10423C0036E60320064A28B1064910880B8803434A
:10424C009BB20B8013889BB25B009BB213807047B0
:10425C0084E4032010E60320054A20B105491078B8
:10426C000B7803430B7013785B00DBB21370704751
:10427C0086E4032024E60320064A28B10649108868
:10428C000B8803439BB20B8013889BB25B009BB2E1
:10429C001380704780E403200CE60320054A20B10C
:1042AC00054910780B7803430B7013785B00DBB275
:1042BC001370704782E403200EE60320054A20B1F8
:1042CC00054910780B7803430B7013785B00DBB255
:1042DC001370704787E4032036E603202DE9F3477B
:1042EC00A14BA24C5B68A24E23603378A14FBFF365
:1042FC005B8F13F0010F09D13046FFF7CAFE28B1CE
:10430C0000F004FC38603046FFF7C8FE3B6893F8B9
:10431C0040503378BFF35B8FDB074FEA451809D465
:10432C009348FFF7B6FE28B100F0F0FB38609048D8
:10433C00FFF7B4FE3B68904E93F8415005F01F0513
:10434C0045EA080501A80195FFF7ACFED0F8103539
:10435C00019501A8FFF7A6FE019AD0F81035874DFC
:10436C00D34003F0010333702B68062B27D8DFE80A
:10437C0013F007000C0029005E008D00CC002D010D
:10438C003378E3B901232B6019E033783BB97C4ACD
:10439C00236811685B1A7B490B60236813607A4AA7
:1043AC0013680133072B136009D902232B60754B5B
:1043BC00764A1B689B081360754B22681A6002B022
:1043CC00BDE8F087724F20683B68704AC01AD2F87B
:1043DC0000A001F003FC80465046894601F0FEFB2C
:1043EC006C4B002201F074FC02460B4640464946D9
:1043FC0001F0E0FE0028E2D123683B60307880F0C9
:10440C000100FFF75BFF644B1B7803F0FF02002BEE
:10441C00D5D1624B1B787E2B07D02A60FFF7D2FEDA
:10442C005F4B01221A7001F04BF80323ABE7584F96
:10443C0020683B68554AC01AD2F800A001F0CEFBA8
:10444C0080465046894601F0C9FB524B002201F0D0
:10445C003FFC02460B464046494601F0ABFE0028A5
:10446C00ADD123683B60307880F00100FFF7E2FEAD
:10447C004C4B1B889BB2002BA1D104232B604A4BC5
:10448C004A4A1B88C3F30723137098E7404F2068F0
:10449C003B683E4AC01AD2F800A001F09FFB804650
:1044AC005046894601F09AFB3A4B002201F010FC71
:1044BC0002460B464046494601F07CFE00287FF43C
:1044CC007EAF23683B60307880F00100FFF7C4FEBC
:1044DC0037490B7803F0FF04002B7FF470AF354A9B
:1044EC0035481378354FDEB20133DBB213700378E5
:1044FC00DBB2BB55012304700B702C4B12781B786C
:10450C009A427FF45CAF05233DE7214F20683B685E
:10451C001E4AC01AD2F800A001F060FB804650463B
:10452C00894601F05BFB1B4B002201F0D1FB0246DC
:10453C000B464046494601F03DFE00287FF43FAF54
:10454C0023683B60307880F00100FFF795FE1C4B30
:10455C001B889BB2002B7FF432AF1A4B1A4A1B8874
:10456C009BB2138006230EE7001000E014E6032034
:10457C00F8E40320FCE4032012E603203CE60320CD
:10458C002CE6032028E6032030E6032020E6032057
:10459C0018E603200000F83F87E4032036E60320EA
:1045AC000FE6032084E4032010E6032025E6032015
:1045BC0086E403200BE6032024E603200CE503200D
:1045CC0080E403200CE6032034E603201C4F206813
:1045DC003B681C4AC01AD2F800A001F0FFFA8046D2
:1045EC005046894601F0FAFA174B002201F070FB95
:1045FC0002460B464046494601F0DCFD00287FF49C
:10460C00DEAE23683B60307880F00100FFF746FE99
:10461C000E4B1B78002B7FF4D2AE0D4B1B787E2BF0
:10462C004FF0010308D00B4A137000F049FF002330
:10463C002B60FFF7C7FDC2E6074A1370F7E700BF10
:10464C0018E6032020E603200000F83F82E4032054
:10465C000EE603200FE6032026E60320F7B5374DC0
:10466C00374C2B78BFF35B8F13F0010F09D1284621
:10467C00FFF70FFD28B100F049FA20602846FFF73C
:10468C000DFD236893F820305E012B78BFF35B8F10
:10469C00D90709D42948FFF7FCFC28B100F036FAF9
:1046AC0020602648FFF7FAFC236893F8213003F0CA
:1046BC001F03334301A80193FFF7F4FC019A214E29
:1046CC0001239340C0F80C353068FFF755FD2B786B
:1046DC00BFF35B8FDA0709D41848FFF7DAFC28B16F
:1046EC0000F014FA20601548FFF7D8FC236893F803
:1046FC0020305F012B78BFF35B8FDB0709D40F48A9
:10470C00FFF7C7FC28B100F001FA20600B48FFF757
:10471C00C5FC236893F8213003F01F033B4301A829
:10472C000193FFF7BFFC019A01239340C0F80835B1
:10473C003068FFF721FD03B0F0BD00BFF8E40320A3
:10474C00FCE403201CE60320F7B5374D374C2B78DF
:10475C00BFF35B8F13F0010F09D12846FFF799FCCB
:10476C0028B100F0D3F920602846FFF797FC2368A6
:10477C0093F820305E012B78BFF35B8FD90709D4F7
:10478C002948FFF786FC28B100F0C0F920602648C4
:10479C00FFF784FC236893F8213003F01F033343A5
:1047AC0001A80193FFF77EFC019A214E012393404F
:1047BC00C0F808353068FFF7DFFC2B78BFF35B8F50
:1047CC00DA0709D41848FFF764FC28B100F09EF909
:1047DC0020601548FFF762FC236893F820305F01D6
:1047EC002B78BFF35B8FDB0709D40F48FFF751FC25
:1047FC0028B100F08BF920600B48FFF74FFC2368C1
:10480C0093F8213003F01F033B4301A80193FFF7FA
:10481C0049FC019A01239340C0F80C353068FFF72E
:10482C00ABFC03B0F0BD00BFF8E40320FCE40320B4
:10483C001CE6032008B5FFF711FFFFF785FFFFF714
:10484C000DFFFFF781FFFFF709FFFFF77DFFFFF774
:10485C0005FFBDE80840FFF777BF08B1FFF774BF4D
:10486C00FFF7FCBE70B504464618B4420BD00025C9
:10487C002078284100F001000135FFF7EEFF082DEC
:10488C00F6D10134F1E770BD38B50546002445FA80
:10489C0004F000F001000134FFF7DFFF082CF6D123
:1048AC0038BD38B50546002445FA04F000F0010087
:1048BC000134FFF7D2FF102CF6D138BD10B50144EE
:1048CC0004464FF6FF708C420CD014F8013B83EA7F
:1048DC00102383EA131343EA00225B01DBB253403B
:1048EC0098B2F0E710BD000070B51F4E1F4D0B21A4
:1048FC003046FFF7E3FF0446FFF79CFF7E20FFF7EF
:10490C00C3FF0020FFF7C0FF0B20FFF7BDFF0B21FB
:10491C003046FFF7A7FF2046FFF7C3FF7E20FFF7C7
:10492C00B3FF4FF47A7000F0F5FB0C212846FFF72B
:10493C00C5FF0446FFF77EFF7E20FFF7A5FF002092
:10494C00FFF7A2FF0C20FFF79FFF0C212846FFF773
:10495C0089FF2046FFF7A5FF7E20FFF795FF4FF458
:10496C007A7000F0D7FBC2E7C4620D00CF620D0075
:10497C0010B5214B1A788AB300221A7000F04AFD48
:10498C001E4900F079FB00F045FD1D4900F087FB46
:10499C0000F040FD1B4900F06FFB00F03BFD1A4B93
:1049AC0019880A2289B2044600F083FB204600F0E5
:1049BC006AFB00F02FFD154900F05EFB00F02AFDAC
:1049CC00134B044619780E48FFF778FF0A2201466C
:1049DC00204600F06EFB204600F055FB0D4B1A787C
:1049EC004AB100224FF4FA701A7000F093FBBDE844
:1049FC00104000F067BD10BD26E60320DB620D0001
:104A0C000CE50320E6620D0034E60320F6620D008F
:104A1C0025E603200FE6032037B5274D274BAB6067
:104A2C00002402202C60AC80AC7100F0C7F9244A41
:104A3C002449284600F082FF2146012000F0CEF9DF
:104A4C002149142000F081FF28B1C0E90044C0E9DD
:104A5C000244047444741D4C2060A8B11C4B836048
:104A6C000023C3604FF44063CDE9000319491A4B8E
:104A7C000222043000F09AF830B923681B7C4BB941
:104A8C00012000F07BF8F8E720680023236008B1D0
:104A9C00FFF740FB0A4A11490C4800F04FFF104B3E
:104AAC00104A1B68B3FBF2F24FF47A7353430E4A6D
:104ABC00136003B030BD00BF00E503200000FFFF12
:104ACC00F4E4032011410D0088640D0040E603203E
:104ADC00F5480D0008630D00E1400D0049410D0043
:104AEC008CE4032040420F001CE6032008B5024B67
:104AFC001B689B68019308BD6802030008B5024B54
:104B0C001B68DB68019308BD6802030008B5024B03
:104B1C001B681B68019308BD2C02030008B5024BEF
:104B2C001B689B68019308BD2C02030008B5024B5F
:104B3C001B689B69019308BD2C02030008B5024B4E
:104B4C001B68DB69019308BD2C02030008B5024BFE
:104B5C001B681B6A019308BD2C02030008B5024BAD
:104B6C001B685B6A019308BD2C02030008B5024B5D
:104B7C001B685B68019308BD1802030008B5024B63
:104B8C001B689B68019308BD1802030008B5024B13
:104B9C001B68DB68019308BD1802030008B5024BC3
:104BAC001B685B69019308BD1802030008B5024B32
:104BBC001B685B68019308BD4802030008B5024BF3
:104BCC001B689B68019308BD4802030008B5024BA3
:104BDC001B681B69019308BD4802030008B5024B12
:104BEC001B685B69019308BD4802030008B5024BC2
:104BFC001B685B6C019308BD4802030008B5024BAF
:104C0C001B689B6C019308BD4802030008B5024B5E
:104C1C001B68DB6E019308BD4802030008B5024B0C
:104C2C001B685B69019308BD6402030008B5024B65
:104C3C001B681B68019308BD3C02030008B5024BBE
:104C4C001B68DB68019308BD3C02030008B5024BEE
:104C5C001B681B69019308BD3C02030008B5024B9D
:104C6C001B685B69019308BD3C02030008B5024B4D
:104C7C001B689B69019308BD3C02030008B5024BFD
:104C8C001B68DB69019308BD3C02030008B5024BAD
:104C9C001B681B6A019308BD3C02030008B5024B5C
:104CAC001B689B6A019308BD3C02030008B5024BCC
:104CBC001B681B6A019308BD2802030008B5024B50
:104CCC001B685B6A019308BD2802030008B5024B00
:104CDC001B689B6A019308BD2802030008B5024BB0
:104CEC001B68DB6A019308BD2802030008B5024B60
:104CFC001B681B6B019308BD2802030008B5024B0F
:104D0C001B685B6B019308BD2802030008B5024BBE
:104D1C001B681B6C019308BD2802030008B5024BED
:104D2C001B68DB69019308BD3002030008B5024B18
:104D3C001B681B6A019308BD3002030008B5024BC7
:104D4C001B681B68019308BD4C02030008B5024B9D
:104D5C001B685B68019308BD4C02030008B5024B4D
:104D6C001B681B69019308BD4C02030008B5024B7C
:104D7C001B685B69019308BD4C02030008B5024B2C
:104D8C001B689B69019308BD4C02030008B5024BDC
:104D9C001B68DB69019308BD4C02030008B5024B8C
:104DAC001B681B6A019308BD4C02030008B5024B3B
:104DBC001B685B6B019308BD6002030008B5024BD6
:104DCC001B685B68019308BD2002030008B5024B09
:104DDC001B685B69019308BD2002030008B5024BF8
:104DEC001B68DB6A019308BD2002030008B5034B66
:104DFC001B68D3F88830019308BD00002002030023
:104E0C0008B5034B1B68D3F89430019308BD000020
:104E1C002002030008B5024B1B685B68019308BDB8
:104E2C004002030008B5024B1B689B68019308BD48
:104E3C004002030008B5024B1B68DB68019308BDF8
:104E4C004002030008B5024B1B681B69019308BDA7
:104E5C004002030008B5024B1B685B69019308BD57
:104E6C004002030008B5024B1B689B69019308BD07
:104E7C004002030008B5024B1B68DB69019308BDB7
:104E8C004002030008B5024B1B681B6A019308BD66
:104E9C004002030008B5024B1B681B6B019308BD55
:104EAC004002030008B5024B1B685B6B019308BD05
:104EBC004002030008B5024B1B681B6C019308BD34
:104ECC004002030008B5024B1B685B6C019308BDE4
:104EDC004002030008B5024B1B68DB6B019308BD55
:104EEC004402030008B5024B1B681B68019308BD04
:104EFC001C02030008B5024B1B685B68019308BDDC
:104F0C001C02030008B5024B1B68DB6A019308BD49
:104F1C001C02030008B5024B1B685B6C019308BDB7
:104F2C001C020300002240681146FFF7ABBF0022B1
:104F3C0040681146FFF7B6BF40680022FFF7AABFD2
:104F4C004068002281F00101FFF794BF0023406804
:104F5C001A461946FFF786BF002340681A461946C1
:104F6C00FFF778BF002240681146FFF76BBF0022A5
:104F7C0040681146FFF756BF406800220221FFF738
:104F8C0059BF002340681A46FFF744BF024B032267
:104F9C005A60024A1A60704744E6032020630D00F1
:104FAC0010B5044608462170FFF7B8FE0023636075
:104FBC00204610BD10B5094B094C022200201A6086
:104FCC00084B2060A080A071A360FFF7F7FE20467D
:104FDC00054A0649BDE8104000F0B0BC58E6032075
:104FEC004CE603200000FFFFF4E4032011410D0008
:104FFC0010B50446006808B1FFF700FE204610BD4E
:10500C0010B5064C002320462360FFF7EFFD204629
:10501C00034A0449BDE8104000F090BC5CE6032054
:10502C00F4E40320FD4F0D00F8B506460D468F182D
:10503C000024BD420CD0336815F8011B9B68304628
:10504C009847031E01DB1C44F3E7002C08BF1C46E9
:10505C002046F8BD13B50446084659B1019101F03C
:10506C0019F923680199DB680246204602B0BDE8B5
:10507C001040184702B010BD08B5FFF7EBFF08BD94
:10508C0003689B68184738B50D210546FFF7F8FFF4
:10509C000A2104462846FFF7F3FF204438BD38B5F3
:1050AC000546FFF7D7FF04462846FFF7ECFF2044E0
:1050BC0038BD30B58BB000238DF82430012A98BF51
:1050CC000A2209AC0D46B1FBF2F101FB125303F0BD
:1050DC00FF03092B94BF30333733DBB2AA4204F8F9
:1050EC00013DEFD92146FFF7B5FF0BB030BD0000F5
:1050FC00014B024A1A60704760E6032054630D00AE
:10510C00024B1A68024B1A60704700BF88E40320F8
:10511C0064E603200021FFF759BE10B583680446EE
:10512C0013B1032201469847204610BD10B5044622
:10513C00FFF7F3FF204610BD0348044A044900233F
:10514C00836000F0FBBB00BF68E60320F4E403209F
:10515C0039510D00014B1860704700BF90E40320DB
:10516C0008B50B4B43B100F055F903681B69984720
:10517C00002801DDAFF30080064B43B100F0F8F9D5
:10518C0003681B699847002801DDAFF3008008BD58
:10519C00000000000000000008B5FFF7E1FFFFF77A
:1051AC00FDFC014B186008BDD4E703200248034AFC
:1051BC000349121A01F034B800F4032004F403205C
:1051CC00B0640D0007B5002300931A466FF0770109
:1051DC00FFF716FE03B05DF804FB000007B543882B
:1051EC000A2B08D0502B0BD1094B1B684BB103B0C9
:1051FC005DF804EB1847FFF7E5FF03B05DF804FB1F
:10520C00002300931A466FF07701FFF7F9FDF4E7DE
:10521C007CE6032038B5124C1248134D0021FFF7E1
:10522C0079FE2368AB42114B0CBF012200221A708D
:10523C0002D0FFF7BBFF2560FFF798FC044601F096
:10524C0005F80B4B13B12046AFF300800021084842
:10525C00FFF740FEBDE8384006480021FFF7C6BD09
:10526C0000F4032061510D001E1C279A78E60320E0
:10527C0000000000E9510D00704710B518210446DC
:10528C0000F061FB204610BDF0B5037D062B8DB000
:10529C000E4600F104074FF0000412D000F108058F
:1052AC0015F8011D0A223046FFF703FFAF420444F4
:1052BC0019D0002CF4D02E213046FFF7E1FE044427
:1052CC00EEE72F236A4639460A208DF80040FFF797
:1052DC00A5FC684600F0DEFF33680246DB686946D1
:1052EC0030469847044620460DB0F0BD10B5054B2E
:1052FC000446112240F8043B002100F09FFF204699
:10530C0010BD00BF7C630D000346074A10B543F87F
:10531C00042B01F1100251F8044B43F8044B914259
:10532C00F9D10A781A7010BD7C630D0010B59DF888
:10533C00084044EA032343EA024242EA016104239F
:10534C004160037510BD13B5CB7800938B784A7808
:10535C000978FFF7EBFF02B010BD4174704770473E
:10536C0008B50021007CFFF709FD40EAE07008BD9C
:10537C0008B50121007CFFF701FD40EAE07008BD93
:10538C0008B5007CFFF7F2FC20EAE07008BD08B518
:10539C00007CFFF7E3FC20EAE07008BD13B504467F
:1053AC00007C0191FFF7E2FC0028019901DC607C94
:1053BC0020B1207CFFF7EAFC20EAE07002B010BDBF
:1053CC00007CFFF7EBBC10B51421044600F0BBFACF
:1053DC00204610BD10B54FF47A73044608460021E0
:1053EC00C4E90113044B2360012320746374114638
:1053FC00FFF7A4FC204610BD90630D00007C00223A
:10540C00FFF7A4BC10B514220446002100F016FFCF
:10541C00204610BD10B5104C88B003A8FFF7F2FF62
:10542C002178BFF35B8F11F0010111D1204601915E
:10543C00FEF72FFE019958B103AA0848FFF7CAFFDF
:10544C002046FEF72BFE064A0649044800F076FA81
:10545C00024808B010BD00BF80E6032084E603209C
:10546C00F4E403206B530D00004700002DE9FF41CD
:10547C0000241D460F4690460646FFF75FFBA542EB
:10548C004FF00403ADF80D408DF80C308DF80F4043
:10549C00A2BF9DF828308DF80E3003AC074900945C
:1054AC0043463A463046A8BF8DF80D50FFF73EFBF9
:1054BC00B0FA80F0400904B0BDE8F08175540D00DD
:1054CC00FFF74CBBFFF742BB70474174704708B500
:1054DC00007CFFF7E3FB20EAE07008BD08B5007C18
:1054EC00FFF7B4FB20EAE07008BD08B5007CFFF7BD
:1054FC00BDFB40EAE07008BD08B5007CFFF7AEFBD1
:10550C0040EAE07008BD007CFFF7B8BB37B5457CBE
:10551C0004462DB1207C03B0BDE83040FFF78EBBB4
:10552C00007C0191FFF7BAFB00280199F2DC2846B8
:10553C0003B030BD10B51421044600F004FA204627
:10554C0010BD000010B54FF0000C04460846114683
:10555C004FF47A72C4E901C2044A22600122207419
:10556C0062741A46FFF762FB204610BDC0630D0043
:10557C0013B50E4C2178BFF35B8F11F0010112D1E2
:10558C0020460191FEF785FD019960B1084A094B4F
:10559C000948FFF7D7FF2046FEF780FD074A084968
:1055AC00054800F0CBF9044802B010BD98E6032082
:1055BC009CE6032020E70320A4E70320F4E4032067
:1055CC00D5540D007047F8B5064615460C468F1895
:1055DC00BC4206D0336814F8011B9B6830469847D0
:1055EC00F6E72846F8BD007C0022FFF75FBB007C85
:1055FC000021FFF763BB007C0021FFF767BB007C39
:10560C000021FFF76BBB007C0021FFF76FBB10B5CF
:10561C001421044600F097F9204610BD10B54FF444
:10562C007A73044608460021C4E90113034B236036
:10563C0020741146FFF76AFB204610BDF0630D0085
:10564C00002240681146FFF7FDBB0022406811465E
:10565C00FFF718BC002240681146FFF723BC4068D6
:10566C000022FFF717BC4068002281F00101FFF710
:10567C0001BC002340681A461946FFF7F3BB002310
:10568C0040681A461946FFF7E5BB002240681146F0
:10569C00FFF7C8BB406800220221FFF7CBBB0023F9
:1056AC0040681A46FFF7B6BB024B04225A60024A06
:1056BC001A607047B8E7032018640D000023406897
:1056CC001A46FFF7A7BB406800220221FFF7B2BBC6
:1056DC00002240681146FFF7A5BB00224068114626
:1056EC00FFF7B0BB002340681A461946FFF7B2BB60
:1056FC00002340681A461946FFF7B4BB40680021E6
:10570C00FFF7D8BB40680021FFF7DCBB40680022E4
:10571C0081F00101FFF7AEBB40680022FFF7BABB76
:10572C00002240681146FFF7BDBB002240681146BD
:10573C00FFF7A8BB2DE9F043002495B016460D46A3
:10574C000746FFF7D3FD214618220EA8009400F05F
:10575C0075FD4023CDE90C3421466B460CAA30462E
:10576C00FFF7CCF90446002846D1024601216868AF
:10577C00FFF768FB0221804622466868FFF762FB50
:10578C00009E81462146002E36D0002934D1736804
:10579C00022B03D00A2B0BD0F669F4E7B8F1000FFB
:1057AC0004D0716938460431FFF7CDFD4146F3E76B
:1057BC00B9F1000F01D14946EEE77469102201A836
:1057CC0000F03CFD06238DF8143001AD04F1080304
:1057DC001834186859682A4603C20833A342154680
:1057EC00F7D101A906A807ADFFF78EFD0FCD3C1D23
:1057FC000FC42B682370DEE70098FFF777F9384663
:10580C0015B0BDE8F0830000024B034A1A60002279
:10581C005A607047C0E7032054640D00232813B569
:10582C0002D9002002B010BDA0F10B03022B1AD834
:10583C00174C2178BFF35B8F11F001010BD120467F
:10584C000191FEF726FC019928B11248FFF7A8FB3D
:10585C002046FEF723FC0F4B1878FFF767FA002859
:10586C00DFD10120DEE7012809D800F03FF8002144
:10587C00007CFFF743FA80F00100C0B2D2E7093890
:10588C000128EED8FFF774FE007CFFF7FFF9F2E772
:10589C00C8E70320CCE70320232838B504460D467F
:1058AC000AD8FF2908D0FFF7B9FF28B129462046AE
:1058BC00BDE83840FFF732B938BD000038B50023D9
:1058CC002025438014230446038085600561064926
:1058DC00284600F03CF804496060284600F037F890
:1058EC00E060204638BD00BF88640D0030B50F4D18
:1058FC002978BFF35B8F11F0010487B013D12846D0
:10590C00FEF7C7FB78B101A8FFF7D8FF01AA214623
:10591C000748FFF783FE2846FEF7C0FB054A0649F9
:10592C00034800F00BF8024807B030BDD8E703205D
:10593C00DCE70320F4E40320D1550D000B460146AF
:10594C00184600F05FBCFEF7A2BBFEF79CBBFEF74F
:10595C009CBB08B5FFF7D6FA81F0004102E000BF0E
:10596C0083F0004330B54FEA41044FEA430594EA13
:10597C00050F08BF90EA020F1FBF54EA000C55EA4E
:10598C00020C7FEA645C7FEA655C00F0E2804FEA1F
:10599C005454D4EB5555B8BF6D420CDD2C4480EA01
:1059AC00020281EA030382EA000083EA010180EA31
:1059BC00020281EA0303362D88BF30BD11F0004F7F
:1059CC004FEA01314FF4801C4CEA113102D04042B5
:1059DC0061EB410113F0004F4FEA03334CEA1333F0
:1059EC0002D0524263EB430394EA050F00F0A78008
:1059FC00A4F10104D5F1200E0DDB02FA0EFC22FA03
:105A0C0005F2801841F1000103FA0EF2801843FAF6
:105A1C0005F359410EE0A5F120050EF1200E012AE7
:105A2C0003FA0EFC28BF4CF0020C43FA05F3C01825
:105A3C0051EBE37101F0004507D54FF0000EDCF19E
:105A4C00000C7EEB00006EEB0101B1F5801F1BD347
:105A5C00B1F5001F0CD349085FEA30004FEA3C0C4B
:105A6C0004F101044FEA445212F5800F80F09A8041
:105A7C00BCF1004F08BF5FEA500C50F1000041EB45
:105A8C00045141EA050130BD5FEA4C0C404141EB49
:105A9C000101013C28BFB1F5801FE9D291F0000F44
:105AAC0004BF01460020B1FA81F308BF2033A3F1F3
:105ABC000B03B3F120020CDA0C3208DD02F1140CEA
:105ACC00C2F10C0201FA0CF021FA02F10CE002F125
:105ADC001402D8BFC2F1200C01FA02F120FA0CFC1E
:105AEC00DCBF41EA0C019040E41AA2BF01EB045167
:105AFC00294330BD6FEA04041F3C1CDA0C340EDC65
:105B0C0004F11404C4F1200220FA04F001FA02F3A7
:105B1C0040EA030021FA04F345EA030130BDC4F165
:105B2C000C04C4F1200220FA02F001FA04F340EA5A
:105B3C000300294630BD21FA04F0294630BD94F00B
:105B4C00000F83F4801306BF81F480110134013DF2
:105B5C004EE77FEA645C18BF7FEA655C29D094EA63
:105B6C00050F08BF90EA020F05D054EA000C04BFE1
:105B7C001946104630BD91EA030F1EBF00210020CC
:105B8C0030BD5FEA545C05D14000494128BF41F06B
:105B9C00004130BD14F580043CBF01F5801130BDCF
:105BAC0001F0004545F0FE4141F470014FF000005A
:105BBC0030BD7FEA645C1ABF194610467FEA655C0B
:105BCC001CBF0B46024650EA013406BF52EA0335AD
:105BDC0091EA030F41F4002130BD00BF90F0000F9B
:105BEC0004BF0021704730B54FF4806404F13204D7
:105BFC004FF000054FF0000150E700BF90F0000F90
:105C0C0004BF0021704730B54FF4806404F13204B6
:105C1C0010F0004548BF40424FF000013EE700BF86
:105C2C0042004FEAE2014FEA31014FEA02701FBF16
:105C3C0012F07F4393F07F4F81F06051704732F048
:105C4C007F4208BF704793F07F4F04BF41F400219F
:105C5C00704730B54FF4607401F0004521F00041FD
:105C6C001CE700BF50EA010208BF704730B54FF087
:105C7C0000050AE050EA010208BF704730B511F088
:105C8C00004502D5404261EB41014FF4806404F1C0
:105C9C0032045FEA915C3FF4D8AE4FF003025FEA46
:105CAC00DC0C18BF03325FEADC0C18BF033202EBCA
:105CBC00DC02C2F1200300FA03FC20FA02F001FA24
:105CCC0003FE40EA0E0021FA02F11444BDE600BFC7
:105CDC0070B54FF0FF0C4CF4E06C1CEA11541DBF76
:105CEC001CEA135594EA0C0F95EA0C0F00F0DEF841
:105CFC002C4481EA030621EA4C5123EA4C5350EA26
:105D0C00013518BF52EA033541F4801143F4801376
:105D1C0038D0A0FB02CE4FF00005E1FB02E506F007
:105D2C000042E0FB03E54FF00006E1FB03569CF05C
:105D3C00000F18BF4EF0010EA4F1FF04B6F5007F62
:105D4C0064F5407404D25FEA4E0E6D4146EB0606D4
:105D5C0042EAC62141EA55514FEAC52040EA5E505D
:105D6C004FEACE2EB4F1FD0C88BFBCF5E06F1ED807
:105D7C00BEF1004F08BF5FEA500E50F1000041EB3E
:105D8C00045170BD06F0004646EA010140EA0200EB
:105D9C0081EA0301B4EB5C04C2BFD4EB0C0541EA0D
:105DAC00045170BD41F480114FF0000E013C00F322
:105DBC00AB8014F1360FDEBF002001F0004170BD46
:105DCC00C4F10004203C35DA0C341BDC04F114045F
:105DDC00C4F1200500FA05F320FA04F001FA05F2EB
:105DEC0040EA020001F0004221F0004110EBD370B8
:105DFC0021FA04F642EB06015EEA430E08BF20EAE4
:105E0C00D37070BDC4F10C04C4F1200500FA04F386
:105E1C0020FA05F001FA04F240EA020001F0004118
:105E2C0010EBD37041F100015EEA430E08BF20EA8B
:105E3C00D37070BDC4F1200500FA05F24EEA020ED3
:105E4C0020FA04F301FA05F243EA020321FA04F002
:105E5C0001F0004121FA04F220EA020000EBD370B9
:105E6C005EEA430E08BF20EAD37070BD94F0000FB9
:105E7C000FD101F00046400041EB010111F4801FED
:105E8C0008BF013CF7D041EA060195F0000F18BF9E
:105E9C00704703F00046520043EB030313F4801FDA
:105EAC0008BF013DF7D043EA0603704794EA0C0F94
:105EBC000CEA135518BF95EA0C0F0CD050EA4106AA
:105ECC0018BF52EA4306D1D181EA030101F0004127
:105EDC004FF0000070BD50EA410606BF104619464F
:105EEC0052EA430619D094EA0C0F02D150EA01365B
:105EFC0013D195EA0C0F05D152EA03361CBF10469C
:105F0C0019460AD181EA030101F0004141F0FE413A
:105F1C0041F470014FF0000070BD41F0FE4141F4BE
:105F2C00780170BD70B54FF0FF0C4CF4E06C1CEABE
:105F3C0011541DBF1CEA135594EA0C0F95EA0C0F73
:105F4C0000F0A7F8A4EB050481EA030E52EA03352E
:105F5C004FEA013100F088804FEA03334FF080554F
:105F6C0045EA131343EA12634FEA022245EA11157C
:105F7C0045EA10654FEA00260EF000419D4208BF2D
:105F8C00964244F1FD0404F5407402D25B084FEADA
:105F9C003202B61A65EB03055B084FEA32024FF486
:105FAC0080104FF4002CB6EB020E75EB030E22BFE3
:105FBC00B61A754640EA0C005B084FEA3202B6EBA3
:105FCC00020E75EB030E22BFB61A754640EA5C0052
:105FDC005B084FEA3202B6EB020E75EB030E22BFE2
:105FEC00B61A754640EA9C005B084FEA3202B6EBE3
:105FFC00020E75EB030E22BFB61A754640EADC00A2
:10600C0055EA060E18D04FEA051545EA16754FEA03
:10601C0006164FEAC30343EA52734FEAC2025FEA21
:10602C001C1CC0D111F4801F0BD141EA00014FF0B0
:10603C0000004FF0004CB6E711F4801F04BF014381
:10604C000020B4F1FD0C88BFBCF5E06F3FF6AFAE9D
:10605C00B5EB030C04BFB6EB020C5FEA500C50F12D
:10606C00000041EB045170BD0EF0004E4EEA1131B0
:10607C0014EB5C04C2BFD4EB0C0541EA045170BDB7
:10608C0041F480114FF0000E013C90E645EA060EFB
:10609C008DE60CEA135594EA0C0F08BF95EA0C0F29
:1060AC003FF43BAF94EA0C0F0AD150EA01347FF471
:1060BC0034AF95EA0C0F7FF425AF104619462CE748
:1060CC0095EA0C0F06D152EA03353FF4FDAE1046AB
:1060DC00194622E750EA410618BF52EA43067FF4FC
:1060EC00C5AE50EA41047FF40DAF52EA43057FF48C
:1060FC00EBAE12E74FF0FF3C06E000BF4FF0010C97
:10610C0002E000BF4FF0010C4DF804CD4FEA410CFA
:10611C007FEA6C5C4FEA430C18BF7FEA6C5C1BD0C7
:10612C0001B050EA410C0CBF52EA430C91EA030F48
:10613C0002BF90EA020F0020704710F1000F91EAA5
:10614C00030F58BF994208BF90422CBFD8176FEA73
:10615C00E37040F0010070474FEA410C7FEA6C5C41
:10616C0002D150EA013C07D14FEA430C7FEA6C5C48
:10617C00D6D152EA033CD3D05DF8040B704700BF74
:10618C008446104662468C461946634600E000BFC2
:10619C0001B5FFF7B7FF002848BF10F1000F01BD94
:1061AC004DF808EDFFF7F4FF0CBF012000205DF85F
:1061BC0008FB00BF4DF808EDFFF7EAFF34BF0120E4
:1061CC0000205DF808FB00BF4DF808EDFFF7E0FF7D
:1061DC0094BF012000205DF808FB00BF4DF808EDCE
:1061EC00FFF7CEFF94BF012000205DF808FB00BF35
:1061FC004DF808EDFFF7C4FF34BF012000205DF817
:10620C0008FB00BF10B5054C13462CB10A460146DD
:10621C000220AFF3008010BD2046FCE70000000018
:10622C000A44914200F1FF3300D1704710B511F8C8
:10623C00014B03F8014F9142F9D110BD02440346C2
:10624C00934200D1704703F8011BF9E738B50D4BA9
:10625C001D68AB6B04467BB91820FEF743FE0A4A57
:10626C000A4BA863C0E90023094B83600B2383818D
:10627C0001220023C0E90423AB6B00221C615A618C
:10628C0038BD00BF90E403200E33CDAB34126DE665
:10629C00ECDE0500034613F8012B002AFBD1181A7B
:1062AC00013870471D400D0059400D0081400D0014
:1062BC0085400D0000000000556E206D6573736104
:1062CC00676500556E206D6573736167653F004DA2
:1062DC00657373616765203A200052656365697662
:1062EC00656420437263203A200043616C63756CD3
:1062FC006174656420437263203A200073656E6498
:10630C00696E6754687265616400000000000000EB
:10631C00000000008F4F0D00854F0D007B4F0D00CE
:10632C00714F0D00654F0D00594F0D0009570D00B1
:10633C0011570D004D4F0D00454F0D003B4F0D00FB
:10634C00314F0D0041570D006170700025592D25FE
:10635C006D2D25645425483A254D3A2553257A0050
:10636C0061736374696D650000000000000000003B
:10637C0095520D0085520D0087520D000000000053
:10638C00000000006B530D00D3530D00A9530D00FA
:10639C0035500D009B530D006D530D007D530D00BA
:1063AC00CD530D008D530D0067530D000000000000
:1063BC0000000000D5540D0041550D0019550D007D
:1063CC0035500D00E9540D0005550D00F7540D0026
:1063DC0013550D00D7540D00DB540D0000000000C8
:1063EC0000000000D1550D001B560D00F3550D009B
:1063FC00D3550D00FB550D0003560D000B560D002B
:10640C0013560D000000000000000000AB560D00FC
:10641C00A1560D0097560D004D560D008B560D00D4
:10642C007F560D0009570D0011570D0073560D00C6
:10643C006B560D0061560D0057560D0041570D005F
:10644C000000000000000000C9560D00D3560D00DE
:10645C00DD560D00E7560D00F1560D00FD560D00F2
:10646C0009570D0011570D0019570D0025570D0038
:10647C002D570D0037570D0041570D00000000003F
:10648C00254A0D00994F0D00C14F0D000D500D0008
:10649C00FD500D000D510D0045510D00B5560D0070
:0464AC0015580D0072
:0464B00000000000E8
:1064B40001000100010001016C630D000090D00394
:1064C40094E403200000000000000000000000002D
:1064D40000000000000000000000000000000000B8
:1064E40000000000000000000000000000000000A8
:1064F4000000000000000000000000000000000098
:106504000000000000000000000000000000000087
:106514000000000000000000000000000000000077
:046524000000000073
:10652800FFFFFFFF00000102030405060708090A30
:106538000B0C0D0E0F101112131415161718191A2B
:086548001B1C1D1E1F20280072
:046550007856341233
:04000003D000401CCD
:00000001FF
