:02000002D0002C
:1040000000400D008C630D00000006000C0005014F
:08401000040135080000000066
:044018002C610D000A
:10401C0009480A49884208B505D0094A824202D0AB
:10402C00121A02F03BF80748074A0021121A02F054
:10403C0043F8014808BD00BF8CE40320F4620D0076
:10404C00FCE40320FCE40320F0E7032070B5074EEA
:10405C00074C01F021F8A41BA4080025A54200D1AF
:10406C0070BD56F8043B98470135F7E7C4620D0064
:10407C00E8620D0000F098B808B500F0B1F8BDE8A2
:10408C00084000F0CBBF00F073BE00F071BE00F032
:10409C0077BE0078B0FA80F04009704701230370B6
:1040AC007047000010B503682F2B044604D9074A4B
:1040BC0000210A2000F0C0FD23681F2B83BF03F0F2
:1040CC001F03034823604FF0A04010BD254A0D008C
:1040DC000003005007B5019001A8FFF7E3FF019A18
:1040EC0001239340C0F8083503B05DF804FB10B50C
:1040FC00012303748368044643B1C06898470123C5
:10410C0063740020BDE8104000F0C6BC00680028B5
:10411C00F5D083680BB901F05AFBC368EEE710B514
:10412C000446006808B100F02BFE204610BD38B5DF
:10413C00046805464CB1A3681BB1032221462046F6
:10414C0098471021204601F03CFB28461421BDE87D
:10415C00384001F036BB10B5036804469BB1586873
:10416C0000F072FC78B923685A7C12B9586800F0D8
:10417C0073FC2368586800F077FC206800232360E8
:10418C0008B1FFF7D4FF206808B1FFF7D0FF204635
:10419C0010BD0000034B59685A68521A8242FBD377
:1041AC00704700BF001000E007B501F075F84FF440
:1041BC00165101F065F80521022001F0ABFA02213D
:1041CC00042001F0A7FA0022044900924FF0FF33BB
:1041DC00042001F08DF803B05DF804FBF1440D00F0
:1041EC0070470000064A28B1064910880B88034323
:1041FC009BB20B8013889BB25B009BB21380704701
:10420C008EE4032016E60320054A20B105491078F8
:10421C000B7803430B7013785B00DBB213707047A1
:10422C008CE4032014E503202DE9F8433F4C23686C
:10423C00052B34D8DFE803F0033333063573012341
:10424C0023602CE0DFF81081394DD8F800002B6882
:10425C00384AC01AD2F8009001F0FEFB06464846D8
:10426C000F4601F0F9FB344B002201F06FFC0246C3
:10427C000B463046394601F0DBFE80B9D8F80030E9
:10428C002B600120FFF7AEFF2C4B1B889BB233B980
:10429C00042323602A4B2B4A1B88DBB21370BDE826
:1042AC00F883DFF8B480224DD8F800002B68214A3F
:1042BC00C01AD2F8009001F0CFFB064648460F46D4
:1042CC0001F0CAFB1C4B002201F040FC02460B46DD
:1042DC003046394601F0ACFE0028E0D1D8F8003069
:1042EC002B600120FFF790FF17490B7803F0FF05B7
:1042FC00002BD4D1154A16481378164FDEB2013371
:10430C00DBB213700378DBB2BB55012305700B7065
:10431C000C4B12781B789A42C1D1052390E700F020
:10432C00BBFFBDE8F8430B4900F0FBBD3CE60320A6
:10433C001CE6032024E603200000F83F8EE4032053
:10434C0016E6032028E603208CE4032014E6032061
:10435C0014E5032015E5032018E603202DE9F843A6
:10436C00504C2368013B042B19D8DFE803F0031AE7
:10437C00275693004C484D4903680A689B1A4C4ACF
:10438C00136003680B604B490B68581C032B0860C7
:10439C0005D9022323601368474A9B081360BDE8C4
:1043AC00F883464A1368591C042B1160F7D93E4B0D
:1043BC001A68434B1A6003232360F0E7DFF8E880A8
:1043CC003F4DD8F800002B683B4AC01AD2F8009039
:1043DC0001F042FB064648460F4601F03DFB394BC7
:1043EC00002201F0B3FB02460B463046394601F081
:1043FC001FFE0028D3D1D8F800302B60FFF7F2FE57
:10440C00314B1B889BB2002BC9D1042323602F4B4B
:10441C002F4A1B88DBB21370C1E7DFF88C80284D64
:10442C00D8F800002B68244AC01AD2F8009001F08A
:10443C0013FB064648460F4601F00EFB214B0022AB
:10444C0001F084FB02460B463046394601F0F0FD84
:10445C000028A4D1D8F800302B60FFF7D5FE1D49F9
:10446C000B7803F0FF05002B99D11B4A1B481378DE
:10447C001B4FDEB20133DBB213700378DBB2BB55DA
:10448C00012305700B70124B12781B789A4286D15F
:10449C00052391E700F000FFBDE8F843104900F058
:1044AC0040BD00BF3CE6032018E6032030E60320A5
:1044BC002CE6032034E6032024E6032038E6032010
:1044CC001CE603200000F83F8EE4032016E60320D0
:1044DC0028E603208CE4032014E6032014E50320D3
:1044EC0015E50320F7B5234B234D5A68234B244E77
:1044FC001A602B78BFF35B8F13F0010F09D128469C
:10450C00FFF7C7FD28B100F057FA30602846FFF7D7
:10451C00C5FD336893F840402B78BFF35B8FDA0707
:10452C004FEA441709D41448FFF7B3FD28B100F043
:10453C0043FA30601048FFF7B1FD336893F84140FF
:10454C0004F01F043C4301A80194FFF7ABFDD0F825
:10455C001035019401A8FFF7A5FD019AD0F810358C
:10456C00D340DB0703D5FFF7F9FE03B0F0BDFFF72F
:10457C005BFEFAE7001000E000E5032018E60320DC
:10458C0004E50320F7B5344D344C2B78BFF35B8F27
:10459C0013F0010F09D12846FFF77BFD28B100F07D
:1045AC000BFA20602846FFF779FD236893F820303A
:1045BC005E012B78BFF35B8FD90709D42648FFF730
:1045CC0068FD28B100F0F8F920602348FFF766FD7C
:1045DC002368234F93F8213003F01F03334301A8C2
:1045EC000193FFF75FFD019A01239340C0F80C354E
:1045FC003868FFF7CFFD2B78BFF35B8FDA0709D450
:10460C001548FFF746FD28B100F0D6F92060124896
:10461C00FFF744FD236893F820602B78BFF35B8F82
:10462C00DB074FEA461609D40B48FFF732FD28B1D9
:10463C0000F0C2F920600848FFF730FD236893F8BA
:10464C00210000F01F003043FFF744FD3868FFF7EE
:10465C00A1FD03B0F0BD00BF00E5032004E503207D
:10466C0020E60320F7B5344D344C2B78BFF35B8F29
:10467C0013F0010F09D12846FFF70BFD28B100F00C
:10468C009BF920602846FFF709FD236893F820600A
:10469C002B78BFF35B8FD9074FEA461609D426480F
:1046AC00FFF7F7FC28B100F087F920602248FFF7EC
:1046BC00F5FC236893F8210000F01F003043204ED6
:1046CC00FFF708FD3068FFF765FD2B78BFF35B8FB4
:1046DC00DA0709D41848FFF7DCFC28B100F06CF9B4
:1046EC0020601548FFF7DAFC236893F820305F014F
:1046FC002B78BFF35B8FDB0709D40F48FFF7C9FC9E
:10470C0028B100F059F920600B48FFF7C7FC23686B
:10471C0093F8213003F01F033B4301A80193FFF7EB
:10472C00C1FC019A01239340C0F80C353068FFF7A7
:10473C0031FD03B0F0BD00BF00E5032004E503200C
:10474C0020E6032008B5FFF71DFFFFF71BFFFFF75F
:10475C0089FFFFF717FFFFF785FFFFF783FFFFF7D1
:10476C0011FFFFF70FFFFFF70DFFFFF77BFFFFF7C1
:10477C0009FFFFF707FFFFF775FFFFF773FFFFF761
:10478C0001FFFFF7FFFEFFF7FDFEFFF7FBFEFFF754
:10479C00F9FEFFF7F7FEFFF7F5FEFFF7F3FEFFF765
:1047AC00F1FEBDE80840FFF7EDBE08B5FFF75AFF74
:1047BC00FFF758FFFFF7E6FEFFF7E4FEFFF7E2FE18
:1047CC00FFF7E0FEFFF7DEFEFFF7DCFEFFF7DAFE99
:1047DC00FFF7D8FEFFF7D6FEFFF7D4FEFFF7D2FEA9
:1047EC00FFF7D0FEFFF73EFFBDE80840FFF7CABE5B
:1047FC0008B5FFF7C7FEFFF735FFFFF7C3FEFFF75E
:10480C0031FFFFF7BFFEFFF72DFFFFF7BBFEBDE843
:10481C000840FFF727BF08B5FFF7B4FEFFF722FFEC
:10482C00FFF720FFFFF71EFFFFF71CFFFFF71AFF34
:10483C00FFF718FFBDE80840FFF7A4BE1F4C204D42
:10484C0080B52746FFF7D4FFFFF7E5FF01210846A7
:10485C00FFF7ABFFFFF776FFFFF7DDFF2378BFF322
:10486C005B8FDA0709D42046FFF713FC28B100F060
:10487C00A3F828602046FFF711FC2B6893F8206002
:10488C003B78BFF35B8FDB074FEA461609D4204613
:10489C00FFF7FFFB28B100F08FF828602046FFF7E8
:1048AC00FDFB2B6893F8210000F01F003043FFF74D
:1048BC0011FC42F2107000F06FFBC3E700E503201F
:1048CC0004E5032037B5274D274BAB6000240220AD
:1048DC002C60AC80AC7100F0B7F9244A244928460E
:1048EC0000F06AFF2146012000F0BEF92149142096
:1048FC0000F069FF28B1C0E90044C0E90244047427
:10490C0044741D4C2060A8B11C4B83600023C36011
:10491C004FF44063CDE9000319491A4B02220430CD
:10492C0000F08AF830B923681B7C4BB9012000F0E9
:10493C006BF8F8E720680023236008B1FFF7F7FB5A
:10494C000A4A11490C4800F037FF104B104A1B68FB
:10495C00B3FBF2F24FF47A7353430E4A136003B075
:10496C0030BD00BF08E503200000FFFFFCE403207E
:10497C002B410D00C0620D0040E6032049480D009C
:10498C0040610D00FB400D0063410D0094E40320D9
:10499C0040420F0020E6032008B5024B1B689B68C1
:1049AC00019308BD6802030008B5024B1B68DB6865
:1049BC00019308BD6802030008B5024B1B681B6815
:1049CC00019308BD2C02030008B5024B1B689B68C1
:1049DC00019308BD2C02030008B5024B1B689B69B0
:1049EC00019308BD2C02030008B5024B1B68DB6960
:1049FC00019308BD2C02030008B5024B1B685B68D1
:104A0C00019308BD1802030008B5024B1B689B6894
:104A1C00019308BD1802030008B5024B1B68DB6844
:104A2C00019308BD1802030008B5024B1B685B69B3
:104A3C00019308BD1802030008B5024B1B685B68A4
:104A4C00019308BD4802030008B5024B1B689B6824
:104A5C00019308BD4802030008B5024B1B681B6993
:104A6C00019308BD4802030008B5024B1B685B6943
:104A7C00019308BD4802030008B5024B1B685B6C30
:104A8C00019308BD4802030008B5024B1B689B6CE0
:104A9C00019308BD4802030008B5024B1B68DB6E8E
:104AAC00019308BD4802030008B5024B1B685B6903
:104ABC00019308BD6402030008B5024B1B681B6818
:104ACC00019308BD3C02030008B5024B1B68DB6870
:104ADC00019308BD3C02030008B5024B1B681B691F
:104AEC00019308BD3C02030008B5024B1B685B69CF
:104AFC00019308BD3C02030008B5024B1B689B697F
:104B0C00019308BD3C02030008B5024B1B68DB692E
:104B1C00019308BD3C02030008B5024B1B681B6ADD
:104B2C00019308BD3C02030008B5024B1B689B6A4D
:104B3C00019308BD3C02030008B5024B1B681B6ABD
:104B4C00019308BD2802030008B5024B1B685B6A81
:104B5C00019308BD2802030008B5024B1B689B6A31
:104B6C00019308BD2802030008B5024B1B68DB6AE1
:104B7C00019308BD2802030008B5024B1B681B6B90
:104B8C00019308BD2802030008B5024B1B685B6B40
:104B9C00019308BD2802030008B5024B1B681B6C6F
:104BAC00019308BD2802030008B5024B1B68DB69A2
:104BBC00019308BD3002030008B5024B1B681B6A49
:104BCC00019308BD3002030008B5024B1B681B683B
:104BDC00019308BD4C02030008B5024B1B685B68CF
:104BEC00019308BD4C02030008B5024B1B681B69FE
:104BFC00019308BD4C02030008B5024B1B685B69AE
:104C0C00019308BD4C02030008B5024B1B689B695D
:104C1C00019308BD4C02030008B5024B1B68DB690D
:104C2C00019308BD4C02030008B5024B1B681B6ABC
:104C3C00019308BD4C02030008B5024B1B685B6B6B
:104C4C00019308BD6002030008B5024B1B685B684A
:104C5C00019308BD2002030008B5024B1B685B6979
:104C6C00019308BD2002030008B5024B1B68DB6AE8
:104C7C00019308BD2002030008B5034B1B68D3F851
:104C8C008830019308BD00002002030008B5034BD7
:104C9C001B68D3F89430019308BD00002002030078
:104CAC0008B5024B1B685B68019308BD400203000A
:104CBC0008B5024B1B689B68019308BD40020300BA
:104CCC0008B5024B1B68DB68019308BD400203006A
:104CDC0008B5024B1B681B69019308BD4002030019
:104CEC0008B5024B1B685B69019308BD40020300C9
:104CFC0008B5024B1B689B69019308BD4002030079
:104D0C0008B5024B1B68DB69019308BD4002030028
:104D1C0008B5024B1B681B6A019308BD40020300D7
:104D2C0008B5024B1B681B6B019308BD40020300C6
:104D3C0008B5024B1B685B6B019308BD4002030076
:104D4C0008B5024B1B681B6C019308BD40020300A5
:104D5C0008B5024B1B685B6C019308BD4002030055
:104D6C0008B5024B1B68DB6B019308BD44020300C2
:104D7C0008B5024B1B681B68019308BD1C0203009D
:104D8C0008B5024B1B685B68019308BD1C0203004D
:104D9C0008B5024B1B68DB6A019308BD1C020300BB
:104DAC0008B5024B1B685B6C019308BD1C02030029
:104DBC00002240681146FFF7ABBF00224068114645
:104DCC00FFF7B6BF40680022FFF7AABF4068002279
:104DDC0081F00101FFF794BF002340681A46194681
:104DEC00FFF786BF002340681A461946FFF778BFC5
:104DFC00002240681146FFF76BBF00224068114645
:104E0C00FFF756BF406800220221FFF759BF00236D
:104E1C0040681A46FFF744BF024B03225A60024A0D
:104E2C001A60704744E6032058610D0010B5044623
:104E3C0008462170FFF7B8FE00236360204610BDC2
:104E4C0010B5094B094C022200201A60084B206057
:104E5C00A080A071A360FFF7F7FE2046054A064923
:104E6C00BDE8104000F0A8BC58E603204CE6032037
:104E7C000000FFFFFCE403202B410D0010B504469D
:104E8C00006808B1FFF700FE204610BD10B5064CB7
:104E9C00002320462360FFF7EFFD2046034A044918
:104EAC00BDE8104000F088BC5CE60320FCE4032065
:104EBC00894E0D00F8B506460D468F180024BD42EC
:104ECC000CD0336815F8011B9B6830469847031EBD
:104EDC0001DB1C44F3E7002C08BF1C462046F8BD40
:104EEC0013B50446084659B1019101F011F9236834
:104EFC000199DB680246204602B0BDE81040184715
:104F0C0002B010BD03689B68184738B50D210546E3
:104F1C00FFF7F8FF0A2104462846FFF7F3FF204469
:104F2C0038BD38B50546FFF7DBFF04462846FFF7CA
:104F3C00ECFF204438BD30B58BB000238DF8243005
:104F4C00012A98BF0A2209AC0D46B1FBF2F101FB14
:104F5C00125303F0FF03092B94BF30333733DBB20A
:104F6C00AA4204F8013DEFD92146FFF7B9FF0BB077
:104F7C0030BD0000014B024A1A60704760E6032006
:104F8C008C610D00024B1A68024B1A60704700BF0F
:104F9C0090E4032064E603200021FFF75DBE10B50A
:104FAC008368044613B1032201469847204610BD7E
:104FBC0010B50446FFF7F3FF204610BD0348044A22
:104FCC0004490023836000F0F7BB00BF68E60320B0
:104FDC00FCE40320BD4F0D00014B1860704700BF6F
:104FEC0098E4032008B50B4B43B100F055F9036866
:104FFC001B699847002801DDAFF30080064B43B1D5
:10500C0000F0F4F903681B699847002801DDAFF341
:10501C00008008BD000000000000000008B5FFF78C
:10502C00E1FFFFF701FD014B186008BDD4E7032039
:10503C000248034A0349121A01F030B800F4032065
:10504C0004F40320F0620D0007B5002300931A4608
:10505C006FF07701FFF71AFE03B05DF804FB000058
:10506C0007B543880A2B08D0502B0BD1094B1B6872
:10507C004BB103B05DF804EB1847FFF7E5FF03B045
:10508C005DF804FB002300931A466FF07701FFF7DD
:10509C00FDFDF4E77CE6032038B5124C1248134DA5
:1050AC000021FFF77DFE2368AB42114B0CBF0122A0
:1050BC0000221A7002D0FFF7BBFF2560FFF79CFCA3
:1050CC00044601F001F80B4B13B12046AFF30080FE
:1050DC0000210848FFF744FEBDE83840064800218F
:1050EC00FFF7CABD00F40320E54F0D001E1C279AE4
:1050FC0078E60320000000006D500D00704710B5DD
:10510C001821044600F05DFB204610BDF0B5037D70
:10511C00062B8DB00E4600F104074FF0000412D0A0
:10512C0000F1080515F8011D0A223046FFF703FFB0
:10513C00AF42044419D0002CF4D02E213046FFF796
:10514C00E1FE0444EEE72F236A4639460A208DF827
:10515C000040FFF7A9FC684600F0DAFF336802460E
:10516C00DB68694630469847044620460DB0F0BDD2
:10517C0010B5054B0446112240F8043B002100F009
:10518C009BFF204610BD00BFB4610D000346074ACB
:10519C0010B543F8042B01F1100251F8044B43F8FD
:1051AC00044B9142F9D10A781A7010BDB4610D000C
:1051BC0010B59DF8084044EA032343EA024242EA50
:1051CC00016104234160037510BD13B5CB780093C6
:1051DC008B784A780978FFF7EBFF02B010BD417469
:1051EC007047704708B50021007CFFF70DFD40EAC1
:1051FC00E07008BD08B50121007CFFF705FD40EA11
:10520C00E07008BD08B5007CFFF7F6FC20EAE07002
:10521C0008BD08B5007CFFF7E7FC20EAE07008BD8C
:10522C0013B50446007C0191FFF7E6FC00280199B8
:10523C0001DC607C20B1207CFFF7EEFC20EAE07002
:10524C0002B010BD007CFFF7EFBC10B51421044672
:10525C0000F0B7FA204610BD10B54FF47A7304462F
:10526C0008460021C4E90113044B23600123207478
:10527C0063741146FFF7A8FC204610BDC8610D00F1
:10528C00007C0022FFF7A8BC10B5142204460021B4
:10529C0000F012FF204610BD10B5104C88B003A8CA
:1052AC00FFF7F2FF2178BFF35B8F11F0010111D1F1
:1052BC0020460191FEF7EDFE019958B103AA08486A
:1052CC00FFF7CAFF2046FEF7E9FE064A06490448E6
:1052DC0000F072FA024808B010BD00BF80E603204F
:1052EC0084E60320FCE40320EF510D00004700008E
:1052FC002DE9FF4100241D460F4690460646FFF758
:10530C0073FBA5424FF00403ADF80D408DF80C3043
:10531C008DF80F40A2BF9DF828308DF80E3003ACED
:10532C000749009443463A463046A8BF8DF80D50C5
:10533C00FFF752FBB0FA80F0400904B0BDE8F081F1
:10534C00F9520D0070474174704708B5007CFFF7A7
:10535C00EBFB20EAE07008BD08B5007CFFF7BCFB56
:10536C0020EAE07008BD08B5007CFFF7C5FB40EAF9
:10537C00E07008BD08B5007CFFF7B6FB40EAE070B2
:10538C0008BD007CFFF7C0BB37B5457C04462DB18A
:10539C00207C03B0BDE83040FFF796BB007C019148
:1053AC00FFF7C2FB00280199F2DC284603B030BDA0
:1053BC0010B51421044600F004FA204610BD00007C
:1053CC0010B54FF0000C0446084611464FF47A72A3
:1053DC00C4E901C2044A22600122207462741A4694
:1053EC00FFF76AFB204610BDF8610D0013B50E4C9B
:1053FC002178BFF35B8F11F0010112D1204601918E
:10540C00FEF747FE019960B1084A094B0948FFF7BE
:10541C00D7FF2046FEF742FE074A0849054800F030
:10542C00CBF9044802B010BD98E603209CE603209B
:10543C0020E70320A4E70320FCE4032051530D00D4
:10544C007047F8B5064615460C468F18BC4206D078
:10545C00336814F8011B9B6830469847F6E72846DA
:10546C00F8BD007C0022FFF767BB007C0021FFF732
:10547C006BBB007C0021FFF76FBB007C0021FFF7AA
:10548C0073BB007C0021FFF777BB10B514210446D9
:10549C0000F097F9204610BD10B54FF47A7304460E
:1054AC0008460021C4E90113034B23602074114604
:1054BC00FFF772FB204610BD28620D0000224068E9
:1054CC001146FFF705BC002240681146FFF720BCCF
:1054DC00002240681146FFF72BBC40680022FFF702
:1054EC001FBC4068002281F00101FFF709BC0023BA
:1054FC0040681A461946FFF7FBBB002340681A4662
:10550C001946FFF7EDBB002240681146FFF7D0BBF0
:10551C00406800220221FFF7D3BB002340681A46E3
:10552C00FFF7BEBB024B04225A60024A1A60704756
:10553C00B8E7032050620D00002340681A46FFF7BD
:10554C00AFBB406800220221FFF7BABB00224068C3
:10555C001146FFF7ADBB002240681146FFF7B8BB00
:10556C00002340681A461946FFF7BABB002340686F
:10557C001A461946FFF7BCBB40680021FFF7E0BB99
:10558C0040680021FFF7E4BB4068002281F0010174
:10559C00FFF7B6BB40680022FFF7C2BB0022406891
:1055AC001146FFF7C5BB002240681146FFF7B0BBA0
:1055BC002DE9F043002495B016460D460746FFF73B
:1055CC00D7FD214618220EA8009400F075FD40234B
:1055DC00CDE90C3421466B460CAA3046FFF7E4F9B2
:1055EC000446002846D1024601216868FFF770FB8B
:1055FC000221804622466868FFF76AFB009E8146BE
:10560C002146002E36D0002934D17368022B03D0EA
:10561C000A2B0BD0F669F4E7B8F1000F04D07169CE
:10562C0038460431FFF7D1FD4146F3E7B9F1000FDD
:10563C0001D14946EEE77469102201A800F03CFD47
:10564C0006238DF8143001AD04F1080318341868E2
:10565C0059682A4603C20833A3421546F7D101A95B
:10566C0006A807ADFFF792FD0FCD3C1D0FC42B68AC
:10567C002370DEE70098FFF78FF9384615B0BDE8C8
:10568C00F0830000024B034A1A6000225A607047F4
:10569C00C0E703208C620D00232813B502D900202B
:1056AC0002B010BDA0F10B03022B1AD8174C2178B5
:1056BC00BFF35B8F11F001010BD120460191FEF776
:1056CC00E8FC019928B11248FFF7B0FB2046FEF721
:1056DC00E5FC0F4B1878FFF76FFA0028DFD101209B
:1056EC00DEE7012809D800F03FF80021007CFFF725
:1056FC004BFA80F00100C0B2D2E709380128EED88D
:10570C00FFF774FE007CFFF707FAF2E7C8E7032007
:10571C00CCE70320232838B504460D460AD8FF29C8
:10572C0008D0FFF7B9FF28B129462046BDE838401C
:10573C00FFF74AB938BD000038B500232025438057
:10574C00142304460380856005610649284600F051
:10575C003CF804496060284600F037F8E0602046C9
:10576C0038BD00BFC0620D0030B50F4D2978BFF3B6
:10577C005B8F11F0010487B013D12846FEF789FC2A
:10578C0078B101A8FFF7D8FF01AA21460748FFF717
:10579C0083FE2846FEF782FC054A0649034800F0C2
:1057AC000BF8024807B030BDD8E70320DCE7032034
:1057BC00FCE403204D540D000B460146184600F046
:1057CC005FBCFEF764BCFEF75EBCFEF75EBC08B5C2
:1057DC00FFF7DEFA81F0004102E000BF83F00043E6
:1057EC0030B54FEA41044FEA430594EA050F08BF70
:1057FC0090EA020F1FBF54EA000C55EA020C7FEA34
:10580C00645C7FEA655C00F0E2804FEA5454D4EBB0
:10581C005555B8BF6D420CDD2C4480EA020281EA7A
:10582C00030382EA000083EA010180EA020281EAB2
:10583C000303362D88BF30BD11F0004F4FEA013104
:10584C004FF4801C4CEA113102D0404261EB410113
:10585C0013F0004F4FEA03334CEA133302D0524299
:10586C0063EB430394EA050F00F0A780A4F1010455
:10587C00D5F1200E0DDB02FA0EFC22FA05F280188F
:10588C0041F1000103FA0EF2801843FA05F3594175
:10589C000EE0A5F120050EF1200E012A03FA0EFCF4
:1058AC0028BF4CF0020C43FA05F3C01851EBE3711E
:1058BC0001F0004507D54FF0000EDCF1000C7EEB3B
:1058CC0000006EEB0101B1F5801F1BD3B1F5001F79
:1058DC000CD349085FEA30004FEA3C0C04F1010498
:1058EC004FEA445212F5800F80F09A80BCF1004FC1
:1058FC0008BF5FEA500C50F1000041EB045141EA43
:10590C00050130BD5FEA4C0C404141EB0101013C0B
:10591C0028BFB1F5801FE9D291F0000F04BF0146FA
:10592C000020B1FA81F308BF2033A3F10B03B3F1CC
:10593C0020020CDA0C3208DD02F1140CC2F10C025C
:10594C0001FA0CF021FA02F10CE002F11402D8BFBA
:10595C00C2F1200C01FA02F120FA0CFCDCBF41EA86
:10596C000C019040E41AA2BF01EB0451294330BD55
:10597C006FEA04041F3C1CDA0C340EDC04F1140432
:10598C00C4F1200220FA04F001FA02F340EA030009
:10599C0021FA04F345EA030130BDC4F10C04C4F14F
:1059AC00200220FA02F001FA04F340EA030029462F
:1059BC0030BD21FA04F0294630BD94F0000F83F479
:1059CC00801306BF81F480110134013D4EE77FEA5C
:1059DC00645C18BF7FEA655C29D094EA050F08BFA8
:1059EC0090EA020F05D054EA000C04BF1946104689
:1059FC0030BD91EA030F1EBF0021002030BD5FEACD
:105A0C00545C05D14000494128BF41F0004130BDF4
:105A1C0014F580043CBF01F5801130BD01F0004548
:105A2C0045F0FE4141F470014FF0000030BD7FEABB
:105A3C00645C1ABF194610467FEA655C1CBF0B46B6
:105A4C00024650EA013406BF52EA033591EA030FCD
:105A5C0041F4002130BD00BF90F0000F04BF0021C5
:105A6C00704730B54FF4806404F132044FF00005F8
:105A7C004FF0000150E700BF90F0000F04BF002171
:105A8C00704730B54FF4806404F1320410F00045D7
:105A9C0048BF40424FF000013EE700BF42004FEAD2
:105AAC00E2014FEA31014FEA02701FBF12F07F434F
:105ABC0093F07F4F81F06051704732F07F4208BF06
:105ACC00704793F07F4F04BF41F40021704730B50D
:105ADC004FF4607401F0004521F000411CE700BF59
:105AEC0050EA010208BF704730B54FF000050AE0DC
:105AFC0050EA010208BF704730B511F0004502D5DD
:105B0C00404261EB41014FF4806404F132045FEADE
:105B1C00915C3FF4D8AE4FF003025FEADC0C18BF87
:105B2C0003325FEADC0C18BF033202EBDC02C2F179
:105B3C00200300FA03FC20FA02F001FA03FE40EA0B
:105B4C000E0021FA02F11444BDE600BF70B54FF00F
:105B5C00FF0C4CF4E06C1CEA11541DBF1CEA1355ED
:105B6C0094EA0C0F95EA0C0F00F0DEF82C4481EA55
:105B7C00030621EA4C5123EA4C5350EA013518BF75
:105B8C0052EA033541F4801143F4801338D0A0FB62
:105B9C0002CE4FF00005E1FB02E506F00042E0FB0F
:105BAC0003E54FF00006E1FB03569CF0000F18BF15
:105BBC004EF0010EA4F1FF04B6F5007F64F54074BD
:105BCC0004D25FEA4E0E6D4146EB060642EAC62150
:105BDC0041EA55514FEAC52040EA5E504FEACE2EBD
:105BEC00B4F1FD0C88BFBCF5E06F1ED8BEF1004FC0
:105BFC0008BF5FEA500E50F1000041EB045170BD3C
:105C0C0006F0004646EA010140EA020081EA03017F
:105C1C00B4EB5C04C2BFD4EB0C0541EA045170BD7B
:105C2C0041F480114FF0000E013C00F3AB8014F1F5
:105C3C00360FDEBF002001F0004170BDC4F100043E
:105C4C00203C35DA0C341BDC04F11404C4F12005BF
:105C5C0000FA05F320FA04F001FA05F240EA02001A
:105C6C0001F0004221F0004110EBD37021FA04F650
:105C7C0042EB06015EEA430E08BF20EAD37070BD0A
:105C8C00C4F10C04C4F1200500FA04F320FA05F069
:105C9C0001FA04F240EA020001F0004110EBD3706B
:105CAC0041F100015EEA430E08BF20EAD37070BDDB
:105CBC00C4F1200500FA05F24EEA020E20FA04F3B4
:105CCC0001FA05F243EA020321FA04F001F0004163
:105CDC0021FA04F220EA020000EBD3705EEA430ED4
:105CEC0008BF20EAD37070BD94F0000F0FD101F003
:105CFC000046400041EB010111F4801F08BF013C3C
:105D0C00F7D041EA060195F0000F18BF704703F079
:105D1C000046520043EB030313F4801F08BF013D00
:105D2C00F7D043EA0603704794EA0C0F0CEA1355BC
:105D3C0018BF95EA0C0F0CD050EA410618BF52EA76
:105D4C004306D1D181EA030101F000414FF000007C
:105D5C0070BD50EA410606BF1046194652EA43068A
:105D6C0019D094EA0C0F02D150EA013613D195EAFE
:105D7C000C0F05D152EA03361CBF104619460AD146
:105D8C0081EA030101F0004141F0FE4141F4700150
:105D9C004FF0000070BD41F0FE4141F4780170BD40
:105DAC0070B54FF0FF0C4CF4E06C1CEA11541DBFA5
:105DBC001CEA135594EA0C0F95EA0C0F00F0A7F8A7
:105DCC00A4EB050481EA030E52EA03354FEA0131D4
:105DDC0000F088804FEA03334FF0805545EA1313E7
:105DEC0043EA12634FEA022245EA111545EA1065AF
:105DFC004FEA00260EF000419D4208BF964244F146
:105E0C00FD0404F5407402D25B084FEA3202B61A64
:105E1C0065EB03055B084FEA32024FF480104FF438
:105E2C00002CB6EB020E75EB030E22BFB61A7546AC
:105E3C0040EA0C005B084FEA3202B6EB020E75EB3F
:105E4C00030E22BFB61A754640EA5C005B084FEAA7
:105E5C003202B6EB020E75EB030E22BFB61A754674
:105E6C0040EA9C005B084FEA3202B6EB020E75EB7F
:105E7C00030E22BFB61A754640EADC0055EA060E40
:105E8C0018D04FEA051545EA16754FEA06164FEA83
:105E9C00C30343EA52734FEAC2025FEA1C1CC0D12F
:105EAC0011F4801F0BD141EA00014FF000004FF0BC
:105EBC00004CB6E711F4801F04BF01430020B4F17D
:105ECC00FD0C88BFBCF5E06F3FF6AFAEB5EB030C35
:105EDC0004BFB6EB020C5FEA500C50F1000041EB32
:105EEC00045170BD0EF0004E4EEA113114EB5C04FF
:105EFC00C2BFD4EB0C0541EA045170BD41F48011D2
:105F0C004FF0000E013C90E645EA060E8DE60CEAD9
:105F1C00135594EA0C0F08BF95EA0C0F3FF43BAFF6
:105F2C0094EA0C0F0AD150EA01347FF434AF95EAAD
:105F3C000C0F7FF425AF104619462CE795EA0C0F91
:105F4C0006D152EA03353FF4FDAE1046194622E75E
:105F5C0050EA410618BF52EA43067FF4C5AE50EA38
:105F6C0041047FF40DAF52EA43057FF4EBAE12E728
:105F7C004FF0FF3C06E000BF4FF0010C02E000BF09
:105F8C004FF0010C4DF804CD4FEA410C7FEA6C5CEC
:105F9C004FEA430C18BF7FEA6C5C1BD001B050EA8F
:105FAC00410C0CBF52EA430C91EA030F02BF90EA7A
:105FBC00020F0020704710F1000F91EA030F58BF39
:105FCC00994208BF90422CBFD8176FEAE37040F09B
:105FDC00010070474FEA410C7FEA6C5C02D150EA39
:105FEC00013C07D14FEA430C7FEA6C5CD6D152EAF4
:105FFC00033CD3D05DF8040B704700BF84461046B9
:10600C0062468C461946634600E000BF01B5FFF7B7
:10601C00B7FF002848BF10F1000F01BD4DF808ED87
:10602C00FFF7F4FF0CBF012000205DF808FB00BF58
:10603C004DF808EDFFF7EAFF34BF012000205DF8B2
:10604C0008FB00BF4DF808EDFFF7E0FF94BF0120FF
:10605C0000205DF808FB00BF4DF808EDFFF7CEFF00
:10606C0094BF012000205DF808FB00BF4DF808ED3F
:10607C00FFF7C4FF34BF012000205DF808FB00BF10
:10608C0010B5054C13462CB10A4601460220AFF35D
:10609C00008010BD2046FCE7000000000A4491423D
:1060AC0000F1FF3300D1704710B511F8014B03F824
:1060BC00014F9142F9D110BD02440346934200D1E5
:1060CC00704703F8011BF9E738B50D4B1D68AB6B36
:1060DC0004467BB91820FEF74BFE0A4A0A4BA8630C
:1060EC00C0E90023094B83600B2383810122002329
:1060FC00C0E90423AB6B00221C615A6138BD00BFA0
:10610C0098E403200E33CDAB34126DE6ECDE0500C3
:10611C00034613F8012B002AFBD1181A01387047DB
:10612C001D400D0059400D0081400D0085400D00B3
:10613C000000000073656E64696E67546872656177
:10614C006400000000000000000000001B4E0D0069
:10615C00114E0D00074E0D00FD4D0D00F14D0D00C3
:10616C00E54D0D0085550D008D550D00D94D0D00DB
:10617C00D14D0D00C74D0D00BD4D0D00BD550D0091
:10618C006170700025592D256D2D25645425483AD4
:10619C00254D3A2553257A0061736374696D65004A
:1061AC00000000000000000019510D0009510D0005
:1061BC000B510D000000000000000000EF510D001D
:1061CC0057520D002D520D00C14E0D001F520D00E7
:1061DC00F1510D0001520D0051520D0011520D00E4
:1061EC00EB510D00000000000000000051530D00A9
:1061FC00BD530D0095530D00C14E0D0065530D00A0
:10620C0081530D0073530D008F530D0053530D002C
:10621C0057530D0000000000000000004D540D000D
:10622C0097540D006F540D004F540D0077540D0012
:10623C007F540D0087540D008F540D00000000009A
:10624C000000000027550D001D550D0013550D00C5
:10625C00C9540D0007550D00FB540D0085550D005C
:10626C008D550D00EF540D00E7540D00DD540D005D
:10627C00D3540D00BD550D000000000000000000BF
:10628C0045550D004F550D0059550D0063550D002A
:10629C006D550D0079550D0085550D008D550D0072
:1062AC0095550D00A1550D00A9550D00B3550D00C8
:1062BC00BD550D0000000000D1480D00254E0D000D
:1062CC004D4E0D00994E0D00814F0D00914F0D005C
:1062DC00C94F0D0031550D0091560D000000000006
:0462EC0000000000AE
:0462F00000000000AA
:1062F40001000100A4610D000090D0039CE4032080
:106304000000000000000000000000000000000089
:106314000000000000000000000000000000000079
:106324000000000000000000000000000000000069
:106334000000000000000000000000000000000059
:106344000000000000000000000000000000000049
:106354000000000000000000000000000000000039
:10636400FFFFFFFF00000102030405060708090AF6
:106374000B0C0D0E0F101112131415161718191AF1
:086384001B1C1D1E1F20280038
:04638C0078563412F9
:04000003D000401CCD
:00000001FF
