:02000002D0002C
:1040000000400D00F0680D00000006000C000501E6
:08401000040135080000000066
:04401800D8650D005A
:10401C0009480A49884208B505D0094A824202D0AB
:10402C00121A02F05DFA0748074A0021121A02F030
:10403C0065FA014808BD00BF70E4032054680D0008
:10404C00E4E40320E4E40320F0E7032070B5074E1A
:10405C00074C01F029FAA41BA4080025A54200D1A5
:10406C0070BD56F8043B98470135F7E72C680D00F6
:10407C0050680D0000F0FAB908B500F063FDBDE81A
:10408C00084001F0D3B901F043B801F041B801F098
:10409C0047B80078B0FA80F04009704701230370EC
:1040AC007047000010B503682F2B044604D9074A4B
:1040BC0000210A2000F088FF23681F2B83BF03F028
:1040CC001F03034823604FF0A04010BD654D0D0049
:1040DC000003005010B5012303748368044643B1F8
:1040EC00C0689847012363740020BDE8104000F0BD
:1040FC009BBE00680028F5D083680BB901F089FDE0
:10410C00C368EEE710B50446006808B101F008F882
:10411C00204610BD08B50021022000F075FFBDE857
:10412C00084000F079BE38B5044688B105684DB139
:10413C00AB681BB103222946284698471021284614
:10414C0001F061FD20461421BDE8384001F05BBD53
:10415C0038BD08B50021022000F056FFBDE808402C
:10416C0000F052BE10B5036804469BB1586800F0CD
:10417C000BFE78B923685A7C12B9586800F00CFE13
:10418C002368586800F010FE20680023236008B1F3
:10419C00FFF7C9FF206808B1FFF7C5FF204610BD27
:1041AC000EB403B503AB012153F8042B019301F0BA
:1041BC00B8F802B05DF804EB03B07047034B5968D4
:1041CC005A68521A8242FBD3704700BF001000E0BD
:1041DC00F7B5374D374C2B78BFF35B8F13F0010FCE
:1041EC0009D12846FFF755FF28B100F075FD206076
:1041FC002846FFF753FF236893F820305E012B7895
:10420C00BFF35B8FD90709D42948FFF742FF28B1C8
:10421C0000F062FD20602648FFF740FF236893F80A
:10422C00213003F01F03334301A80193FFF73AFF3A
:10423C00019A214E01239340C0F80C353068FFF7EA
:10424C00BDFF2B78BFF35B8FDA0709D41848FFF753
:10425C0020FF28B100F040FD20601548FFF71EFF3D
:10426C00236893F820305F012B78BFF35B8FDB075B
:10427C0009D40F48FFF70DFF28B100F02DFD206089
:10428C000B48FFF70BFF236893F8213003F01F0353
:10429C003B4301A80193FFF705FF019A01239340CB
:1042AC00C0F808353068FFF789FF03B0F0BD00BFD8
:1042BC00E8E40320ECE4032018E60320F7B5374DBF
:1042CC00374C2B78BFF35B8F13F0010F09D12846C5
:1042DC00FFF7DFFE28B100F0FFFC20602846FFF757
:1042EC00DDFE236893F820305E012B78BFF35B8FE3
:1042FC00D90709D42948FFF7CCFE28B100F0ECFC13
:10430C0020602648FFF7CAFE236893F8213003F09B
:10431C001F03334301A80193FFF7C4FE019A214EFA
:10432C0001239340C0F808353068FFF747FF2B781E
:10433C00BFF35B8FDA0709D41848FFF7AAFE28B140
:10434C0000F0CAFC20601548FFF7A8FE236893F81C
:10435C0020305F012B78BFF35B8FDB0709D40F484C
:10436C00FFF797FE28B100F0B7FC20600B48FFF771
:10437C0095FE236893F8213003F01F033B4301A8FB
:10438C000193FFF78FFE019A01239340C0F80C357F
:10439C003068FFF713FF03B0F0BD00BFE8E4032063
:1043AC00ECE4032018E6032008B5FFF711FFFFF734
:1043BC0085FFFFF70DFFFFF781FFFFF709FFFFF701
:1043CC007DFFFFF705FFBDE80840FFF777BF08B199
:1043DC00FFF774BFFFF7FCBE70B504464618B44235
:1043EC000BD000252078284100F001000135FFF7A3
:1043FC00EEFF082DF6D10134F1E770BD38B5054656
:10440C00002445FA04F000F001000134FFF7DFFF4F
:10441C00082CF6D138BD38B50546002445FA04F011
:10442C0000F001000134FFF7D2FF102CF6D138BD9B
:10443C0038B50D4D0446286800F0C6FCFFF7B4FFF4
:10444C007E20FFF7DBFF0120FFF7D8FF0020FFF7EE
:10445C00D5FF2046FFF7DFFF7E20FFF7CFFF286850
:10446C00BDE8384000F0B8BC40E603201FB501F0B1
:10447C001BF94FF4165101F00BF90521022001F044
:10448C006BFB00240221042001F066FB2049009400
:10449C004FF0FF332246042001F032F91D4800F0A2
:1044AC008BFC1D49142001F0B0FB28B1C0E900447D
:1044BC00C0E90244047444740390A8B1174B8360A0
:1044CC000023C3604FF44063CDE900031449154B3E
:1044DC000222043000F050FC30B9039B1B7C4BB91A
:1044EC00012000F031FCF8E703980023039308B196
:1044FC00FFF719FE0023039A03930B4B18681A60FD
:10450C0008B1FFF710FE03A8FFF72CFE04B010BD96
:10451C0075460D0040E6032028680D00F54A0D0095
:10452C00EC650D00E1400D0034E60320064A28B18D
:10453C00064910880B8803439BB20B8013889BB2EF
:10454C005B009BB21380704774E4032002E60320E7
:10455C00054A20B1054910780B7803430B7013788A
:10456C005B00DBB21370704776E4032020E6032077
:10457C00064A28B1064910880B8803439BB20B806E
:10458C0013889BB25B009BB21380704770E40320CE
:10459C00FEE50320054A20B1054910780B7803434A
:1045AC000B7013785B00DBB21370704772E403205E
:1045BC0000E60320054A20B1054910780B78034327
:1045CC000B7013785B00DBB21370704777E4032039
:1045DC0038E6032008B501F0BDF8054B01221A702E
:1045EC0001F062F8BDE80840024900F072BE00BF5D
:1045FC0001E60320FA650D000E4A0F4900231360F3
:10460C000E4A13700E4A136001220A800D490B806A
:10461C000D490A700D490B700D490A800D490B802C
:10462C000D490A700D490B700D490A700D4A137033
:10463C00704700BF3CE6032074E40320FBE5032035
:10464C002CE6032002E6032076E4032020E6032078
:10465C0070E40320FEE5032072E4032000E603204F
:10466C0077E4032038E603202DE9F3478D4B8E4C7D
:10467C005B688E4E236033788D4FBFF35B8F13F0E6
:10468C00010F09D13046FFF704FD28B100F024FBDF
:10469C0038603046FFF702FD3B6893F840503378A2
:1046AC00BFF35B8FDB074FEA451809D47F48FFF750
:1046BC00F0FC28B100F010FB38607C48FFF7EEFCF2
:1046CC003B687C4E93F8415005F01F0545EA080500
:1046DC0001A80195FFF7E6FCD0F81035019501A86B
:1046EC00FFF7E0FC019AD0F81035734DD34003F07E
:1046FC00010333702B68062B2AD8DFE813F0070070
:10470C000F002C005A009300010137016B4B2268FB
:10471C001A603378E3B901232B6019E033783BB985
:10472C00674A236811685B1A66490B60236813603B
:10473C00654A13680133072B136009D902232B60D8
:10474C00604B624A1B689B081360614B22681A60BD
:10475C0002B0BDE8F0875E4F20683B685B4AC01A28
:10476C00D2F800A001F09AFB80465046894601F031
:10477C0095FB584B002201F00BFC02460B464046C1
:10478C00494601F077FE0028E2D123683B6030787F
:10479C0080F00100FFF70EFF4F4B1B78002BD7D199
:1047AC004E4B1B787E2B02D0FFF714FFD0E7032370
:1047BC00B2E7474F20683B68444AC01AD2F800A0C1
:1047CC0001F06CFB80465046894601F067FB414B7B
:1047DC00002201F0DDFB02460B464046494601F043
:1047EC0049FE0028B4D123683B60307880F001008A
:1047FC00FFF79CFE3A4B1B889BB2002BA8D1394B80
:10480C0039491A8812F001021BBF01220A700A7082
:10481C00052208BF04222A601B88344AC3F30723ED
:10482C00137095E72A4F20683B68284AC01AD2F8C3
:10483C0000A001F033FB80465046894601F02EFB68
:10484C00244B002201F0A4FB02460B46404649468D
:10485C0001F010FE00287FF47BAF23683B603078BA
:10486C0080F00100FFF774FE21490B7803F0FF0480
:10487C00002B7FF46DAF1F4A1F4813781F4FDEB219
:10488C000133DBB213700378DBB2BB550123047028
:10489C000B70164B12781B789A427FF459AF052394
:1048AC003AE700BF001000E008E60320E8E403202C
:1048BC00ECE4032004E603203CE6032014E603208A
:1048CC0028E6032024E603202CE603201CE6032024
:1048DC0010E603200000F83F77E4032038E60320BD
:1048EC0074E4032002E603200CE6032021E60320F7
:1048FC0076E40320FBE5032020E60320FCE4032000
:10490C00364F20683B68364AC01AD2F800A001F036
:10491C00C5FA80465046894601F0C0FA314B002258
:10492C0001F036FB02460B464046494601F0A2FD1B
:10493C0000287FF40DAF23683B60307880F00100D5
:10494C00FFF716FE284B1B889BB2002B7FF400AFA1
:10495C00264B274A1B781BB1138826499BB20B8028
:10496C001388254A9BB213800623D5E61B4F20687B
:10497C003B681B4AC01AD2F800A001F08FFA80469F
:10498C005046894601F08AFA164B002201F000FBD2
:10499C0002460B464046494601F06CFD00287FF468
:1049AC00D7AE23683B60307880F00100FFF7F2FD52
:1049BC00124B1B7803F0FF02002B7FF4C9AE104B97
:1049CC001B787E2B7FF4F0AE084B0E491B7883F0DE
:1049DC0001030B702A60FFF70FFEB9E610E6032007
:1049EC001CE603200000F83F70E403200CE60320D3
:1049FC00FEE50320FCE5032030E6032072E40320EF
:104A0C0000E6032022E6032010B5014404464FF6CD
:104A1C00FF708C420CD014F8013B83EA102383EA1C
:104A2C00131343EA00225B01DBB2534098B2F0E768
:104A3C0010BD00002DE9F74F06460D461746984667
:104A4C00FFF7E2FF9DF830900446B9F1000F01D05A
:104A5C000134A4B2DFF888A0DFF88890D346D9F8E7
:104A6C00000000F0B1F9FFF79FFC7E20FFF7C6FCB9
:104A7C003846FFF7C3FC2846FFF7C0FC29463046F2
:104A8C00FFF7AAFC2046FFF7C6FC7E20FFF7B6FC1A
:104A9C00D9F8000000F0A0F90023BAF8002092B277
:104AAC00A24208D04345019305D0012000F07CFCC4
:104ABC00019B0133F1E7BBF800309BB2A342CED18E
:104ACC0000F0F2FDFFF745FB00F0EEFD034900F0AE
:104ADC0000FC03B0BDE8F04FFFF71CBB08660D00EF
:104AEC00FCE5032040E6032007B5134D00242246C5
:104AFC004FF47A730E2128460094FFF79BFF4FF476
:104B0C007A7000F051FC22464FF47A730E210B4858
:104B1C000094FFF78FFF4FF47A7000F045FC0848C3
:104B2C0000944FF47A7322465021FFF783FF4FF421
:104B3C007A7000F039FCD9E711660D001F660D0084
:104B4C002D660D0010B5314B1A7812B300221A7075
:104B5C002F4B304C19783048FFF756FF23889BB207
:104B6C00984247D1208880B2FFF762FC00F09CFD90
:104B7C00FFF7EFFA00F098FD274A2849FFF710FBE2
:104B8C0000F092FD2288264992B2FFF709FBFFF74D
:104B9C00C1FA244B1B68DBB1234B244A5B681268B7
:104BAC0023499B1A234A1268B2FBF1F2B3FBF2F3CE
:104BBC00214A93420CD9FFF71FFD00F075FDFFF75A
:104BCC00C8FA00F071FD1D4900F083FBFFF7A2FA53
:104BDC001B4B1A78C2B100224FF47A7101201A7063
:104BEC0000F083FE00F0E0FBFFF706FDBDE810408F
:104BFC0000F0B2BD00F058FDFFF7ABFA00F054FD29
:104C0C00104900F066FBC2E710BD00BF22E603208E
:104C1C0021E6032030E60320FCE403207D660D0032
:104C2C008A660D003CE60320001000E014E6032029
:104C3C0040420F007CE4032080969800A8660D008B
:104C4C0001E6032093660D0038B5124D124BAB6094
:104C5C00002402202C60AC80AC7100F0BDF90F4A2E
:104C6C000F49284600F0CAFF2146012000F0C4F984
:104C7C000C4B0D491B68B3FBF1F14FF40C734B4318
:104C8C000A480B4904600B60BDE83840034A0949E7
:104C9C0000F0B4BFF0E403200000FFFFE4E40320C5
:104CAC0011410D007CE4032040420F0034E6032048
:104CBC0018E6032071410D0008B5024B1B689B6878
:104CCC00019308BD6802030008B5024B1B68DB6842
:104CDC00019308BD6802030008B5024B1B681B68F2
:104CEC00019308BD2C02030008B5024B1B689B689E
:104CFC00019308BD2C02030008B5024B1B689B698D
:104D0C00019308BD2C02030008B5024B1B68DB693C
:104D1C00019308BD2C02030008B5024B1B681B6AEB
:104D2C00019308BD2C02030008B5024B1B685B6A9B
:104D3C00019308BD2C02030008B5024B1B685B688D
:104D4C00019308BD1802030008B5024B1B689B6851
:104D5C00019308BD1802030008B5024B1B68DB6801
:104D6C00019308BD1802030008B5024B1B685B6970
:104D7C00019308BD1802030008B5024B1B685B6861
:104D8C00019308BD4802030008B5024B1B689B68E1
:104D9C00019308BD4802030008B5024B1B681B6950
:104DAC00019308BD4802030008B5024B1B685B6900
:104DBC00019308BD4802030008B5024B1B681B6B2E
:104DCC00019308BD4802030008B5024B1B689B6B9E
:104DDC00019308BD4802030008B5024B1B681B6C0D
:104DEC00019308BD4802030008B5024B1B685B6CBD
:104DFC00019308BD4802030008B5024B1B689B6C6D
:104E0C00019308BD4802030008B5024B1B68DB6C1C
:104E1C00019308BD4802030008B5024B1B685B6D8B
:104E2C00019308BD4802030008B5024B1B68DB6EFA
:104E3C00019308BD4802030008B5024B1B685B696F
:104E4C00019308BD6402030008B5024B1B681B6884
:104E5C00019308BD3C02030008B5024B1B68DB68DC
:104E6C00019308BD3C02030008B5024B1B681B698B
:104E7C00019308BD3C02030008B5024B1B685B693B
:104E8C00019308BD3C02030008B5024B1B689B69EB
:104E9C00019308BD3C02030008B5024B1B68DB699B
:104EAC00019308BD3C02030008B5024B1B681B6A4A
:104EBC00019308BD3C02030008B5024B1B689B6ABA
:104ECC00019308BD3C02030008B5024B1B681B6A2A
:104EDC00019308BD2802030008B5024B1B685B6AEE
:104EEC00019308BD2802030008B5024B1B689B6A9E
:104EFC00019308BD2802030008B5024B1B68DB6A4E
:104F0C00019308BD2802030008B5024B1B681B6BFC
:104F1C00019308BD2802030008B5024B1B685B6BAC
:104F2C00019308BD2802030008B5024B1B681B6CDB
:104F3C00019308BD2802030008B5024B1B68DB690E
:104F4C00019308BD3002030008B5024B1B681B6AB5
:104F5C00019308BD3002030008B5024B1B681B68A7
:104F6C00019308BD4C02030008B5024B1B685B683B
:104F7C00019308BD4C02030008B5024B1B681B696A
:104F8C00019308BD4C02030008B5024B1B685B691A
:104F9C00019308BD4C02030008B5024B1B689B69CA
:104FAC00019308BD4C02030008B5024B1B68DB697A
:104FBC00019308BD4C02030008B5024B1B681B6A29
:104FCC00019308BD4C02030008B5024B1B685B6BD8
:104FDC00019308BD6002030008B5024B1B685B68B7
:104FEC00019308BD2002030008B5024B1B685B69E6
:104FFC00019308BD2002030008B5024B1B68DB6A55
:10500C00019308BD2002030008B5024B1B685B6BC3
:10501C00019308BD2002030008B5034B1B68D3F8AD
:10502C008830019308BD00002002030008B5034B33
:10503C001B68D3F89430019308BD000020020300D4
:10504C0008B5024B1B685B68019308BD4002030066
:10505C0008B5024B1B689B68019308BD4002030016
:10506C0008B5024B1B68DB68019308BD40020300C6
:10507C0008B5024B1B681B69019308BD4002030075
:10508C0008B5024B1B685B69019308BD4002030025
:10509C0008B5024B1B689B69019308BD40020300D5
:1050AC0008B5024B1B68DB69019308BD4002030085
:1050BC0008B5024B1B681B6A019308BD4002030034
:1050CC0008B5024B1B681B6B019308BD4002030023
:1050DC0008B5024B1B685B6B019308BD40020300D3
:1050EC0008B5024B1B681B6C019308BD4002030002
:1050FC0008B5024B1B685B6C019308BD40020300B2
:10510C0008B5024B1B68DB6B019308BD440203001E
:10511C0008B5024B1B681B68019308BD1C020300F9
:10512C0008B5024B1B685B68019308BD1C020300A9
:10513C0008B5024B1B685B6A019308BD1C02030097
:10514C0008B5024B1B68DB6A019308BD1C02030007
:10515C0008B5024B1B685B6C019308BD1C02030075
:10516C00002240681146FFF7A3BF00224068114699
:10517C00FFF7AEBF40680022FFF7A2BF40680022D5
:10518C0081F00101FFF78CBF002340681A461946D5
:10519C00FFF77EBF002340681A461946FFF770BF21
:1051AC00002240681146FFF763BF00224068114699
:1051BC00FFF74EBF406800220221FFF751BF0023CA
:1051CC0040681A46FFF73CBF024B03225A60024A62
:1051DC001A60704744E60320C0660D0010B5044603
:1051EC0008462170FFF7A8FE00236360204610BD1F
:1051FC0010B5094B094C022200201A60084B2060A4
:10520C00A080A071A360FFF7E7FE2046054A06497F
:10521C00BDE8104000F0F2BC58E603204CE6032039
:10522C000000FFFFE4E4032011410D0010B504461B
:10523C00006808B1FFF7E0FD204610BD10B5064C24
:10524C00002320462360FFF7CFFD2046034A044984
:10525C00BDE8104000F0D2BC5CE60320E4E403207F
:10526C0039520D00F8B506460D468F180024BD4284
:10527C000CD0336815F8011B9B6830469847031E09
:10528C0001DB1C44F3E7002C08BF1C462046F8BD8C
:10529C0013B50446084659B1019101F08FF9236802
:1052AC000199DB680246204602B0BDE81040184761
:1052BC0002B010BD03689B68184738B50D21054630
:1052CC00FFF7F8FF0A2104462846FFF7F3FF2044B6
:1052DC0038BD38B50546FFF7DBFF04462846FFF717
:1052EC00ECFF204438BD30B58BB000238DF8243052
:1052FC00012A98BF0A2209AC0D46B1FBF2F101FB61
:10530C00125303F0FF03092B94BF30333733DBB256
:10531C00AA4204F8013DEFD92146FFF7B9FF0BB0C3
:10532C0030BD2DE9F04186B000AF05460E46381D64
:10533C00142114463B60FFF7FBFE13280ED8391DD1
:10534C002846FFF7A5FF04461EB12846FFF7B5FF18
:10535C00044420461837BD46BDE8F08100F108032F
:10536C0023F00703E846ADEB030D2246411C3B68D6
:10537C006846FFF7DDFE69462846FFF789FF0446BD
:10538C00C546E1E7014B024A1A60704760E603200C
:10539C00F4660D00024B1A68024B1A60704700BF8E
:1053AC0078E4032064E603200021FFF71DBE10B54E
:1053BC008368044613B1032201469847204610BD6A
:1053CC0010B50446FFF7F3FF204610BD0348044A0E
:1053DC0004490023836000F011BC00BF68E6032081
:1053EC00E4E40320CD530D00014B1860704700BF5F
:1053FC0080E4032008B50B4B43B100F055F903686A
:10540C001B699847002801DDAFF30080064B43B1C0
:10541C0000F0F8F903681B699847002801DDAFF329
:10542C00008008BD000000000000000008B5FFF778
:10543C00E1FFFFF799FC014B186008BDD4E703208E
:10544C000248034A0349121A01F04AB800F4032037
:10545C0004F4032050680D0007B5002300931A468E
:10546C006FF07701FFF7E2FD03B05DF804FB00007D
:10547C0007B543880A2B08D0502B0BD1094B1B685E
:10548C004BB103B05DF804EB1847FFF7E5FF03B031
:10549C005DF804FB002300931A466FF07701FFF7C9
:1054AC00C5FDF4E77CE6032038B5124C1248134DC9
:1054BC000021FFF74DFE2368AB42114B0CBF0122BC
:1054CC0000221A7002D0FFF7BBFF2560FFF734FCF7
:1054DC00044601F01BF80B4B13B12046AFF30080D0
:1054EC0000210848FFF70CFEBDE8384006480021B3
:1054FC00FFF792BD00F40320F5530D001E1C279AF4
:10550C0078E60320000000007D540D00704710B5B4
:10551C001821044600F077FB204610BDF0B5037D42
:10552C00062B8DB00E4600F104074FF0000412D08C
:10553C0000F1080515F8011D0A223046FFF7D3FECD
:10554C00AF42044419D0002CF4D02E213046FFF782
:10555C00B1FE0444EEE72F236A4639460A208DF843
:10556C000040FFF769FC684601F028F833680246F2
:10557C00DB68694630469847044620460DB0F0BDBE
:10558C0010B5054B0446112240F8043B002100F0F5
:10559C00B5FF204610BD00BF1C670D000346074A2F
:1055AC0010B543F8042B01F1100251F8044B43F8E9
:1055BC00044B9142F9D10A781A7010BD1C670D008A
:1055CC0010B59DF8084044EA032343EA024242EA3C
:1055DC00016104234160037510BD13B5CB780093B2
:1055EC008B784A780978FFF7EBFF02B010BD417455
:1055FC007047704708B50021007CFFF7CDFC40EAEE
:10560C00E07008BD08B50121007CFFF7C5FC40EA3D
:10561C00E07008BD08B5007CFFF7B6FC20EAE0702E
:10562C0008BD08B5007CFFF7A7FC20EAE07008BDB8
:10563C0013B50446007C0191FFF7A6FC00280199E4
:10564C0001DC607C20B1207CFFF7AEFC20EAE0702E
:10565C0002B010BD007CFFF7AFBC10B5142104469E
:10566C0000F0D1FA204610BD10B54FF47A73044601
:10567C0008460021C4E90113044B23600123207464
:10568C0063741146FFF768FC204610BD30670D00AF
:10569C00007C0022FFF768BC10B5142204460021E0
:1056AC0000F02CFF204610BD10B5104C88B003A89C
:1056BC00FFF7F2FF2178BFF35B8F11F0010111D1DD
:1056CC0020460191FEF7E5FC019958B103AA084860
:1056DC00FFF7CAFF2046FEF7E1FC064A06490448DC
:1056EC0000F08CFA024808B010BD00BF80E6032021
:1056FC0084E60320E4E40320FF550D00004700007E
:10570C002DE9FF4100241D460F4690460646FFF743
:10571C00FBFAA5424FF00403ADF80D408DF80C30A8
:10572C008DF80F40A2BF9DF828308DF80E3003ACD9
:10573C000749009443463A463046A8BF8DF80D50B1
:10574C00FFF7DAFAB0FA80F0400904B0BDE8F08156
:10575C0009570D00FFF7E8BAFFF7DEBA704741743E
:10576C00704708B5007CFFF7A7FB20EAE07008BD86
:10577C0008B5007CFFF778FB20EAE07008BD08B59F
:10578C00007CFFF781FB40EAE07008BD08B5007CA7
:10579C00FFF772FB40EAE07008BD007CFFF77CBBB2
:1057AC0037B5457C04462DB1207C03B0BDE83040B4
:1057BC00FFF752BB007C0191FFF77EFB002801999B
:1057CC00F2DC284603B030BD10B51421044600F0BD
:1057DC001AFA204610BD000010B54FF0000C04461C
:1057EC00084611464FF47A72C4E901C2044A226099
:1057FC000122207462741A46FFF726FB204610BD66
:10580C0060670D0013B50E4C2178BFF35B8F11F060
:10581C00010112D120460191FEF73BFC019960B1C8
:10582C00084A094B0948FFF7D7FF2046FEF736FC1C
:10583C00074A0849054800F0E1F9044802B010BDD8
:10584C0098E603209CE6032020E70320A4E703202E
:10585C00E4E4032069570D007047F8B50646154679
:10586C000C468F18BC4206D0336814F8011B9B6899
:10587C0030469847F6E72846F8BD007C0022FFF733
:10588C0023BB007C0021FFF727BB007C0021FFF726
:10589C002BBB007C0021FFF72FBB007C0021FFF706
:1058AC0033BB10B51421044600F0ADF9204610BDF1
:1058BC0010B54FF47A73044608460021C4E901136D
:1058CC00034B236020741146FFF72EFB204610BDBE
:1058DC0090670D0010B5044628B100F03BFE90FB1C
:1058EC00F4F303FB1404204610BD884210B50446A3
:1058FC0003DA081AFFF7EEFF0444204610BD00221D
:10590C0040681146FFF7B4BB002240681146FFF710
:10591C00CFBB002240681146FFF7DABB406800227B
:10592C00FFF7CEBB4068002281F00101FFF7B8BB46
:10593C00002340681A461946FFF7AABB00234068AB
:10594C001A461946FFF79CBB002240681146FFF728
:10595C007FBB406800220221FFF782BB0023406816
:10596C001A46FFF76DBB0000024B04225A60024A34
:10597C001A607047B8E70320B8670D000023406831
:10598C001A46FFF75DBB406800220221FFF768BB97
:10599C00002240681146FFF75BBB002240681146AD
:1059AC00FFF766BB002340681A461946FFF768BB31
:1059BC00002340681A461946FFF76ABB406800216D
:1059CC00FFF78EBB40680021FFF792BB40680022B6
:1059DC0081F00101FFF764BB40680022FFF770BB48
:1059EC00002240681146FFF773BB00224068114645
:1059FC00FFF75EBB2DE9F043002495B016460D462B
:105A0C000746FFF7BDFD214618220EA8009400F0B2
:105A1C0075FD4023CDE90C3421466B460CAA30466B
:105A2C00FFF752F90446002846D102460121686866
:105A3C00FFF71EFB0221804622466868FFF718FB21
:105A4C00009E81462146002E36D0002934D1736841
:105A5C00022B03D00A2B0BD0F669F4E7B8F1000F38
:105A6C0004D0716938460431FFF7B7FD4146F3E7BE
:105A7C00B9F1000F01D14946EEE77469102201A873
:105A8C0000F03CFD06238DF8143001AD04F1080341
:105A9C001834186859682A4603C20833A3421546BD
:105AAC00F7D101A906A807ADFFF778FD0FCD3C1D76
:105ABC000FC42B682370DEE70098FFF7FDF838461B
:105ACC0015B0BDE8F0830000024B034A1A600022B7
:105ADC005A607047C0E70320F4670D00232813B504
:105AEC0002D9002002B010BDA0F10B03022B1AD872
:105AFC00174C2178BFF35B8F11F001010BD12046BD
:105B0C000191FEF7C6FA019928B11248FFF766FB1E
:105B1C002046FEF7C3FA0F4B1878FFF715FA00284A
:105B2C00DFD10120DEE7012809D800F03FF8002181
:105B3C00007CFFF7F1F980F00100C0B2D2E7093820
:105B4C000128EED8FFF75EFE007CFFF7ADF9F2E717
:105B5C00C8E70320CCE70320232838B504460D46BC
:105B6C000AD8FF2908D0FFF7B9FF28B129462046EB
:105B7C00BDE83840FFF7B8B838BD000038B5002391
:105B8C002025438014230446038085600561064963
:105B9C00284600F03CF804496060284600F037F8CD
:105BAC00E060204638BD00BF28680D0030B50F4DB1
:105BBC002978BFF35B8F11F0010487B013D128460D
:105BCC00FEF767FA78B101A8FFF7D8FF01AA2146C2
:105BDC000748FFF76DFE2846FEF760FA054A0649AE
:105BEC00034800F00BF8024807B030BDD8E703209B
:105BFC00DCE70320E4E4032065580D000B46014666
:105C0C00184600F05FBCFEF742BAFEF73CBAFEF74E
:105C1C003CBA08B5FFF794FA81F0004102E000BFEE
:105C2C0083F0004330B54FEA41044FEA430594EA50
:105C3C00050F08BF90EA020F1FBF54EA000C55EA8B
:105C4C00020C7FEA645C7FEA655C00F0E2804FEA5C
:105C5C005454D4EB5555B8BF6D420CDD2C4480EA3E
:105C6C00020281EA030382EA000083EA010180EA6E
:105C7C00020281EA0303362D88BF30BD11F0004FBC
:105C8C004FEA01314FF4801C4CEA113102D04042F2
:105C9C0061EB410113F0004F4FEA03334CEA13332D
:105CAC0002D0524263EB430394EA050F00F0A78045
:105CBC00A4F10104D5F1200E0DDB02FA0EFC22FA40
:105CCC0005F2801841F1000103FA0EF2801843FA34
:105CDC0005F359410EE0A5F120050EF1200E012A25
:105CEC0003FA0EFC28BF4CF0020C43FA05F3C01863
:105CFC0051EBE37101F0004507D54FF0000EDCF1DC
:105D0C00000C7EEB00006EEB0101B1F5801F1BD384
:105D1C00B1F5001F0CD349085FEA30004FEA3C0C88
:105D2C0004F101044FEA445212F5800F80F09A807E
:105D3C00BCF1004F08BF5FEA500C50F1000041EB82
:105D4C00045141EA050130BD5FEA4C0C404141EB86
:105D5C000101013C28BFB1F5801FE9D291F0000F81
:105D6C0004BF01460020B1FA81F308BF2033A3F130
:105D7C000B03B3F120020CDA0C3208DD02F1140C27
:105D8C00C2F10C0201FA0CF021FA02F10CE002F162
:105D9C001402D8BFC2F1200C01FA02F120FA0CFC5B
:105DAC00DCBF41EA0C019040E41AA2BF01EB0451A4
:105DBC00294330BD6FEA04041F3C1CDA0C340EDCA2
:105DCC0004F11404C4F1200220FA04F001FA02F3E5
:105DDC0040EA030021FA04F345EA030130BDC4F1A3
:105DEC000C04C4F1200220FA02F001FA04F340EA98
:105DFC000300294630BD21FA04F0294630BD94F049
:105E0C00000F83F4801306BF81F480110134013D2F
:105E1C004EE77FEA645C18BF7FEA655C29D094EAA0
:105E2C00050F08BF90EA020F05D054EA000C04BF1E
:105E3C001946104630BD91EA030F1EBF0021002009
:105E4C0030BD5FEA545C05D14000494128BF41F0A8
:105E5C00004130BD14F580043CBF01F5801130BD0C
:105E6C0001F0004545F0FE4141F470014FF0000097
:105E7C0030BD7FEA645C1ABF194610467FEA655C48
:105E8C001CBF0B46024650EA013406BF52EA0335EA
:105E9C0091EA030F41F4002130BD00BF90F0000FD8
:105EAC0004BF0021704730B54FF4806404F1320414
:105EBC004FF000054FF0000150E700BF90F0000FCD
:105ECC0004BF0021704730B54FF4806404F13204F4
:105EDC0010F0004548BF40424FF000013EE700BFC4
:105EEC0042004FEAE2014FEA31014FEA02701FBF54
:105EFC0012F07F4393F07F4F81F06051704732F086
:105F0C007F4208BF704793F07F4F04BF41F40021DC
:105F1C00704730B54FF4607401F0004521F000413A
:105F2C001CE700BF50EA010208BF704730B54FF0C4
:105F3C0000050AE050EA010208BF704730B511F0C5
:105F4C00004502D5404261EB41014FF4806404F1FD
:105F5C0032045FEA915C3FF4D8AE4FF003025FEA83
:105F6C00DC0C18BF03325FEADC0C18BF033202EB07
:105F7C00DC02C2F1200300FA03FC20FA02F001FA61
:105F8C0003FE40EA0E0021FA02F11444BDE600BF04
:105F9C0070B54FF0FF0C4CF4E06C1CEA11541DBFB3
:105FAC001CEA135594EA0C0F95EA0C0F00F0DEF87E
:105FBC002C4481EA030621EA4C5123EA4C5350EA63
:105FCC00013518BF52EA033541F4801143F48013B4
:105FDC0038D0A0FB02CE4FF00005E1FB02E506F045
:105FEC000042E0FB03E54FF00006E1FB03569CF09A
:105FFC00000F18BF4EF0010EA4F1FF04B6F5007FA0
:10600C0064F5407404D25FEA4E0E6D4146EB060611
:10601C0042EAC62141EA55514FEAC52040EA5E509A
:10602C004FEACE2EB4F1FD0C88BFBCF5E06F1ED844
:10603C00BEF1004F08BF5FEA500E50F1000041EB7B
:10604C00045170BD06F0004646EA010140EA020028
:10605C0081EA0301B4EB5C04C2BFD4EB0C0541EA4A
:10606C00045170BD41F480114FF0000E013C00F35F
:10607C00AB8014F1360FDEBF002001F0004170BD83
:10608C00C4F10004203C35DA0C341BDC04F114049C
:10609C00C4F1200500FA05F320FA04F001FA05F228
:1060AC0040EA020001F0004221F0004110EBD370F5
:1060BC0021FA04F642EB06015EEA430E08BF20EA21
:1060CC00D37070BDC4F10C04C4F1200500FA04F3C4
:1060DC0020FA05F001FA04F240EA020001F0004156
:1060EC0010EBD37041F100015EEA430E08BF20EAC9
:1060FC00D37070BDC4F1200500FA05F24EEA020E11
:10610C0020FA04F301FA05F243EA020321FA04F03F
:10611C0001F0004121FA04F220EA020000EBD370F6
:10612C005EEA430E08BF20EAD37070BD94F0000FF6
:10613C000FD101F00046400041EB010111F4801F2A
:10614C0008BF013CF7D041EA060195F0000F18BFDB
:10615C00704703F00046520043EB030313F4801F17
:10616C0008BF013DF7D043EA0603704794EA0C0FD1
:10617C000CEA135518BF95EA0C0F0CD050EA4106E7
:10618C0018BF52EA4306D1D181EA030101F0004164
:10619C004FF0000070BD50EA410606BF104619468C
:1061AC0052EA430619D094EA0C0F02D150EA013698
:1061BC0013D195EA0C0F05D152EA03361CBF1046D9
:1061CC0019460AD181EA030101F0004141F0FE4178
:1061DC0041F470014FF0000070BD41F0FE4141F4FC
:1061EC00780170BD70B54FF0FF0C4CF4E06C1CEAFC
:1061FC0011541DBF1CEA135594EA0C0F95EA0C0FB1
:10620C0000F0A7F8A4EB050481EA030E52EA03356B
:10621C004FEA013100F088804FEA03334FF080558C
:10622C0045EA131343EA12634FEA022245EA1115B9
:10623C0045EA10654FEA00260EF000419D4208BF6A
:10624C00964244F1FD0404F5407402D25B084FEA17
:10625C003202B61A65EB03055B084FEA32024FF4C3
:10626C0080104FF4002CB6EB020E75EB030E22BF20
:10627C00B61A754640EA0C005B084FEA3202B6EBE0
:10628C00020E75EB030E22BFB61A754640EA5C008F
:10629C005B084FEA3202B6EB020E75EB030E22BF1F
:1062AC00B61A754640EA9C005B084FEA3202B6EB20
:1062BC00020E75EB030E22BFB61A754640EADC00DF
:1062CC0055EA060E18D04FEA051545EA16754FEA41
:1062DC0006164FEAC30343EA52734FEAC2025FEA5F
:1062EC001C1CC0D111F4801F0BD141EA00014FF0EE
:1062FC0000004FF0004CB6E711F4801F04BF0143BF
:10630C000020B4F1FD0C88BFBCF5E06F3FF6AFAEDA
:10631C00B5EB030C04BFB6EB020C5FEA500C50F16A
:10632C00000041EB045170BD0EF0004E4EEA1131ED
:10633C0014EB5C04C2BFD4EB0C0541EA045170BDF4
:10634C0041F480114FF0000E013C90E645EA060E38
:10635C008DE60CEA135594EA0C0F08BF95EA0C0F66
:10636C003FF43BAF94EA0C0F0AD150EA01347FF4AE
:10637C0034AF95EA0C0F7FF425AF104619462CE785
:10638C0095EA0C0F06D152EA03353FF4FDAE1046E8
:10639C00194622E750EA410618BF52EA43067FF439
:1063AC00C5AE50EA41047FF40DAF52EA43057FF4C9
:1063BC00EBAE12E74FF0FF3C06E000BF4FF0010CD4
:1063CC0002E000BF4FF0010C4DF804CD4FEA410C38
:1063DC007FEA6C5C4FEA430C18BF7FEA6C5C1BD005
:1063EC0001B050EA410C0CBF52EA430C91EA030F86
:1063FC0002BF90EA020F0020704710F1000F91EAE3
:10640C00030F58BF994208BF90422CBFD8176FEAB0
:10641C00E37040F0010070474FEA410C7FEA6C5C7E
:10642C0002D150EA013C07D14FEA430C7FEA6C5C85
:10643C00D6D152EA033CD3D05DF8040B704700BFB1
:10644C008446104662468C461946634600E000BFFF
:10645C0001B5FFF7B7FF002848BF10F1000F01BDD1
:10646C004DF808EDFFF7F4FF0CBF012000205DF89C
:10647C0008FB00BF4DF808EDFFF7EAFF34BF012021
:10648C0000205DF808FB00BF4DF808EDFFF7E0FFBA
:10649C0094BF012000205DF808FB00BF4DF808ED0B
:1064AC00FFF7CEFF94BF012000205DF808FB00BF72
:1064BC004DF808EDFFF7C4FF34BF012000205DF854
:1064CC0008FB00BF10B5054C13462CB10A4601461B
:1064DC000220AFF3008010BD2046FCE70000000056
:1064EC000A44914200F1FF3300D1704710B511F806
:1064FC00014B03F8014F9142F9D110BD0244034600
:10650C00934200D1704703F8011BF9E738B50D4BE6
:10651C001D68AB6B04467BB91820FEF7F9FD0A4ADF
:10652C000A4BA863C0E90023094B83600B238381CA
:10653C0001220023C0E90423AB6B00221C615A61C9
:10654C0038BD00BF80E403200E33CDAB34126DE6B2
:10655C00ECDE0500134B10B51C68A36B7BB918203F
:10656C00FEF7D6FD104A114BA063C0E90023104B77
:10657C0083600B23838101220023C0E90423A16BD8
:10658C000C480A694B690C4C504304FB0300A2FBFA
:10659C0004345A1C044444F10000C1E9042020F0E6
:1065AC00004010BD80E403200E33CDAB34126DE6F9
:1065BC00ECDE05002DF451582D7F954C034613F855
:1065CC00012B002AFBD1181A013870471D400D0011
:1065DC0059400D0081400D0085400D000000000069
:1065EC0073656E64696E67546872656164004552C8
:1065FC00524F5220545249474745440041434B2087
:10660C00494E2021004D65737361676520476162B7
:10661C002031004D657373616765204761622032DC
:10662C00003132333435363738393071776572741E
:10663C007975696F706C6B6A6867666473617A7878
:10664C006376626E6D51574552545955494F504CB3
:10665C004B4A4847464453415A584356424E4D3193
:10666C0032333435363738393031323334353637D6
:10667C00004D657373616765203A20257300437282
:10668C0063203A20256400424144204D4553534138
:10669C0047452052454345495645440057414954C6
:1066AC00494E472054494D454F55540000000000B9
:1066BC0000000000CB510D00C1510D00B7510D0071
:1066CC00AD510D00A1510D0095510D00C9590D0092
:1066DC00D1590D0089510D0081510D0077510D00DC
:1066EC006D510D00015A0D006170700025592D255A
:1066FC006D2D25645425483A254D3A2553257A00AD
:10670C0061736374696D6500000000000000000097
:10671C0029550D0019550D001B550D0000000000EA
:10672C0000000000FF550D0067560D003D560D0092
:10673C0071520D002F560D0001560D0011560D0013
:10674C0061560D0021560D00FB550D000000000098
:10675C000000000069570D00D5570D00AD570D0016
:10676C0071520D007D570D0099570D008B570D0080
:10677C00A7570D006B570D006F570D000000000060
:10678C000000000065580D00AF580D0087580D0033
:10679C0067580D008F580D0097580D009F580D002D
:1067AC00A7580D00000000000000000069590D0002
:1067BC005F590D0055590D000B590D0049590D002D
:1067CC003D590D00C9590D00D1590D0031590D001D
:1067DC0029590D001F590D0015590D00015A0D00B6
:1067EC00000000000000000089590D0093590D00B5
:1067FC009D590D00A7590D00B1590D00BD590D0043
:10680C00C9590D00D1590D00D9590D00E5590D008C
:10681C00ED590D00F7590D00015A0D000000000054
:10682C00554C0D00D5510D00FD510D0049520D0078
:10683C0091530D00A1530D00D9530D0075590D0046
:04684C00D55A0D000C
:046850000000000044
:1068540001000100010001010C670D000090D0034C
:1068640084E4032000000000000000000000000099
:106874000000000000000000000000000000000014
:106884000000000000000000000000000000000004
:1068940000000000000000000000000000000000F4
:1068A40000000000000000000000000000000000E4
:1068B40000000000000000000000000000000000D4
:0468C40000000000D0
:1068C800FFFFFFFF00000102030405060708090A8D
:1068D8000B0C0D0E0F101112131415161718191A88
:0868E8001B1C1D1E1F202800CF
:0468F0007856341290
:04000003D000401CCD
:00000001FF
